{
  "_format": "hh-sol-artifact-1",
  "contractName": "DefaultStakableTokenValidator",
  "sourceName": "contracts/DefaultStakableTokenValidator.sol",
  "abi": [
    {
      "inputs": [
        {
          "internalType": "address",
          "name": "_dxTokenRegistryAddress",
          "type": "address"
        },
        {
          "internalType": "uint256",
          "name": "_dxTokenRegistryListId",
          "type": "uint256"
        },
        {
          "internalType": "address",
          "name": "_dxSwapFactoryAddress",
          "type": "address"
        }
      ],
      "stateMutability": "nonpayable",
      "type": "constructor"
    },
    {
      "anonymous": false,
      "inputs": [
        {
          "indexed": true,
          "internalType": "address",
          "name": "previousOwner",
          "type": "address"
        },
        {
          "indexed": true,
          "internalType": "address",
          "name": "newOwner",
          "type": "address"
        }
      ],
      "name": "OwnershipTransferred",
      "type": "event"
    },
    {
      "inputs": [],
      "name": "dxSwapFactory",
      "outputs": [
        {
          "internalType": "contract IDXswapFactory",
          "name": "",
          "type": "address"
        }
      ],
      "stateMutability": "view",
      "type": "function"
    },
    {
      "inputs": [],
      "name": "dxTokenRegistry",
      "outputs": [
        {
          "internalType": "contract IDXTokenRegistry",
          "name": "",
          "type": "address"
        }
      ],
      "stateMutability": "view",
      "type": "function"
    },
    {
      "inputs": [],
      "name": "dxTokenRegistryListId",
      "outputs": [
        {
          "internalType": "uint256",
          "name": "",
          "type": "uint256"
        }
      ],
      "stateMutability": "view",
      "type": "function"
    },
    {
      "inputs": [],
      "name": "owner",
      "outputs": [
        {
          "internalType": "address",
          "name": "",
          "type": "address"
        }
      ],
      "stateMutability": "view",
      "type": "function"
    },
    {
      "inputs": [],
      "name": "renounceOwnership",
      "outputs": [],
      "stateMutability": "nonpayable",
      "type": "function"
    },
    {
      "inputs": [
        {
          "internalType": "address",
          "name": "_dxSwapFactoryAddress",
          "type": "address"
        }
      ],
      "name": "setDxSwapFactory",
      "outputs": [],
      "stateMutability": "nonpayable",
      "type": "function"
    },
    {
      "inputs": [
        {
          "internalType": "address",
          "name": "_dxTokenRegistryAddress",
          "type": "address"
        }
      ],
      "name": "setDxTokenRegistry",
      "outputs": [],
      "stateMutability": "nonpayable",
      "type": "function"
    },
    {
      "inputs": [
        {
          "internalType": "uint256",
          "name": "_dxTokenRegistryListId",
          "type": "uint256"
        }
      ],
      "name": "setDxTokenRegistryListId",
      "outputs": [],
      "stateMutability": "nonpayable",
      "type": "function"
    },
    {
      "inputs": [
        {
          "internalType": "address",
          "name": "newOwner",
          "type": "address"
        }
      ],
      "name": "transferOwnership",
      "outputs": [],
      "stateMutability": "nonpayable",
      "type": "function"
    },
    {
      "inputs": [
        {
          "internalType": "address",
          "name": "_stakableTokenAddress",
          "type": "address"
        }
      ],
      "name": "validateToken",
      "outputs": [],
      "stateMutability": "view",
      "type": "function"
    }
  ],
  "bytecode": "0x60806040523480156200001157600080fd5b5060405162000f0538038062000f05833981016040819052620000349162000161565b60006200004062000140565b600080546001600160a01b0319166001600160a01b0383169081178255604051929350917f8be0079c531659141344cd1fd0a4f28419497f9722a3daafe3b4186f6b6457e0908290a3506001600160a01b038316620000bc5760405162461bcd60e51b8152600401620000b3906200024a565b60405180910390fd5b60008211620000df5760405162461bcd60e51b8152600401620000b390620001ed565b6001600160a01b038116620001085760405162461bcd60e51b8152600401620000b390620001a1565b600180546001600160a01b039485166001600160a01b0319918216179091556002929092556003805491909316911617905562000296565b3390565b80516001600160a01b03811681146200015c57600080fd5b919050565b60008060006060848603121562000176578283fd5b620001818462000144565b925060208401519150620001986040850162000144565b90509250925092565b602080825260389082015260008051602062000ee583398151915260408201527f2d6164647265737320666163746f727920616464726573730000000000000000606082015260800190565b60208082526034908201527f44656661756c745374616b61626c65546f6b656e56616c696461746f723a206960408201527f6e76616c696420746f6b656e206c697374206964000000000000000000000000606082015260800190565b6020808252603f9082015260008051602062000ee583398151915260408201527f2d6164647265737320746f6b656e207265676973747279206164647265737300606082015260800190565b610c3f80620002a66000396000f3fe608060405234801561001057600080fd5b506004361061009e5760003560e01c80638da5cb5b116100665780638da5cb5b146101065780639189c0f21461010e5780639532b6ab14610121578063d9fc05b914610134578063f2fde38b1461013c5761009e565b80631f31b8d0146100a3578063659bd06f146100c15780636d88c92f146100d6578063715018a6146100eb5780637ea54050146100f3575b600080fd5b6100ab61014f565b6040516100b89190610bd1565b60405180910390f35b6100c9610155565b6040516100b891906107ec565b6100e96100e4366004610775565b610164565b005b6100e96101f4565b6100e9610101366004610775565b61027d565b6100c9610304565b6100e961011c3660046107d4565b610313565b6100e961012f366004610775565b610377565b6100c96106a2565b6100e961014a366004610775565b6106b1565b60025481565b6003546001600160a01b031681565b61016c610771565b6001600160a01b031661017d610304565b6001600160a01b0316146101ac5760405162461bcd60e51b81526004016101a390610a28565b60405180910390fd5b6001600160a01b0381166101d25760405162461bcd60e51b81526004016101a390610977565b600380546001600160a01b0319166001600160a01b0392909216919091179055565b6101fc610771565b6001600160a01b031661020d610304565b6001600160a01b0316146102335760405162461bcd60e51b81526004016101a390610a28565b600080546040516001600160a01b03909116907f8be0079c531659141344cd1fd0a4f28419497f9722a3daafe3b4186f6b6457e0908390a3600080546001600160a01b0319169055565b610285610771565b6001600160a01b0316610296610304565b6001600160a01b0316146102bc5760405162461bcd60e51b81526004016101a390610a28565b6001600160a01b0381166102e25760405162461bcd60e51b81526004016101a390610a5d565b600180546001600160a01b0319166001600160a01b0392909216919091179055565b6000546001600160a01b031690565b61031b610771565b6001600160a01b031661032c610304565b6001600160a01b0316146103525760405162461bcd60e51b81526004016101a390610a28565b600081116103725760405162461bcd60e51b81526004016101a3906109d4565b600255565b6001600160a01b03811661039d5760405162461bcd60e51b81526004016101a390610860565b60008190506000816001600160a01b0316630dfe16816040518163ffffffff1660e01b815260040160206040518083038186803b1580156103dd57600080fd5b505afa92505050801561040d575060408051601f3d908101601f1916820190925261040a91810190610798565b60015b6104295760405162461bcd60e51b81526004016101a390610b74565b9050600154600254604051636ec456ef60e11b81526001600160a01b039092169163dd88adde9161045e918590600401610bda565b60206040518083038186803b15801561047657600080fd5b505afa15801561048a573d6000803e3d6000fd5b505050506040513d601f19601f820116820180604052508101906104ae91906107b4565b6104ca5760405162461bcd60e51b81526004016101a390610b17565b6000826001600160a01b031663d21220a76040518163ffffffff1660e01b815260040160206040518083038186803b15801561050557600080fd5b505afa925050508015610535575060408051601f3d908101601f1916820190925261053291810190610798565b60015b6105515760405162461bcd60e51b81526004016101a3906108bd565b9050600154600254604051636ec456ef60e11b81526001600160a01b039092169163dd88adde91610586918590600401610bda565b60206040518083038186803b15801561059e57600080fd5b505afa1580156105b2573d6000803e3d6000fd5b505050506040513d601f19601f820116820180604052508101906105d691906107b4565b6105f25760405162461bcd60e51b81526004016101a390610aba565b60035460405163e6a4390560e01b81526001600160a01b0380871692169063e6a43905906106269086908690600401610800565b60206040518083038186803b15801561063e57600080fd5b505afa158015610652573d6000803e3d6000fd5b505050506040513d601f19601f820116820180604052508101906106769190610798565b6001600160a01b03161461069c5760405162461bcd60e51b81526004016101a39061091a565b50505050565b6001546001600160a01b031681565b6106b9610771565b6001600160a01b03166106ca610304565b6001600160a01b0316146106f05760405162461bcd60e51b81526004016101a390610a28565b6001600160a01b0381166107165760405162461bcd60e51b81526004016101a39061081a565b600080546040516001600160a01b03808516939216917f8be0079c531659141344cd1fd0a4f28419497f9722a3daafe3b4186f6b6457e091a3600080546001600160a01b0319166001600160a01b0392909216919091179055565b3390565b600060208284031215610786578081fd5b813561079181610bf1565b9392505050565b6000602082840312156107a9578081fd5b815161079181610bf1565b6000602082840312156107c5578081fd5b81518015158114610791578182fd5b6000602082840312156107e5578081fd5b5035919050565b6001600160a01b0391909116815260200190565b6001600160a01b0392831681529116602082015260400190565b60208082526026908201527f4f776e61626c653a206e6577206f776e657220697320746865207a65726f206160408201526564647265737360d01b606082015260800190565b60208082526037908201527f44656661756c745374616b61626c65546f6b656e56616c696461746f723a203060408201527f2d61646472657373207374616b61626c6520746f6b656e000000000000000000606082015260800190565b6020808252603c908201527f44656661756c745374616b61626c65546f6b656e56616c696461746f723a206360408201527f6f756c64206e6f742067657420746f6b656e3120666f72207061697200000000606082015260800190565b6020808252603d908201527f44656661756c745374616b61626c65546f6b656e56616c696461746f723a207060408201527f616972206e6f74207265676973746572656420696e20666163746f7279000000606082015260800190565b60208082526038908201527f44656661756c745374616b61626c65546f6b656e56616c696461746f723a203060408201527f2d6164647265737320666163746f727920616464726573730000000000000000606082015260800190565b60208082526034908201527f44656661756c745374616b61626c65546f6b656e56616c696461746f723a20696040820152731b9d985b1a59081d1bdad95b881b1a5cdd081a5960621b606082015260800190565b6020808252818101527f4f776e61626c653a2063616c6c6572206973206e6f7420746865206f776e6572604082015260600190565b6020808252603f908201527f44656661756c745374616b61626c65546f6b656e56616c696461746f723a203060408201527f2d6164647265737320746f6b656e207265676973747279206164647265737300606082015260800190565b6020808252603c908201527f44656661756c745374616b61626c65546f6b656e56616c696461746f723a206960408201527f6e76616c696420746f6b656e203120696e205377617072207061697200000000606082015260800190565b6020808252603c908201527f44656661756c745374616b61626c65546f6b656e56616c696461746f723a206960408201527f6e76616c696420746f6b656e203020696e205377617072207061697200000000606082015260800190565b6020808252603c908201527f44656661756c745374616b61626c65546f6b656e56616c696461746f723a206360408201527f6f756c64206e6f742067657420746f6b656e3020666f72207061697200000000606082015260800190565b90815260200190565b9182526001600160a01b0316602082015260400190565b6001600160a01b0381168114610c0657600080fd5b5056fea26469706673582212209d3574a326adc448af272183d75dda6006560a1994199cce281f1aef10197c8964736f6c6343000800003344656661756c745374616b61626c65546f6b656e56616c696461746f723a2030",
  "linkReferences": {},
  "deployedLinkReferences": {}
}