{
  "_format": "hh-sol-artifact-1",
  "contractName": "DefaultRewardTokensValidator",
  "sourceName": "contracts/SwaprRewardTokensValidator.sol",
  "abi": [
    {
      "inputs": [
        {
          "internalType": "address",
          "name": "_dxTokenRegistryAddress",
          "type": "address"
        },
        {
          "internalType": "uint256",
          "name": "_dxTokenRegistryListId",
          "type": "uint256"
        }
      ],
      "stateMutability": "nonpayable",
      "type": "constructor"
    },
    {
      "anonymous": false,
      "inputs": [
        {
          "indexed": true,
          "internalType": "address",
          "name": "previousOwner",
          "type": "address"
        },
        {
          "indexed": true,
          "internalType": "address",
          "name": "newOwner",
          "type": "address"
        }
      ],
      "name": "OwnershipTransferred",
      "type": "event"
    },
    {
      "inputs": [],
      "name": "dxTokenRegistry",
      "outputs": [
        {
          "internalType": "contract IDXTokenRegistry",
          "name": "",
          "type": "address"
        }
      ],
      "stateMutability": "view",
      "type": "function"
    },
    {
      "inputs": [],
      "name": "dxTokenRegistryListId",
      "outputs": [
        {
          "internalType": "uint256",
          "name": "",
          "type": "uint256"
        }
      ],
      "stateMutability": "view",
      "type": "function"
    },
    {
      "inputs": [],
      "name": "owner",
      "outputs": [
        {
          "internalType": "address",
          "name": "",
          "type": "address"
        }
      ],
      "stateMutability": "view",
      "type": "function"
    },
    {
      "inputs": [],
      "name": "renounceOwnership",
      "outputs": [],
      "stateMutability": "nonpayable",
      "type": "function"
    },
    {
      "inputs": [
        {
          "internalType": "address",
          "name": "_dxTokenRegistryAddress",
          "type": "address"
        }
      ],
      "name": "setDxTokenRegistry",
      "outputs": [],
      "stateMutability": "nonpayable",
      "type": "function"
    },
    {
      "inputs": [
        {
          "internalType": "uint256",
          "name": "_dxTokenRegistryListId",
          "type": "uint256"
        }
      ],
      "name": "setDxTokenRegistryListId",
      "outputs": [],
      "stateMutability": "nonpayable",
      "type": "function"
    },
    {
      "inputs": [
        {
          "internalType": "address",
          "name": "newOwner",
          "type": "address"
        }
      ],
      "name": "transferOwnership",
      "outputs": [],
      "stateMutability": "nonpayable",
      "type": "function"
    },
    {
      "inputs": [
        {
          "internalType": "address[]",
          "name": "_rewardTokens",
          "type": "address[]"
        }
      ],
      "name": "validateTokens",
      "outputs": [],
      "stateMutability": "view",
      "type": "function"
    }
  ],
  "bytecode": "0x608060405234801561001057600080fd5b5060405161097138038061097183398101604081905261002f91610190565b600080546001600160a01b031916339081178255604051909182917f8be0079c531659141344cd1fd0a4f28419497f9722a3daafe3b4186f6b6457e0908290a3506001600160a01b0382166100f15760405162461bcd60e51b815260206004820152603e60248201527f44656661756c74526577617264546f6b656e7356616c696461746f723a20302d60448201527f6164647265737320746f6b656e2072656769737472792061646472657373000060648201526084015b60405180910390fd5b600081116101675760405162461bcd60e51b815260206004820152603360248201527f44656661756c74526577617264546f6b656e7356616c696461746f723a20696e60448201527f76616c696420746f6b656e206c6973742069640000000000000000000000000060648201526084016100e8565b600180546001600160a01b0319166001600160a01b0393909316929092179091556002556101c8565b600080604083850312156101a2578182fd5b82516001600160a01b03811681146101b8578283fd5b6020939093015192949293505050565b61079a806101d76000396000f3fe608060405234801561001057600080fd5b50600436106100885760003560e01c80639189c0f21161005b5780639189c0f2146100eb578063c8fe2c68146100fe578063d9fc05b914610111578063f2fde38b1461012457600080fd5b80631f31b8d01461008d578063715018a6146100a95780637ea54050146100b35780638da5cb5b146100c6575b600080fd5b61009660025481565b6040519081526020015b60405180910390f35b6100b1610137565b005b6100b16100c1366004610632565b6101b4565b6000546001600160a01b03165b6040516001600160a01b0390911681526020016100a0565b6100b16100f93660046106f0565b61027c565b6100b161010c366004610660565b610317565b6001546100d3906001600160a01b031681565b6100b1610132366004610632565b610548565b6000546001600160a01b0316331461016a5760405162461bcd60e51b815260040161016190610708565b60405180910390fd5b600080546040516001600160a01b03909116907f8be0079c531659141344cd1fd0a4f28419497f9722a3daafe3b4186f6b6457e0908390a3600080546001600160a01b0319169055565b6000546001600160a01b031633146101de5760405162461bcd60e51b815260040161016190610708565b6001600160a01b03811661025a5760405162461bcd60e51b815260206004820152603e60248201527f44656661756c74526577617264546f6b656e7356616c696461746f723a20302d60448201527f6164647265737320746f6b656e207265676973747279206164647265737300006064820152608401610161565b600180546001600160a01b0319166001600160a01b0392909216919091179055565b6000546001600160a01b031633146102a65760405162461bcd60e51b815260040161016190610708565b600081116103125760405162461bcd60e51b815260206004820152603360248201527f44656661756c74526577617264546f6b656e7356616c696461746f723a20696e6044820152721d985b1a59081d1bdad95b881b1a5cdd081a59606a1b6064820152608401610161565b600255565b8061038a5760405162461bcd60e51b815260206004820152603a60248201527f44656661756c74526577617264546f6b656e7356616c696461746f723a20302d60448201527f6c656e6774682072657761726420746f6b656e732061727261790000000000006064820152608401610161565b60005b818110156105435760008383838181106103b757634e487b7160e01b600052603260045260246000fd5b90506020020160208101906103cc9190610632565b90506001600160a01b0381166104415760405162461bcd60e51b815260206004820152603460248201527f44656661756c74526577617264546f6b656e7356616c696461746f723a20302d60448201527330b2323932b9b9903932bbb0b932103a37b5b2b760611b6064820152608401610161565b600154600254604051636ec456ef60e11b815260048101919091526001600160a01b0383811660248301529091169063dd88adde9060440160206040518083038186803b15801561049157600080fd5b505afa1580156104a5573d6000803e3d6000fd5b505050506040513d601f19601f820116820180604052508101906104c991906106d0565b6105305760405162461bcd60e51b815260206004820152603260248201527f44656661756c74526577617264546f6b656e7356616c696461746f723a20696e6044820152713b30b634b2103932bbb0b932103a37b5b2b760711b6064820152608401610161565b508061053b8161073d565b91505061038d565b505050565b6000546001600160a01b031633146105725760405162461bcd60e51b815260040161016190610708565b6001600160a01b0381166105d75760405162461bcd60e51b815260206004820152602660248201527f4f776e61626c653a206e6577206f776e657220697320746865207a65726f206160448201526564647265737360d01b6064820152608401610161565b600080546040516001600160a01b03808516939216917f8be0079c531659141344cd1fd0a4f28419497f9722a3daafe3b4186f6b6457e091a3600080546001600160a01b0319166001600160a01b0392909216919091179055565b600060208284031215610643578081fd5b81356001600160a01b0381168114610659578182fd5b9392505050565b60008060208385031215610672578081fd5b823567ffffffffffffffff80821115610689578283fd5b818501915085601f83011261069c578283fd5b8135818111156106aa578384fd5b8660208260051b85010111156106be578384fd5b60209290920196919550909350505050565b6000602082840312156106e1578081fd5b81518015158114610659578182fd5b600060208284031215610701578081fd5b5035919050565b6020808252818101527f4f776e61626c653a2063616c6c6572206973206e6f7420746865206f776e6572604082015260600190565b600060001982141561075d57634e487b7160e01b81526011600452602481fd5b506001019056fea264697066735822122064fd46976b003f3d79679b9be253bd54aac0b01c57650e5b1344399b69f0ee6164736f6c63430008040033",
  "linkReferences": {},
  "deployedLinkReferences": {}
}