{
  "_format": "hh-sol-artifact-1",
  "contractName": "DefaultRewardTokensValidator",
  "sourceName": "contracts/DefaultRewardTokensValidator.sol",
  "abi": [
    {
      "inputs": [
        {
          "internalType": "address",
          "name": "_dxTokenRegistryAddress",
          "type": "address"
        },
        {
          "internalType": "uint256",
          "name": "_dxTokenRegistryListId",
          "type": "uint256"
        }
      ],
      "stateMutability": "nonpayable",
      "type": "constructor"
    },
    {
      "anonymous": false,
      "inputs": [
        {
          "indexed": true,
          "internalType": "address",
          "name": "previousOwner",
          "type": "address"
        },
        {
          "indexed": true,
          "internalType": "address",
          "name": "newOwner",
          "type": "address"
        }
      ],
      "name": "OwnershipTransferred",
      "type": "event"
    },
    {
      "inputs": [],
      "name": "dxTokenRegistry",
      "outputs": [
        {
          "internalType": "contract DXTokenRegistry",
          "name": "",
          "type": "address"
        }
      ],
      "stateMutability": "view",
      "type": "function"
    },
    {
      "inputs": [],
      "name": "dxTokenRegistryListId",
      "outputs": [
        {
          "internalType": "uint256",
          "name": "",
          "type": "uint256"
        }
      ],
      "stateMutability": "view",
      "type": "function"
    },
    {
      "inputs": [],
      "name": "owner",
      "outputs": [
        {
          "internalType": "address",
          "name": "",
          "type": "address"
        }
      ],
      "stateMutability": "view",
      "type": "function"
    },
    {
      "inputs": [],
      "name": "renounceOwnership",
      "outputs": [],
      "stateMutability": "nonpayable",
      "type": "function"
    },
    {
      "inputs": [
        {
          "internalType": "address",
          "name": "_dxTokenRegistryAddress",
          "type": "address"
        }
      ],
      "name": "setDxTokenRegistry",
      "outputs": [],
      "stateMutability": "nonpayable",
      "type": "function"
    },
    {
      "inputs": [
        {
          "internalType": "uint256",
          "name": "_dxTokenRegistryListId",
          "type": "uint256"
        }
      ],
      "name": "setDxTokenRegistryListId",
      "outputs": [],
      "stateMutability": "nonpayable",
      "type": "function"
    },
    {
      "inputs": [
        {
          "internalType": "address",
          "name": "newOwner",
          "type": "address"
        }
      ],
      "name": "transferOwnership",
      "outputs": [],
      "stateMutability": "nonpayable",
      "type": "function"
    },
    {
      "inputs": [
        {
          "internalType": "address[]",
          "name": "_rewardTokens",
          "type": "address[]"
        }
      ],
      "name": "validateTokens",
      "outputs": [],
      "stateMutability": "view",
      "type": "function"
    }
  ],
  "bytecode": "0x608060405234801561001057600080fd5b506040516109a63803806109a68339818101604052604081101561003357600080fd5b508051602090910151600061004661013d565b600080546001600160a01b0319166001600160a01b0383169081178255604051929350917f8be0079c531659141344cd1fd0a4f28419497f9722a3daafe3b4186f6b6457e0908290a3506001600160a01b0382166100d55760405162461bcd60e51b815260040180806020018281038252603e815260200180610968603e913960400191505060405180910390fd5b600081116101145760405162461bcd60e51b81526004018080602001828103825260338152602001806109356033913960400191505060405180910390fd5b600180546001600160a01b0319166001600160a01b039390931692909217909155600255610141565b3390565b6107e5806101506000396000f3fe608060405234801561001057600080fd5b50600436106100885760003560e01c80639189c0f21161005b5780639189c0f2146100fb578063c8fe2c6814610118578063d9fc05b914610188578063f2fde38b1461019057610088565b80631f31b8d01461008d578063715018a6146100a75780637ea54050146100b15780638da5cb5b146100d7575b600080fd5b6100956101b6565b60408051918252519081900360200190f35b6100af6101bc565b005b6100af600480360360208110156100c757600080fd5b50356001600160a01b031661025e565b6100df61031d565b604080516001600160a01b039092168252519081900360200190f35b6100af6004803603602081101561011157600080fd5b503561032c565b6100af6004803603602081101561012e57600080fd5b81019060208101813564010000000081111561014957600080fd5b82018360208201111561015b57600080fd5b8035906020019184602083028401116401000000008311171561017d57600080fd5b5090925090506103c8565b6100df61054d565b6100af600480360360208110156101a657600080fd5b50356001600160a01b031661055c565b60025481565b6101c4610654565b6000546001600160a01b03908116911614610214576040805162461bcd60e51b815260206004820181905260248201526000805160206106e6833981519152604482015290519081900360640190fd5b600080546040516001600160a01b03909116907f8be0079c531659141344cd1fd0a4f28419497f9722a3daafe3b4186f6b6457e0908390a3600080546001600160a01b0319169055565b610266610654565b6000546001600160a01b039081169116146102b6576040805162461bcd60e51b815260206004820181905260248201526000805160206106e6833981519152604482015290519081900360640190fd5b6001600160a01b0381166102fb5760405162461bcd60e51b815260040180806020018281038252603e815260200180610740603e913960400191505060405180910390fd5b600180546001600160a01b0319166001600160a01b0392909216919091179055565b6000546001600160a01b031690565b610334610654565b6000546001600160a01b03908116911614610384576040805162461bcd60e51b815260206004820181905260248201526000805160206106e6833981519152604482015290519081900360640190fd5b600081116103c35760405162461bcd60e51b815260040180806020018281038252603381526020018061067f6033913960400191505060405180910390fd5b600255565b806104045760405162461bcd60e51b815260040180806020018281038252603a815260200180610706603a913960400191505060405180910390fd5b60005b8181101561054857600083838381811061041d57fe5b905060200201356001600160a01b0316905060006001600160a01b0316816001600160a01b031614156104815760405162461bcd60e51b81526004018080602001828103825260348152602001806106b26034913960400191505060405180910390fd5b60015460025460408051636ec456ef60e11b815260048101929092526001600160a01b038481166024840152905192169163dd88adde91604480820192602092909190829003018186803b1580156104d857600080fd5b505afa1580156104ec573d6000803e3d6000fd5b505050506040513d602081101561050257600080fd5b505161053f5760405162461bcd60e51b815260040180806020018281038252603281526020018061077e6032913960400191505060405180910390fd5b50600101610407565b505050565b6001546001600160a01b031681565b610564610654565b6000546001600160a01b039081169116146105b4576040805162461bcd60e51b815260206004820181905260248201526000805160206106e6833981519152604482015290519081900360640190fd5b6001600160a01b0381166105f95760405162461bcd60e51b81526004018080602001828103825260268152602001806106596026913960400191505060405180910390fd5b600080546040516001600160a01b03808516939216917f8be0079c531659141344cd1fd0a4f28419497f9722a3daafe3b4186f6b6457e091a3600080546001600160a01b0319166001600160a01b0392909216919091179055565b339056fe4f776e61626c653a206e6577206f776e657220697320746865207a65726f206164647265737344656661756c74526577617264546f6b656e7356616c696461746f723a20696e76616c696420746f6b656e206c69737420696444656661756c74526577617264546f6b656e7356616c696461746f723a20302d616464726573732072657761726420746f6b656e4f776e61626c653a2063616c6c6572206973206e6f7420746865206f776e657244656661756c74526577617264546f6b656e7356616c696461746f723a20302d6c656e6774682072657761726420746f6b656e7320617272617944656661756c74526577617264546f6b656e7356616c696461746f723a20302d6164647265737320746f6b656e207265676973747279206164647265737344656661756c74526577617264546f6b656e7356616c696461746f723a20696e76616c69642072657761726420746f6b656ea26469706673582212203d1c9cbc2c7acce6240207d372e1d7380bc56fb06da282a0a188cf108273cd4764736f6c634300060c003344656661756c74526577617264546f6b656e7356616c696461746f723a20696e76616c696420746f6b656e206c69737420696444656661756c74526577617264546f6b656e7356616c696461746f723a20302d6164647265737320746f6b656e2072656769737472792061646472657373",
  "linkReferences": {},
  "deployedLinkReferences": {}
}