{
  "_format": "hh-sol-artifact-1",
  "contractName": "DefaultStakableTokenValidator",
  "sourceName": "contracts/SwaprStakableTokenValidator.sol",
  "abi": [
    {
      "inputs": [
        {
          "internalType": "address",
          "name": "_dxTokenRegistryAddress",
          "type": "address"
        },
        {
          "internalType": "uint256",
          "name": "_dxTokenRegistryListId",
          "type": "uint256"
        }
      ],
      "stateMutability": "nonpayable",
      "type": "constructor"
    },
    {
      "anonymous": false,
      "inputs": [
        {
          "indexed": true,
          "internalType": "address",
          "name": "previousOwner",
          "type": "address"
        },
        {
          "indexed": true,
          "internalType": "address",
          "name": "newOwner",
          "type": "address"
        }
      ],
      "name": "OwnershipTransferred",
      "type": "event"
    },
    {
      "inputs": [],
      "name": "dxTokenRegistry",
      "outputs": [
        {
          "internalType": "contract IDXTokenRegistry",
          "name": "",
          "type": "address"
        }
      ],
      "stateMutability": "view",
      "type": "function"
    },
    {
      "inputs": [],
      "name": "dxTokenRegistryListId",
      "outputs": [
        {
          "internalType": "uint256",
          "name": "",
          "type": "uint256"
        }
      ],
      "stateMutability": "view",
      "type": "function"
    },
    {
      "inputs": [],
      "name": "owner",
      "outputs": [
        {
          "internalType": "address",
          "name": "",
          "type": "address"
        }
      ],
      "stateMutability": "view",
      "type": "function"
    },
    {
      "inputs": [],
      "name": "renounceOwnership",
      "outputs": [],
      "stateMutability": "nonpayable",
      "type": "function"
    },
    {
      "inputs": [
        {
          "internalType": "address",
          "name": "_dxTokenRegistryAddress",
          "type": "address"
        }
      ],
      "name": "setDxTokenRegistry",
      "outputs": [],
      "stateMutability": "nonpayable",
      "type": "function"
    },
    {
      "inputs": [
        {
          "internalType": "uint256",
          "name": "_dxTokenRegistryListId",
          "type": "uint256"
        }
      ],
      "name": "setDxTokenRegistryListId",
      "outputs": [],
      "stateMutability": "nonpayable",
      "type": "function"
    },
    {
      "inputs": [
        {
          "internalType": "address",
          "name": "newOwner",
          "type": "address"
        }
      ],
      "name": "transferOwnership",
      "outputs": [],
      "stateMutability": "nonpayable",
      "type": "function"
    },
    {
      "inputs": [
        {
          "internalType": "address",
          "name": "_stakableTokenAddress",
          "type": "address"
        }
      ],
      "name": "validateToken",
      "outputs": [],
      "stateMutability": "view",
      "type": "function"
    }
  ],
  "bytecode": "0x608060405234801561001057600080fd5b506040516108f93803806108f983398101604081905261002f916100ff565b60006100396100fb565b600080546001600160a01b0319166001600160a01b0383169081178255604051929350917f8be0079c531659141344cd1fd0a4f28419497f9722a3daafe3b4186f6b6457e0908290a3506001600160a01b0382166100b25760405162461bcd60e51b81526004016100a990610194565b60405180910390fd5b600081116100d25760405162461bcd60e51b81526004016100a990610137565b600180546001600160a01b0319166001600160a01b0393909316929092179091556002556101f1565b3390565b60008060408385031215610111578182fd5b82516001600160a01b0381168114610127578283fd5b6020939093015192949293505050565b60208082526034908201527f44656661756c745374616b61626c65546f6b656e56616c696461746f723a206960408201527f6e76616c696420746f6b656e206c697374206964000000000000000000000000606082015260800190565b6020808252603f908201527f44656661756c745374616b61626c65546f6b656e56616c696461746f723a203060408201527f2d6164647265737320746f6b656e207265676973747279206164647265737300606082015260800190565b6106f9806102006000396000f3fe608060405234801561001057600080fd5b50600436106100885760003560e01c80639189c0f21161005b5780639189c0f2146100dd5780639532b6ab146100f0578063d9fc05b914610103578063f2fde38b1461010b57610088565b80631f31b8d01461008d578063715018a6146100ab5780637ea54050146100b55780638da5cb5b146100c8575b600080fd5b61009561011e565b6040516100a291906106a3565b60405180910390f35b6100b3610124565b005b6100b36100c336600461044b565b6101b6565b6100d061023d565b6040516100a291906104b1565b6100b36100eb366004610499565b61024c565b6100b36100fe36600461044b565b6102b0565b6100d0610378565b6100b361011936600461044b565b610387565b60025481565b61012c610447565b6001600160a01b031661013d61023d565b6001600160a01b03161461016c5760405162461bcd60e51b815260040161016390610611565b60405180910390fd5b600080546040516001600160a01b03909116907f8be0079c531659141344cd1fd0a4f28419497f9722a3daafe3b4186f6b6457e0908390a3600080546001600160a01b0319169055565b6101be610447565b6001600160a01b03166101cf61023d565b6001600160a01b0316146101f55760405162461bcd60e51b815260040161016390610611565b6001600160a01b03811661021b5760405162461bcd60e51b815260040161016390610646565b600180546001600160a01b0319166001600160a01b0392909216919091179055565b6000546001600160a01b031690565b610254610447565b6001600160a01b031661026561023d565b6001600160a01b03161461028b5760405162461bcd60e51b815260040161016390610611565b600081116102ab5760405162461bcd60e51b8152600401610163906105bd565b600255565b6001600160a01b0381166102d65760405162461bcd60e51b81526004016101639061050b565b600154600254604051636ec456ef60e11b81526001600160a01b039092169163dd88adde916103099185906004016106ac565b60206040518083038186803b15801561032157600080fd5b505afa158015610335573d6000803e3d6000fd5b505050506040513d601f19601f820116820180604052508101906103599190610479565b6103755760405162461bcd60e51b815260040161016390610568565b50565b6001546001600160a01b031681565b61038f610447565b6001600160a01b03166103a061023d565b6001600160a01b0316146103c65760405162461bcd60e51b815260040161016390610611565b6001600160a01b0381166103ec5760405162461bcd60e51b8152600401610163906104c5565b600080546040516001600160a01b03808516939216917f8be0079c531659141344cd1fd0a4f28419497f9722a3daafe3b4186f6b6457e091a3600080546001600160a01b0319166001600160a01b0392909216919091179055565b3390565b60006020828403121561045c578081fd5b81356001600160a01b0381168114610472578182fd5b9392505050565b60006020828403121561048a578081fd5b81518015158114610472578182fd5b6000602082840312156104aa578081fd5b5035919050565b6001600160a01b0391909116815260200190565b60208082526026908201527f4f776e61626c653a206e6577206f776e657220697320746865207a65726f206160408201526564647265737360d01b606082015260800190565b60208082526037908201527f44656661756c745374616b61626c65546f6b656e56616c696461746f723a203060408201527f2d61646472657373207374616b61626c6520746f6b656e000000000000000000606082015260800190565b60208082526035908201527f44656661756c745374616b61626c65546f6b656e56616c696461746f723a2069604082015274373b30b634b21039ba30b5b0b13632903a37b5b2b760591b606082015260800190565b60208082526034908201527f44656661756c745374616b61626c65546f6b656e56616c696461746f723a20696040820152731b9d985b1a59081d1bdad95b881b1a5cdd081a5960621b606082015260800190565b6020808252818101527f4f776e61626c653a2063616c6c6572206973206e6f7420746865206f776e6572604082015260600190565b6020808252603f908201527f44656661756c745374616b61626c65546f6b656e56616c696461746f723a203060408201527f2d6164647265737320746f6b656e207265676973747279206164647265737300606082015260800190565b90815260200190565b9182526001600160a01b031660208201526040019056fea26469706673582212206f82fc7fad96aa7d43eae1340a54623e46fc1ccf3e1051a0e1c5dd96692ab28164736f6c63430008000033",
  "linkReferences": {},
  "deployedLinkReferences": {}
}