{
  "_format": "hh-sol-artifact-1",
  "contractName": "DXdaoERC20StakingRewardsDistributionFactory",
  "sourceName": "contracts/DXdaoERC20StakingRewardsDistributionFactory.sol",
  "abi": [
    {
      "inputs": [
        {
          "internalType": "address",
          "name": "_rewardTokensValidatorAddress",
          "type": "address"
        },
        {
          "internalType": "address",
          "name": "_stakableTokenValidatorAddress",
          "type": "address"
        },
        {
          "internalType": "address",
          "name": "_implementation",
          "type": "address"
        }
      ],
      "stateMutability": "nonpayable",
      "type": "constructor"
    },
    {
      "anonymous": false,
      "inputs": [
        {
          "indexed": false,
          "internalType": "address",
          "name": "owner",
          "type": "address"
        },
        {
          "indexed": false,
          "internalType": "address",
          "name": "deployedAt",
          "type": "address"
        }
      ],
      "name": "DistributionCreated",
      "type": "event"
    },
    {
      "anonymous": false,
      "inputs": [
        {
          "indexed": true,
          "internalType": "address",
          "name": "previousOwner",
          "type": "address"
        },
        {
          "indexed": true,
          "internalType": "address",
          "name": "newOwner",
          "type": "address"
        }
      ],
      "name": "OwnershipTransferred",
      "type": "event"
    },
    {
      "anonymous": false,
      "inputs": [
        {
          "indexed": true,
          "internalType": "address",
          "name": "implementation",
          "type": "address"
        }
      ],
      "name": "Upgraded",
      "type": "event"
    },
    {
      "inputs": [
        {
          "internalType": "address[]",
          "name": "_rewardTokensAddresses",
          "type": "address[]"
        },
        {
          "internalType": "address",
          "name": "_stakableTokenAddress",
          "type": "address"
        },
        {
          "internalType": "uint256[]",
          "name": "_rewardAmounts",
          "type": "uint256[]"
        },
        {
          "internalType": "uint64",
          "name": "_startingTimestamp",
          "type": "uint64"
        },
        {
          "internalType": "uint64",
          "name": "_endingTimestmp",
          "type": "uint64"
        },
        {
          "internalType": "bool",
          "name": "_locked",
          "type": "bool"
        },
        {
          "internalType": "uint256",
          "name": "_stakingCap",
          "type": "uint256"
        }
      ],
      "name": "createDistribution",
      "outputs": [],
      "stateMutability": "nonpayable",
      "type": "function"
    },
    {
      "inputs": [
        {
          "internalType": "uint256",
          "name": "",
          "type": "uint256"
        }
      ],
      "name": "distributions",
      "outputs": [
        {
          "internalType": "contract ERC20StakingRewardsDistribution",
          "name": "",
          "type": "address"
        }
      ],
      "stateMutability": "view",
      "type": "function"
    },
    {
      "inputs": [],
      "name": "getDistributionsAmount",
      "outputs": [
        {
          "internalType": "uint256",
          "name": "",
          "type": "uint256"
        }
      ],
      "stateMutability": "view",
      "type": "function"
    },
    {
      "inputs": [],
      "name": "implementation",
      "outputs": [
        {
          "internalType": "address",
          "name": "",
          "type": "address"
        }
      ],
      "stateMutability": "view",
      "type": "function"
    },
    {
      "inputs": [],
      "name": "owner",
      "outputs": [
        {
          "internalType": "address",
          "name": "",
          "type": "address"
        }
      ],
      "stateMutability": "view",
      "type": "function"
    },
    {
      "inputs": [],
      "name": "renounceOwnership",
      "outputs": [],
      "stateMutability": "nonpayable",
      "type": "function"
    },
    {
      "inputs": [],
      "name": "rewardTokensValidator",
      "outputs": [
        {
          "internalType": "contract IRewardTokensValidator",
          "name": "",
          "type": "address"
        }
      ],
      "stateMutability": "view",
      "type": "function"
    },
    {
      "inputs": [
        {
          "internalType": "address",
          "name": "_rewardTokensValidatorAddress",
          "type": "address"
        }
      ],
      "name": "setRewardTokensValidator",
      "outputs": [],
      "stateMutability": "nonpayable",
      "type": "function"
    },
    {
      "inputs": [
        {
          "internalType": "address",
          "name": "_stakableTokenValidatorAddress",
          "type": "address"
        }
      ],
      "name": "setStakableTokenValidator",
      "outputs": [],
      "stateMutability": "nonpayable",
      "type": "function"
    },
    {
      "inputs": [],
      "name": "stakableTokenValidator",
      "outputs": [
        {
          "internalType": "contract IStakableTokenValidator",
          "name": "",
          "type": "address"
        }
      ],
      "stateMutability": "view",
      "type": "function"
    },
    {
      "inputs": [
        {
          "internalType": "address",
          "name": "newOwner",
          "type": "address"
        }
      ],
      "name": "transferOwnership",
      "outputs": [],
      "stateMutability": "nonpayable",
      "type": "function"
    },
    {
      "inputs": [
        {
          "internalType": "address",
          "name": "newImplementation",
          "type": "address"
        }
      ],
      "name": "upgradeTo",
      "outputs": [],
      "stateMutability": "nonpayable",
      "type": "function"
    }
  ],
  "bytecode": "0x60806040523480156200001157600080fd5b5060405162001b7838038062001b78833981016040819052620000349162000156565b8080600062000042620000d0565b600080546001600160a01b0319166001600160a01b0383169081178255604051929350917f8be0079c531659141344cd1fd0a4f28419497f9722a3daafe3b4186f6b6457e0908290a3506200009781620000d4565b5050600380546001600160a01b039485166001600160a01b031991821617909155600480549390941692169190911790915550620001fc565b3390565b620000ea816200013460201b620005ec1760201c565b620001125760405162461bcd60e51b815260040162000109906200019f565b60405180910390fd5b600180546001600160a01b0319166001600160a01b0392909216919091179055565b803b15155b919050565b80516001600160a01b03811681146200013957600080fd5b6000806000606084860312156200016b578283fd5b62000176846200013e565b925062000186602085016200013e565b915062000196604085016200013e565b90509250925092565b60208082526033908201527f5570677261646561626c65426561636f6e3a20696d706c656d656e746174696f60408201527f6e206973206e6f74206120636f6e747261637400000000000000000000000000606082015260800190565b61196c806200020c6000396000f3fe60806040523480156200001157600080fd5b5060043610620000c35760003560e01c80635c60da1b116200007b5780635c60da1b1462000152578063715018a6146200015c5780638da5cb5b14620001665780639d684baa1462000170578063d5eeaef71462000187578063f2fde38b14620001a057620000c3565b806208372714620000c85780630fed647d14620000e15780632c8908ff14620001035780633659cfe6146200011a5780634487d3df146200013157806344d15b231462000148575b600080fd5b620000df620000d936600462000b4e565b620001b7565b005b620000eb62000228565b604051620000fa919062000d07565b60405180910390f35b620000df6200011436600462000b6b565b62000237565b620000df6200012b36600462000b4e565b62000344565b620000eb6200014236600462000c58565b620003cc565b620000eb620003f7565b620000eb62000406565b620000df62000415565b620000eb620004a5565b620000df6200018136600462000b4e565b620004b4565b620001916200051c565b604051620000fa919062000fc9565b620000df620001b136600462000b4e565b62000522565b620001c1620005f6565b6001600160a01b0316620001d4620004a5565b6001600160a01b031614620002065760405162461bcd60e51b8152600401620001fd9062000f13565b60405180910390fd5b600380546001600160a01b0319166001600160a01b0392909216919091179055565b6004546001600160a01b031681565b6003546001600160a01b031615620002b05760035460405163191fc58d60e31b81526001600160a01b039091169063c8fe2c68906200027d908c908c9060040162000d7f565b60006040518083038186803b1580156200029657600080fd5b505afa158015620002ab573d6000803e3d6000fd5b505050505b6004546001600160a01b031615620003265760048054604051639532b6ab60e01b81526001600160a01b0390911691639532b6ab91620002f3918b910162000d07565b60006040518083038186803b1580156200030c57600080fd5b505afa15801562000321573d6000803e3d6000fd5b505050505b62000339898989898989898989620005fa565b505050505050505050565b6200034e620005f6565b6001600160a01b031662000361620004a5565b6001600160a01b0316146200038a5760405162461bcd60e51b8152600401620001fd9062000f13565b620003958162000852565b6040516001600160a01b038216907fbc7cd75a20ee27fd9adebab32041f755214dbc6bffa90cc0225b39da2e5c2d3b90600090a250565b60028181548110620003dd57600080fd5b6000918252602090912001546001600160a01b0316905081565b6003546001600160a01b031681565b6001546001600160a01b031690565b6200041f620005f6565b6001600160a01b031662000432620004a5565b6001600160a01b0316146200045b5760405162461bcd60e51b8152600401620001fd9062000f13565b600080546040516001600160a01b03909116907f8be0079c531659141344cd1fd0a4f28419497f9722a3daafe3b4186f6b6457e0908390a3600080546001600160a01b0319169055565b6000546001600160a01b031690565b620004be620005f6565b6001600160a01b0316620004d1620004a5565b6001600160a01b031614620004fa5760405162461bcd60e51b8152600401620001fd9062000f13565b600480546001600160a01b0319166001600160a01b0392909216919091179055565b60025490565b6200052c620005f6565b6001600160a01b03166200053f620004a5565b6001600160a01b031614620005685760405162461bcd60e51b8152600401620001fd9062000f13565b6001600160a01b038116620005915760405162461bcd60e51b8152600401620001fd9062000e34565b600080546040516001600160a01b03808516939216917f8be0079c531659141344cd1fd0a4f28419497f9722a3daafe3b4186f6b6457e091a3600080546001600160a01b0319166001600160a01b0392909216919091179055565b803b15155b919050565b3390565b600030604051806020016040528060008152506040516200061b9062000ac3565b6200062892919062000d59565b604051809103906000f08015801562000645573d6000803e3d6000fd5b50905060005b89811015620006e75760008888838181106200067757634e487b7160e01b600052603260045260246000fd5b905060200201359050620006d13384838f8f87818110620006a857634e487b7160e01b600052603260045260246000fd5b9050602002016020810190620006bf919062000b4e565b6001600160a01b03169291906200089e565b5080620006de8162001001565b9150506200064b565b506040516311d1371b60e11b815281906001600160a01b038216906323a26e369062000728908e908e908e908e908e908e908e908e908e9060040162000d95565b600060405180830381600087803b1580156200074357600080fd5b505af115801562000758573d6000803e3d6000fd5b505060405163f2fde38b60e01b81526001600160a01b038416925063f2fde38b91506200078a90339060040162000d07565b600060405180830381600087803b158015620007a557600080fd5b505af1158015620007ba573d6000803e3d6000fd5b5050600280546001810182556000919091527f405787fa12a823e0f2b7631cc41b3ba8828b3321ca811111fa75cd3aa3bb5ace0180546001600160a01b0319166001600160a01b03851617905550506040517fc017437e795c074edadc242e8f0b868fb614ed8d2923b9a58cbc52799e8b9b27906200083d903390849062000d1b565b60405180910390a15050505050505050505050565b6200085d81620005ec565b6200087c5760405162461bcd60e51b8152600401620001fd9062000ec0565b600180546001600160a01b0319166001600160a01b0392909216919091179055565b620008fa846323b872dd60e01b858585604051602401620008c29392919062000d35565b60408051601f198184030181529190526020810180516001600160e01b03166001600160e01b03199093169290921790915262000900565b50505050565b600062000957826040518060400160405280602081526020017f5361666545524332303a206c6f772d6c6576656c2063616c6c206661696c6564815250856001600160a01b03166200099c9092919063ffffffff16565b80519091501562000997578080602001905181019062000978919062000c39565b620009975760405162461bcd60e51b8152600401620001fd9062000f7f565b505050565b6060620009ad8484600085620009b7565b90505b9392505050565b606082471015620009dc5760405162461bcd60e51b8152600401620001fd9062000e7a565b620009e785620005ec565b62000a065760405162461bcd60e51b8152600401620001fd9062000f48565b600080866001600160a01b0316858760405162000a24919062000ce9565b60006040518083038185875af1925050503d806000811462000a63576040519150601f19603f3d011682016040523d82523d6000602084013e62000a68565b606091505b509150915062000a7a82828662000a85565b979650505050505050565b6060831562000a96575081620009b0565b82511562000aa75782518084602001fd5b8160405162461bcd60e51b8152600401620001fd919062000e1f565b6108fb806200103c83390190565b80356001600160a01b0381168114620005f157600080fd5b60008083601f84011262000afb578182fd5b50813567ffffffffffffffff81111562000b13578182fd5b602083019150836020808302850101111562000b2e57600080fd5b9250929050565b803567ffffffffffffffff81168114620005f157600080fd5b60006020828403121562000b60578081fd5b620009b08262000ad1565b600080600080600080600080600060e08a8c03121562000b89578485fd5b893567ffffffffffffffff8082111562000ba1578687fd5b62000baf8d838e0162000ae9565b909b50995089915062000bc560208d0162000ad1565b985060408c013591508082111562000bdb578687fd5b5062000bea8c828d0162000ae9565b909750955062000bff905060608b0162000b35565b935062000c0f60808b0162000b35565b925060a08a013562000c218162001029565b8092505060c08a013590509295985092959850929598565b60006020828403121562000c4b578081fd5b8151620009b08162001029565b60006020828403121562000c6a578081fd5b5035919050565b60008284526020808501945082825b8581101562000cb0576001600160a01b0362000c9c8362000ad1565b168752958201959082019060010162000c80565b509495945050505050565b6000815180845262000cd581602086016020860162000fd2565b601f01601f19169290920160200192915050565b6000825162000cfd81846020870162000fd2565b9190910192915050565b6001600160a01b0391909116815260200190565b6001600160a01b0392831681529116602082015260400190565b6001600160a01b039384168152919092166020820152604081019190915260600190565b6001600160a01b0383168152604060208201819052600090620009ad9083018462000cbb565b600060208252620009ad60208301848662000c71565b600060e0825262000dab60e083018b8d62000c71565b6001600160a01b038a16602084015282810360408401528781526001600160fb1b0388111562000dd9578182fd5b60208802808a60208401370160200190815267ffffffffffffffff958616606083015293909416608085015290151560a084015260c09092019190915295945050505050565b600060208252620009b0602083018462000cbb565b60208082526026908201527f4f776e61626c653a206e6577206f776e657220697320746865207a65726f206160408201526564647265737360d01b606082015260800190565b60208082526026908201527f416464726573733a20696e73756666696369656e742062616c616e636520666f6040820152651c8818d85b1b60d21b606082015260800190565b60208082526033908201527f5570677261646561626c65426561636f6e3a20696d706c656d656e746174696f6040820152721b881a5cc81b9bdd08184818dbdb9d1c9858dd606a1b606082015260800190565b6020808252818101527f4f776e61626c653a2063616c6c6572206973206e6f7420746865206f776e6572604082015260600190565b6020808252601d908201527f416464726573733a2063616c6c20746f206e6f6e2d636f6e7472616374000000604082015260600190565b6020808252602a908201527f5361666545524332303a204552433230206f7065726174696f6e20646964206e6040820152691bdd081cdd58d8d9595960b21b606082015260800190565b90815260200190565b60005b8381101562000fef57818101518382015260200162000fd5565b83811115620008fa5750506000910152565b60006000198214156200102257634e487b7160e01b81526011600452602481fd5b5060010190565b80151581146200103857600080fd5b5056fe60806040526040516108fb3803806108fb83398101604081905261002291610358565b61004d60017fa3f0ad74e5423aebfd80d3ef4346578335a9a72aeaee59ff6cb3582b35133d51610545565b6000805160206108ba8339815191521461007757634e487b7160e01b600052600160045260246000fd5b6100818282610088565b50506105aa565b61009b826101b360201b6100311760201c565b6100c05760405162461bcd60e51b81526004016100b79061045d565b60405180910390fd5b610143826001600160a01b0316635c60da1b6040518163ffffffff1660e01b815260040160206040518083038186803b1580156100fc57600080fd5b505afa158015610110573d6000803e3d6000fd5b505050506040513d601f19601f82011682018060405250810190610134919061033e565b6101b360201b6100311760201c565b61015f5760405162461bcd60e51b81526004016100b7906104e8565b6000805160206108ba8339815191528281558151156101ae576101ac6101836101bd565b836040518060600160405280602181526020016108da6021913961023c60201b6100371760201c565b505b505050565b803b15155b919050565b60006101c76102db565b6001600160a01b0316635c60da1b6040518163ffffffff1660e01b815260040160206040518083038186803b1580156101ff57600080fd5b505afa158015610213573d6000803e3d6000fd5b505050506040513d601f19601f82011682018060405250810190610237919061033e565b905090565b6060610247846101b3565b6102635760405162461bcd60e51b81526004016100b7906104a2565b600080856001600160a01b03168560405161027e919061040e565b600060405180830381855af49150503d80600081146102b9576040519150601f19603f3d011682016040523d82523d6000602084013e6102be565b606091505b5090925090506102cf8282866102ee565b925050505b9392505050565b6000805160206108ba8339815191525490565b606083156102fd5750816102d4565b82511561030d5782518084602001fd5b8160405162461bcd60e51b81526004016100b7919061042a565b80516001600160a01b03811681146101b857600080fd5b60006020828403121561034f578081fd5b6102d482610327565b6000806040838503121561036a578081fd5b61037383610327565b60208401519092506001600160401b038082111561038f578283fd5b818501915085601f8301126103a2578283fd5b8151818111156103b4576103b4610594565b604051601f8201601f1916810160200183811182821017156103d8576103d8610594565b6040528181528382016020018810156103ef578485fd5b610400826020830160208701610568565b809450505050509250929050565b60008251610420818460208701610568565b9190910192915050565b6000602082528251806020840152610449816040850160208701610568565b601f01601f19169190910160400192915050565b60208082526025908201527f426561636f6e50726f78793a20626561636f6e206973206e6f74206120636f6e6040820152641d1c9858dd60da1b606082015260800190565b60208082526026908201527f416464726573733a2064656c65676174652063616c6c20746f206e6f6e2d636f6040820152651b9d1c9858dd60d21b606082015260800190565b60208082526034908201527f426561636f6e50726f78793a20626561636f6e20696d706c656d656e7461746960408201527f6f6e206973206e6f74206120636f6e7472616374000000000000000000000000606082015260800190565b60008282101561056357634e487b7160e01b81526011600452602481fd5b500390565b60005b8381101561058357818101518382015260200161056b565b838111156101ac5750506000910152565b634e487b7160e01b600052604160045260246000fd5b610301806105b96000396000f3fe60806040523661001357610011610017565b005b6100115b61001f61002f565b61002f61002a6100de565b61015d565b565b3b151590565b606061004284610031565b6100675760405162461bcd60e51b815260040161005e90610255565b60405180910390fd5b600080856001600160a01b0316856040516100829190610206565b600060405180830381855af49150503d80600081146100bd576040519150601f19603f3d011682016040523d82523d6000602084013e6100c2565b606091505b50915091506100d2828286610181565b925050505b9392505050565b60006100e86101ba565b6001600160a01b0316635c60da1b6040518163ffffffff1660e01b815260040160206040518083038186803b15801561012057600080fd5b505afa158015610134573d6000803e3d6000fd5b505050506040513d601f19601f8201168201806040525081019061015891906101df565b905090565b3660008037600080366000845af43d6000803e80801561017c573d6000f35b3d6000fd5b606083156101905750816100d7565b8251156101a05782518084602001fd5b8160405162461bcd60e51b815260040161005e9190610222565b7fa3f0ad74e5423aebfd80d3ef4346578335a9a72aeaee59ff6cb3582b35133d505490565b6000602082840312156101f0578081fd5b81516001600160a01b03811681146100d7578182fd5b6000825161021881846020870161029b565b9190910192915050565b600060208252825180602084015261024181604085016020870161029b565b601f01601f19169190910160400192915050565b60208082526026908201527f416464726573733a2064656c65676174652063616c6c20746f206e6f6e2d636f6040820152651b9d1c9858dd60d21b606082015260800190565b60005b838110156102b657818101518382015260200161029e565b838111156102c5576000848401525b5050505056fea2646970667358221220440560a13316f3c3b32c7b0a4f6f8c97206be481ad042357b453f58b7ab6ed9264736f6c63430008000033a3f0ad74e5423aebfd80d3ef4346578335a9a72aeaee59ff6cb3582b35133d50426561636f6e50726f78793a2066756e6374696f6e2063616c6c206661696c6564a2646970667358221220ca9a1dbb62ff712c0930b913a923138149cb700393e9f7c2c1f0414e973d2b8c64736f6c63430008000033",
  "linkReferences": {},
  "deployedLinkReferences": {}
}