{
  "_format": "hh-sol-artifact-1",
  "contractName": "SwaprERC20StakingRewardsDistributionFactory",
  "sourceName": "contracts/SwaprERC20StakingRewardsDistributionFactory.sol",
  "abi": [
    {
      "inputs": [
        {
          "internalType": "address",
          "name": "_rewardTokensValidatorAddress",
          "type": "address"
        },
        {
          "internalType": "address",
          "name": "_stakableTokenValidatorAddress",
          "type": "address"
        }
      ],
      "stateMutability": "nonpayable",
      "type": "constructor"
    },
    {
      "anonymous": false,
      "inputs": [
        {
          "indexed": true,
          "internalType": "address",
          "name": "creator",
          "type": "address"
        },
        {
          "indexed": false,
          "internalType": "address[]",
          "name": "rewardsTokenAddresses",
          "type": "address[]"
        },
        {
          "indexed": false,
          "internalType": "address",
          "name": "stakableTokenAddresses",
          "type": "address"
        },
        {
          "indexed": false,
          "internalType": "uint256[]",
          "name": "rewardsAmounts",
          "type": "uint256[]"
        },
        {
          "indexed": false,
          "internalType": "uint256",
          "name": "startingTimestamp",
          "type": "uint256"
        },
        {
          "indexed": false,
          "internalType": "uint256",
          "name": "endingTimestamp",
          "type": "uint256"
        },
        {
          "indexed": false,
          "internalType": "bool",
          "name": "locked",
          "type": "bool"
        }
      ],
      "name": "Created",
      "type": "event"
    },
    {
      "anonymous": false,
      "inputs": [
        {
          "indexed": true,
          "internalType": "address",
          "name": "previousOwner",
          "type": "address"
        },
        {
          "indexed": true,
          "internalType": "address",
          "name": "newOwner",
          "type": "address"
        }
      ],
      "name": "OwnershipTransferred",
      "type": "event"
    },
    {
      "inputs": [
        {
          "internalType": "address[]",
          "name": "_rewardTokensAddresses",
          "type": "address[]"
        },
        {
          "internalType": "address",
          "name": "_stakableTokenAddress",
          "type": "address"
        },
        {
          "internalType": "uint256[]",
          "name": "_rewardAmounts",
          "type": "uint256[]"
        },
        {
          "internalType": "uint64",
          "name": "_startingTimestamp",
          "type": "uint64"
        },
        {
          "internalType": "uint64",
          "name": "_endingTimestmp",
          "type": "uint64"
        },
        {
          "internalType": "bool",
          "name": "_locked",
          "type": "bool"
        }
      ],
      "name": "createDistribution",
      "outputs": [],
      "stateMutability": "nonpayable",
      "type": "function"
    },
    {
      "inputs": [
        {
          "internalType": "uint256",
          "name": "",
          "type": "uint256"
        }
      ],
      "name": "distributions",
      "outputs": [
        {
          "internalType": "contract ERC20StakingRewardsDistribution",
          "name": "",
          "type": "address"
        }
      ],
      "stateMutability": "view",
      "type": "function"
    },
    {
      "inputs": [],
      "name": "getDistributionsAmount",
      "outputs": [
        {
          "internalType": "uint256",
          "name": "",
          "type": "uint256"
        }
      ],
      "stateMutability": "view",
      "type": "function"
    },
    {
      "inputs": [],
      "name": "owner",
      "outputs": [
        {
          "internalType": "address",
          "name": "",
          "type": "address"
        }
      ],
      "stateMutability": "view",
      "type": "function"
    },
    {
      "inputs": [],
      "name": "renounceOwnership",
      "outputs": [],
      "stateMutability": "nonpayable",
      "type": "function"
    },
    {
      "inputs": [],
      "name": "rewardTokensValidator",
      "outputs": [
        {
          "internalType": "contract IRewardTokensValidator",
          "name": "",
          "type": "address"
        }
      ],
      "stateMutability": "view",
      "type": "function"
    },
    {
      "inputs": [
        {
          "internalType": "address",
          "name": "_rewardTokensValidatorAddress",
          "type": "address"
        }
      ],
      "name": "setRewardTokensValidator",
      "outputs": [],
      "stateMutability": "nonpayable",
      "type": "function"
    },
    {
      "inputs": [
        {
          "internalType": "address",
          "name": "_stakableTokenValidatorAddress",
          "type": "address"
        }
      ],
      "name": "setStakableTokenValidator",
      "outputs": [],
      "stateMutability": "nonpayable",
      "type": "function"
    },
    {
      "inputs": [],
      "name": "stakableTokenValidator",
      "outputs": [
        {
          "internalType": "contract IStakableTokenValidator",
          "name": "",
          "type": "address"
        }
      ],
      "stateMutability": "view",
      "type": "function"
    },
    {
      "inputs": [
        {
          "internalType": "address",
          "name": "newOwner",
          "type": "address"
        }
      ],
      "name": "transferOwnership",
      "outputs": [],
      "stateMutability": "nonpayable",
      "type": "function"
    }
  ],
  "bytecode": "0x608060405234801561001057600080fd5b506040516139533803806139538339818101604052604081101561003357600080fd5b508051602090910151600061004661014b565b600080546001600160a01b0319166001600160a01b0383169081178255604051929350917f8be0079c531659141344cd1fd0a4f28419497f9722a3daafe3b4186f6b6457e0908290a3506001600160a01b0382166100d55760405162461bcd60e51b815260040180806020018281038252604e8152602001806138b6604e913960600191505060405180910390fd5b6001600160a01b03811661011a5760405162461bcd60e51b815260040180806020018281038252604f815260200180613904604f913960600191505060405180910390fd5b600280546001600160a01b039384166001600160a01b0319918216179091556003805492909316911617905561014f565b3390565b6137588061015e6000396000f3fe608060405234801561001057600080fd5b506004361061009d5760003560e01c8063715018a611610066578063715018a6146101fe5780638da5cb5b146102065780639d684baa1461020e578063d5eeaef714610234578063f2fde38b1461024e5761009d565b8062083727146100a25780630fed647d146100ca5780634487d3df146100ee57806344d15b231461010b578063484a5eaa14610113575b600080fd5b6100c8600480360360208110156100b857600080fd5b50356001600160a01b0316610274565b005b6100d2610333565b604080516001600160a01b039092168252519081900360200190f35b6100d26004803603602081101561010457600080fd5b5035610342565b6100d2610369565b6100c8600480360360c081101561012957600080fd5b81019060208101813564010000000081111561014457600080fd5b82018360208201111561015657600080fd5b8035906020019184602083028401116401000000008311171561017857600080fd5b919390926001600160a01b03833516926040810190602001356401000000008111156101a357600080fd5b8201836020820111156101b557600080fd5b803590602001918460208302840111640100000000831117156101d757600080fd5b919350915067ffffffffffffffff8135811691602081013590911690604001351515610378565b6100c861048a565b6100d261052c565b6100c86004803603602081101561022457600080fd5b50356001600160a01b031661053b565b61023c6105fa565b60408051918252519081900360200190f35b6100c86004803603602081101561026457600080fd5b50356001600160a01b0316610600565b61027c6106f8565b6000546001600160a01b039081169116146102cc576040805162461bcd60e51b815260206004820181905260248201526000805160206136d9833981519152604482015290519081900360640190fd5b6001600160a01b0381166103115760405162461bcd60e51b815260040180806020018281038252604e815260200180613616604e913960600191505060405180910390fd5b600280546001600160a01b0319166001600160a01b0392909216919091179055565b6003546001600160a01b031681565b6001818154811061034f57fe5b6000918252602090912001546001600160a01b0316905081565b6002546001600160a01b031681565b60025460405163191fc58d60e31b8152602060048201818152602483018b90526001600160a01b039093169263c8fe2c68928c928c929182916044909101908590850280828437600081840152601f19601f820116905080830192505050935050505060006040518083038186803b1580156103f357600080fd5b505afa158015610407573d6000803e3d6000fd5b505060035460408051639532b6ab60e01b81526001600160a01b038b811660048301529151919092169350639532b6ab92506024808301926000929190829003018186803b15801561045857600080fd5b505afa15801561046c573d6000803e3d6000fd5b5050505061048088888888888888886106fc565b5050505050505050565b6104926106f8565b6000546001600160a01b039081169116146104e2576040805162461bcd60e51b815260206004820181905260248201526000805160206136d9833981519152604482015290519081900360640190fd5b600080546040516001600160a01b03909116907f8be0079c531659141344cd1fd0a4f28419497f9722a3daafe3b4186f6b6457e0908390a3600080546001600160a01b0319169055565b6000546001600160a01b031690565b6105436106f8565b6000546001600160a01b03908116911614610593576040805162461bcd60e51b815260206004820181905260248201526000805160206136d9833981519152604482015290519081900360640190fd5b6001600160a01b0381166105d85760405162461bcd60e51b815260040180806020018281038252604f81526020018061368a604f913960600191505060405180910390fd5b600380546001600160a01b0319166001600160a01b0392909216919091179055565b60015490565b6106086106f8565b6000546001600160a01b03908116911614610658576040805162461bcd60e51b815260206004820181905260248201526000805160206136d9833981519152604482015290519081900360640190fd5b6001600160a01b03811661069d5760405162461bcd60e51b81526004018080602001828103825260268152602001806135f06026913960400191505060405180910390fd5b600080546040516001600160a01b03808516939216917f8be0079c531659141344cd1fd0a4f28419497f9722a3daafe3b4186f6b6457e091a3600080546001600160a01b0319166001600160a01b0392909216919091179055565b3390565b600060405161070a90610d4b565b604051809103906000f080158015610726573d6000803e3d6000fd5b50905060005b8881101561078f57600087878381811061074257fe5b9050602002013590506107863384838e8e8781811061075d57fe5b905060200201356001600160a01b03166001600160a01b0316610a16909392919063ffffffff16565b5060010161072c565b50806001600160a01b031663c03e72958a8a8a8a8a8a8a8a6040518963ffffffff1660e01b81526004018080602001886001600160a01b03168152602001806020018667ffffffffffffffff1681526020018567ffffffffffffffff168152602001841515815260200183810383528b8b82818152602001925060200280828437600083820152601f01601f19169091018481038352888152602090810191508990890280828437600081840152601f19601f8201169050808301925050509a5050505050505050505050600060405180830381600087803b15801561087457600080fd5b505af1158015610888573d6000803e3d6000fd5b50506040805163f2fde38b60e01b815233600482015290516001600160a01b038516935063f2fde38b9250602480830192600092919082900301818387803b1580156108d357600080fd5b505af11580156108e7573d6000803e3d6000fd5b50506001805480820182556000919091527fb10e2d527612073b26eecdfd717e6a320cf44b4afac2b0732d9fcbe2b7fa0cf60180546001600160a01b0319166001600160a01b038581169190911790915560408051918b1660208084019190915267ffffffffffffffff89811660608501528816608084015286151560a084015260c080845283018d90523394507fc7f1200eff8df5432ff1ff44f4656416de85f28a712897b8fc7a74d590486bd293508d928d928d928d928d928d928d928d929091829182019060e08301908c908c0280828437600083820152601f01601f19169091018481038352888152602090810191508990890280828437600083820152604051601f909101601f19169092018290039c50909a5050505050505050505050a2505050505050505050565b604080516001600160a01b0380861660248301528416604482015260648082018490528251808303909101815260849091019091526020810180516001600160e01b03166323b872dd60e01b179052610a70908590610a76565b50505050565b6060610acb826040518060400160405280602081526020017f5361666545524332303a206c6f772d6c6576656c2063616c6c206661696c6564815250856001600160a01b0316610b2c9092919063ffffffff16565b805190915015610b2757808060200190516020811015610aea57600080fd5b5051610b275760405162461bcd60e51b815260040180806020018281038252602a8152602001806136f9602a913960400191505060405180910390fd5b505050565b6060610b3b8484600085610b45565b90505b9392505050565b606082471015610b865760405162461bcd60e51b81526004018080602001828103825260268152602001806136646026913960400191505060405180910390fd5b610b8f85610ca1565b610be0576040805162461bcd60e51b815260206004820152601d60248201527f416464726573733a2063616c6c20746f206e6f6e2d636f6e7472616374000000604482015290519081900360640190fd5b60006060866001600160a01b031685876040518082805190602001908083835b60208310610c1f5780518252601f199092019160209182019101610c00565b6001836020036101000a03801982511681845116808217855250505050505090500191505060006040518083038185875af1925050503d8060008114610c81576040519150601f19603f3d011682016040523d82523d6000602084013e610c86565b606091505b5091509150610c96828286610ca7565b979650505050505050565b3b151590565b60608315610cb6575081610b3e565b825115610cc65782518084602001fd5b8160405162461bcd60e51b81526004018080602001828103825283818151815260200191508051906020019080838360005b83811015610d10578181015183820152602001610cf8565b50505050905090810190601f168015610d3d5780820380516001836020036101000a031916815260200191505b509250505060405180910390fd5b61289780610d598339019056fe608060405234801561001057600080fd5b50600061001b61006a565b600080546001600160a01b0319166001600160a01b0383169081178255604051929350917f8be0079c531659141344cd1fd0a4f28419497f9722a3daafe3b4186f6b6457e0908290a35061006e565b3390565b61281a8061007d6000396000f3fe608060405234801561001057600080fd5b50600436106101cf5760003560e01c8063867b2f2711610104578063c03e7295116100a2578063e644067d11610071578063e644067d14610593578063e66d85be1461059b578063ea8a1af0146105c1578063f2fde38b146105c9576101cf565b8063c03e729514610441578063c10de3001461052b578063c4f59f9b14610533578063cf3090121461058b576101cf565b806398f81230116100de57806398f81230146103d0578063a694fc3a146103f6578063ab08d4fc14610413578063b41fa97914610439576101cf565b8063867b2f271461039a57806388786272146103c05780638da5cb5b146103c8576101cf565b80635e5294b711610171578063715018a61161014b578063715018a614610319578063728e4a671461032157806375b8dbf81461034f5780637bb7bed11461037d576101cf565b80635e5294b7146102c7578063645a8a56146102eb5780636715dcb814610311576101cf565b806334380a61116101ad57806334380a61146102335780633b34ee501461027357806348895a9c146102995780634e71d92d146102bf576101cf565b8063158ef93e146101d45780631c96c3fb146101f05780632e1a7d4d14610214575b600080fd5b6101dc6105ef565b604080519115158252519081900360200190f35b6101f86105ff565b604080516001600160a01b039092168252519081900360200190f35b6102316004803603602081101561022a57600080fd5b503561060e565b005b6102616004803603604081101561024957600080fd5b506001600160a01b0381358116916020013516610836565b60408051918252519081900360200190f35b6102616004803603602081101561028957600080fd5b50356001600160a01b0316610853565b610261600480360360208110156102af57600080fd5b50356001600160a01b0316610865565b610231610877565b6102cf610adf565b604080516001600160401b039092168252519081900360200190f35b6102616004803603602081101561030157600080fd5b50356001600160a01b0316610af5565b610231610b07565b610231610e65565b6102616004803603604081101561033757600080fd5b506001600160a01b0381358116916020013516610f07565b6102616004803603604081101561036557600080fd5b506001600160a01b0381358116916020013516610f24565b6101f86004803603602081101561039357600080fd5b5035610f41565b610261600480360360208110156103b057600080fd5b50356001600160a01b0316610f68565b6102cf610f7a565b6101f8610f89565b610261600480360360208110156103e657600080fd5b50356001600160a01b0316610f98565b6102316004803603602081101561040c57600080fd5b5035610faa565b6102616004803603602081101561042957600080fd5b50356001600160a01b0316611189565b61026161119b565b610231600480360360c081101561045757600080fd5b81019060208101813564010000000081111561047257600080fd5b82018360208201111561048457600080fd5b803590602001918460208302840111640100000000831117156104a657600080fd5b919390926001600160a01b03833516926040810190602001356401000000008111156104d157600080fd5b8201836020820111156104e357600080fd5b8035906020019184602083028401116401000000008311171561050557600080fd5b91935091506001600160401b0381358116916020810135909116906040013515156111a1565b6102cf6117f6565b61053b61180c565b60408051602080825283518183015283519192839290830191858101910280838360005b8381101561057757818101518382015260200161055f565b505050509050019250505060405180910390f35b6101dc61186e565b61023161187e565b610261600480360360208110156105b157600080fd5b50356001600160a01b0316611a76565b610231611a88565b610231600480360360208110156105df57600080fd5b50356001600160a01b0316611c4f565b600954600160881b900460ff1681565b6002546001600160a01b031681565b600954600160881b900460ff166106565760405162461bcd60e51b81526004018080602001828103825260308152602001806125176030913960400191505060405180910390fd5b600954600160881b900460ff16801561067a57506009546001600160401b03164210155b6106b55760405162461bcd60e51b815260040180806020018281038252602c815260200180612324602c913960400191505060405180910390fd5b600081116106f45760405162461bcd60e51b815260040180806020018281038252603a815260200180612350603a913960400191505060405180910390fd5b600954600160801b900460ff161561075657600954600160401b90046001600160401b031642116107565760405162461bcd60e51b81526004018080602001828103825260498152602001806127476049913960600191505060405180910390fd5b61075e610b07565b336000908152600b60205260409020548111156107ac5760405162461bcd60e51b815260040180806020018281038252604c81526020018061243b604c913960600191505060405180910390fd5b336000908152600b60205260409020546107c69082611d47565b336000908152600b60205260409020556007546107e39082611d47565b6007556002546107fd906001600160a01b03163383611d92565b60408051828152905133917f7084f5476618d8e60b11ef0d7d3f06914655adb8793e28ff7f018d4c76d505d5919081900360200190a250565b600e60209081526000928352604080842090915290825290205481565b600a6020526000908152604090205481565b60036020526000908152604090205481565b600954600160881b900460ff166108bf5760405162461bcd60e51b81526004018080602001828103825260308152602001806125176030913960400191505060405180910390fd5b600954600160881b900460ff1680156108e357506009546001600160401b03164210155b61091e5760405162461bcd60e51b815260040180806020018281038252602c815260200180612324602c913960400191505060405180910390fd5b610926610b07565b6001546060906001600160401b038111801561094157600080fd5b5060405190808252806020026020018201604052801561096b578160200160208202803683370190505b50905060005b600154811015610a675760006001828154811061098a57fe5b600091825260208083209091015433808452600e835260408085206001600160a01b0390931680865292845280852054918552600d8452808520838652909352918320549093508392916109de9190611d47565b336000908152600e602090815260408083206001600160a01b0387168452909152902054909150610a0f9082611de9565b336000818152600e602090815260408083206001600160a01b038881168552925290912092909255610a449185169083611d92565b80858581518110610a5157fe5b6020908102919091010152505050600101610971565b50604080516020808252835181830152835133937f28ee566bdecaf975c0979f4d09fecf91a9009ffe78523aef053a678134137b8b93869390928392830191808601910280838360005b83811015610ac9578181015183820152602001610ab1565b505050509050019250505060405180910390a250565b600954600160401b90046001600160401b031681565b60046020526000908152604090205481565b600954600160881b900460ff16610b4f5760405162461bcd60e51b81526004018080602001828103825260308152602001806125176030913960400191505060405180910390fd5b600954600160881b900460ff168015610b7357506009546001600160401b03164210155b610bae5760405162461bcd60e51b815260040180806020018281038252602c815260200180612324602c913960400191505060405180910390fd5b600954600090610bcf904290600160401b90046001600160401b0316611e43565b600954909150600090610bf5906001600160401b0380851691600160901b900416611d47565b905060005b600154811015610e3657600060018281548110610c1357fe5b6000918252602090912001546007546001600160a01b039091169150610ca6576001600160a01b038116600090815260056020526040902054610c7a90610c5b908590611e59565b6001600160a01b0383166000908152600a602052604090205490611de9565b6001600160a01b0382166000908152600a60209081526040808320939093556008905290812055610d2d565b6007546001600160a01b038216600090815260036020908152604080832054600590925290912054610d1392610cf4929091610cee9190610ce8908990611e59565b90611e59565b90611eb2565b6001600160a01b03831660009081526008602052604090205490611de9565b6001600160a01b0382166000908152600860205260409020555b6001600160a01b038116600090815260086020526040812054610d51576000610db2565b6001600160a01b038216600081815260036020908152604080832054338452600c835281842094845293825280832054600890925290912054610db29291610cee91610d9c91611d47565b336000908152600b602052604090205490611e59565b336000908152600d602090815260408083206001600160a01b0387168452909152902054909150610de39082611de9565b336000818152600d602090815260408083206001600160a01b0397909716808452968252808320949094556008815283822054928252600c81528382209582529490945292209190915550600101610bfa565b5050600980546001600160401b03909216600160901b0267ffffffffffffffff60901b19909216919091179055565b610e6d611ef4565b6000546001600160a01b03908116911614610ebd576040805162461bcd60e51b815260206004820181905260248201526000805160206125aa833981519152604482015290519081900360640190fd5b600080546040516001600160a01b03909116907f8be0079c531659141344cd1fd0a4f28419497f9722a3daafe3b4186f6b6457e0908390a3600080546001600160a01b0319169055565b600d60209081526000928352604080842090915290825290205481565b600c60209081526000928352604080842090915290825290205481565b60018181548110610f4e57fe5b6000918252602090912001546001600160a01b0316905081565b60056020526000908152604090205481565b6009546001600160401b031681565b6000546001600160a01b031690565b60086020526000908152604090205481565b600954600160881b900460ff16610ff25760405162461bcd60e51b81526004018080602001828103825260308152602001806125176030913960400191505060405180910390fd5b600954600160881b900460ff16801561101657506009546001600160401b03164210155b6110515760405162461bcd60e51b815260040180806020018281038252602c815260200180612324602c913960400191505060405180910390fd5b600954600160881b900460ff16801561107c5750600954600160401b90046001600160401b03164211155b6110b75760405162461bcd60e51b815260040180806020018281038252602e8152602001806126de602e913960400191505060405180910390fd5b600081116110f65760405162461bcd60e51b815260040180806020018281038252603781526020018061266b6037913960400191505060405180910390fd5b6110fe610b07565b336000908152600b60205260409020546111189082611de9565b336000908152600b60205260409020556007546111359082611de9565b600755600254611150906001600160a01b0316333084611ef8565b60408051828152905133917f9e71bc8eea02a63969f509818f2dafb9254532904319f9dbda79b67bd34a5f3d919081900360200190a250565b600b6020526000908152604090205481565b60075481565b6111a9611ef4565b6000546001600160a01b039081169116146111f9576040805162461bcd60e51b815260206004820181905260248201526000805160206125aa833981519152604482015290519081900360640190fd5b600954600160881b900460ff16156112425760405162461bcd60e51b81526004018080602001828103825260348152602001806124e36034913960400191505060405180910390fd5b42836001600160401b0316116112895760405162461bcd60e51b815260040180806020018281038252603b81526020018061270c603b913960400191505060405180910390fd5b826001600160401b0316826001600160401b0316116112d95760405162461bcd60e51b81526004018080602001828103825260368152602001806124876036913960400191505060405180910390fd5b8684146113175760405162461bcd60e51b81526004018080602001828103825260418152602001806123fa6041913960600191505060405180910390fd5b6001600160401b038383031660005b63ffffffff81168911156116475760008a8a8363ffffffff1681811061134857fe5b905060200201356001600160a01b03169050600088888463ffffffff1681811061136e57fe5b60200291909101359150506001600160a01b0382166113be5760405162461bcd60e51b815260040180806020018281038252603a8152602001806125ca603a913960400191505060405180910390fd5b600081116113fd5760405162461bcd60e51b815260040180806020018281038252602a815260200180612604602a913960400191505060405180910390fd5b8381101561143c5760405162461bcd60e51b815260040180806020018281038252604a81526020018061238a604a913960600191505060405180910390fd5b604080516370a0823160e01b81523060048201529051839183916001600160a01b038416916370a08231916024808301926020929190829003018186803b15801561148657600080fd5b505afa15801561149a573d6000803e3d6000fd5b505050506040513d60208110156114b057600080fd5b505110156114ef5760405162461bcd60e51b815260040180806020018281038252602b8152602001806127ba602b913960400191505060405180910390fd5b6000816001600160a01b031663313ce5676040518163ffffffff1660e01b815260040160206040518083038186803b15801561152a57600080fd5b505afa15801561153e573d6000803e3d6000fd5b505050506040513d602081101561155457600080fd5b505160ff169050801580159061156b575060128111155b6115a65760405162461bcd60e51b81526004018080602001828103825260428152602001806125686042913960600191505060405180910390fd5b600180548082019091557fb10e2d527612073b26eecdfd717e6a320cf44b4afac2b0732d9fcbe2b7fa0cf60180546001600160a01b0319166001600160a01b038481169190911790915584166000908152600360205260409020600a82900a90556116118387611eb2565b6001600160a01b039094166000908152600560209081526040808320969096556004905293909320919091555050600101611326565b506001600160a01b03871661168d5760405162461bcd60e51b815260040180806020018281038252603c8152602001806126a2603c913960400191505060405180910390fd5b600280546001600160a01b0319166001600160a01b03891690811790915560098054600160881b67ffffffffffffffff199091166001600160401b038881169182176fffffffffffffffff00000000000000001916600160401b9189169182021767ffffffffffffffff60901b1916600160901b83021760ff60801b1916600160801b8815159081029190911760ff60881b191693909317909355604080516020808201969096526060810192909252608082019390935260a081019190915260c080825281018b90527fe0447a394d11ec1fdc78a0ee3f2ce94c11fcfcf256a283544638f918f2df2800928c928c928c928c928c928c928c928c9291829182019060e08301908c908c0280828437600083820152601f01601f19169091018481038352888152602090810191508990890280828437600083820152604051601f909101601f19169092018290039c50909a5050505050505050505050a1505050505050505050565b600954600160901b90046001600160401b031681565b6060600180548060200260200160405190810160405280929190818152602001828054801561186457602002820191906000526020600020905b81546001600160a01b03168152600190910190602001808311611846575b5050505050905090565b600954600160801b900460ff1681565b600954600160881b900460ff166118c65760405162461bcd60e51b81526004018080602001828103825260308152602001806125176030913960400191505060405180910390fd5b600954600160881b900460ff1680156118ea57506009546001600160401b03164210155b6119255760405162461bcd60e51b815260040180806020018281038252602c815260200180612324602c913960400191505060405180910390fd5b61192d610b07565b6001546060816001600160401b038111801561194857600080fd5b50604051908082528060200260200182016040528015611972578160200160208202803683370190505b50905060005b828110156119fc5760006001828154811061198f57fe5b60009182526020808320909101546001600160a01b0316808352600a909152604082208054929055845190925081908590859081106119ca57fe5b6020026020010181815250506119f26119e1610f89565b6001600160a01b0384169083611d92565b5050600101611978565b507ff904fafa600a7e4e8039f3a5497d1b6016772e3060f87d3e40f911b315f00bd1816040518080602001828103825283818151815260200191508051906020019060200280838360005b83811015611a5f578181015183820152602001611a47565b505050509050019250505060405180910390a15050565b60066020526000908152604090205481565b600954600160881b900460ff16611ad05760405162461bcd60e51b81526004018080602001828103825260308152602001806125176030913960400191505060405180910390fd5b611ad8611ef4565b6000546001600160a01b03908116911614611b28576040805162461bcd60e51b815260206004820181905260248201526000805160206125aa833981519152604482015290519081900360640190fd5b6009546001600160401b03164210611b715760405162461bcd60e51b815260040180806020018281038252603d81526020018061262e603d913960400191505060405180910390fd5b60005b600154811015611bf757600060018281548110611b8d57fe5b60009182526020808320909101546001600160a01b03168083526004825260408084208054600385528286208690559085905560059093528320929092559091508190611bec611bdb610f89565b6001600160a01b0385169083611d92565b505050600101611b74565b50611c04600160006122e9565b600280546001600160a01b0319169055600980546001600160d01b03191690556040517f1afb0ae590df277bcb3a37f88612725bf1f7df4755792b1548a7efe77985ff7790600090a1565b611c57611ef4565b6000546001600160a01b03908116911614611ca7576040805162461bcd60e51b815260206004820181905260248201526000805160206125aa833981519152604482015290519081900360640190fd5b6001600160a01b038116611cec5760405162461bcd60e51b81526004018080602001828103825260268152602001806123d46026913960400191505060405180910390fd5b600080546040516001600160a01b03808516939216917f8be0079c531659141344cd1fd0a4f28419497f9722a3daafe3b4186f6b6457e091a3600080546001600160a01b0319166001600160a01b0392909216919091179055565b6000611d8983836040518060400160405280601e81526020017f536166654d6174683a207375627472616374696f6e206f766572666c6f770000815250611f58565b90505b92915050565b604080516001600160a01b038416602482015260448082018490528251808303909101815260649091019091526020810180516001600160e01b031663a9059cbb60e01b179052611de4908490611ff4565b505050565b600082820183811015611d89576040805162461bcd60e51b815260206004820152601b60248201527f536166654d6174683a206164646974696f6e206f766572666c6f770000000000604482015290519081900360640190fd5b6000818310611e525781611d89565b5090919050565b600082611e6857506000611d8c565b82820282848281611e7557fe5b0414611d895760405162461bcd60e51b81526004018080602001828103825260218152602001806125476021913960400191505060405180910390fd5b6000611d8983836040518060400160405280601a81526020017f536166654d6174683a206469766973696f6e206279207a65726f0000000000008152506120a5565b3390565b604080516001600160a01b0380861660248301528416604482015260648082018490528251808303909101815260849091019091526020810180516001600160e01b03166323b872dd60e01b179052611f52908590611ff4565b50505050565b60008184841115611fe75760405162461bcd60e51b81526004018080602001828103825283818151815260200191508051906020019080838360005b83811015611fac578181015183820152602001611f94565b50505050905090810190601f168015611fd95780820380516001836020036101000a031916815260200191505b509250505060405180910390fd5b50508183035b9392505050565b6060612049826040518060400160405280602081526020017f5361666545524332303a206c6f772d6c6576656c2063616c6c206661696c6564815250856001600160a01b031661210a9092919063ffffffff16565b805190915015611de45780806020019051602081101561206857600080fd5b5051611de45760405162461bcd60e51b815260040180806020018281038252602a815260200180612790602a913960400191505060405180910390fd5b600081836120f45760405162461bcd60e51b8152602060048201818152835160248401528351909283926044909101919085019080838360008315611fac578181015183820152602001611f94565b50600083858161210057fe5b0495945050505050565b60606121198484600085612121565b949350505050565b6060824710156121625760405162461bcd60e51b81526004018080602001828103825260268152602001806124bd6026913960400191505060405180910390fd5b61216b8561227d565b6121bc576040805162461bcd60e51b815260206004820152601d60248201527f416464726573733a2063616c6c20746f206e6f6e2d636f6e7472616374000000604482015290519081900360640190fd5b60006060866001600160a01b031685876040518082805190602001908083835b602083106121fb5780518252601f1990920191602091820191016121dc565b6001836020036101000a03801982511681845116808217855250505050505090500191505060006040518083038185875af1925050503d806000811461225d576040519150601f19603f3d011682016040523d82523d6000602084013e612262565b606091505b5091509150612272828286612283565b979650505050505050565b3b151590565b60608315612292575081611fed565b8251156122a25782518084602001fd5b60405162461bcd60e51b8152602060048201818152845160248401528451859391928392604401919085019080838360008315611fac578181015183820152602001611f94565b5080546000825590600052602060002090810190612307919061230a565b50565b5b8082111561231f576000815560010161230b565b509056fe45524332305374616b696e6752657761726473446973747269627574696f6e3a206e6f74207374617274656445524332305374616b696e6752657761726473446973747269627574696f6e3a20747269656420746f207769746864726177206e6f7468696e6745524332305374616b696e6752657761726473446973747269627574696f6e3a207365636f6e6473206475726174696f6e206c657373207468616e207265776172647320616d6f756e744f776e61626c653a206e6577206f776e657220697320746865207a65726f206164647265737345524332305374616b696e6752657761726473446973747269627574696f6e3a20696e636f6e73697374656e742072657761726420746f6b656e2f616d6f756e7445524332305374616b696e6752657761726473446973747269627574696f6e3a2077697468647261776e20616d6f756e742067726561746572207468616e2063757272656e74207374616b6545524332305374616b696e6752657761726473446973747269627574696f6e3a20696e76616c69642074696d65206475726174696f6e416464726573733a20696e73756666696369656e742062616c616e636520666f722063616c6c45524332305374616b696e6752657761726473446973747269627574696f6e3a20616c726561647920696e697469616c697a656445524332305374616b696e6752657761726473446973747269627574696f6e3a206e6f7420696e697469616c697a6564536166654d6174683a206d756c7469706c69636174696f6e206f766572666c6f7745524332305374616b696e6752657761726473446973747269627574696f6e3a20696e76616c696420646563696d616c7320666f722072657761726420746f6b656e4f776e61626c653a2063616c6c6572206973206e6f7420746865206f776e657245524332305374616b696e6752657761726473446973747269627574696f6e3a203020616464726573732061732072657761726420746f6b656e45524332305374616b696e6752657761726473446973747269627574696f6e3a206e6f2072657761726445524332305374616b696e6752657761726473446973747269627574696f6e3a20646973747269627574696f6e20616c7265616479207374617274656445524332305374616b696e6752657761726473446973747269627574696f6e3a20747269656420746f207374616b65206e6f7468696e6745524332305374616b696e6752657761726473446973747269627574696f6e3a20302061646472657373206173207374616b61626c6520746f6b656e45524332305374616b696e6752657761726473446973747269627574696f6e3a20616c726561647920656e64656445524332305374616b696e6752657761726473446973747269627574696f6e3a20696e76616c6964207374617274696e672074696d657374616d7045524332305374616b696e6752657761726473446973747269627574696f6e3a2066756e6473206c6f636b656420756e74696c2074686520646973747269627574696f6e20656e64735361666545524332303a204552433230206f7065726174696f6e20646964206e6f74207375636365656445524332305374616b696e6752657761726473446973747269627574696f6e3a206e6f2066756e64696e67a2646970667358221220e2ee095464ef942fa1af6f8f11ad43b1888addede3de6b4ffedbc45e2253dbcb64736f6c634300060c00334f776e61626c653a206e6577206f776e657220697320746865207a65726f2061646472657373537761707245524332305374616b696e6752657761726473446973747269627574696f6e466163746f72793a20302d616464726573732072657761726420746f6b656e732076616c696461746f72416464726573733a20696e73756666696369656e742062616c616e636520666f722063616c6c537761707245524332305374616b696e6752657761726473446973747269627574696f6e466163746f72793a20302d61646472657373207374616b61626c6520746f6b656e2076616c696461746f724f776e61626c653a2063616c6c6572206973206e6f7420746865206f776e65725361666545524332303a204552433230206f7065726174696f6e20646964206e6f742073756363656564a26469706673582212207ded458e98bf801aea96ee0232e2ec77089891d2b7b2d0ca5aca50338cd90f2564736f6c634300060c0033537761707245524332305374616b696e6752657761726473446973747269627574696f6e466163746f72793a20302d616464726573732072657761726420746f6b656e732076616c696461746f72537761707245524332305374616b696e6752657761726473446973747269627574696f6e466163746f72793a20302d61646472657373207374616b61626c6520746f6b656e2076616c696461746f72",
  "linkReferences": {},
  "deployedLinkReferences": {}
}