{
  "_format": "hh-sol-artifact-1",
  "contractName": "SwaprERC20StakingRewardsDistributionFactory",
  "sourceName": "contracts/SwaprERC20StakingRewardsDistributionFactory.sol",
  "abi": [
    {
      "inputs": [
        {
          "internalType": "address",
          "name": "_rewardTokensValidatorAddress",
          "type": "address"
        },
        {
          "internalType": "address",
          "name": "_stakableTokenValidatorAddress",
          "type": "address"
        }
      ],
      "stateMutability": "nonpayable",
      "type": "constructor"
    },
    {
      "anonymous": false,
      "inputs": [
        {
          "indexed": false,
          "internalType": "address",
          "name": "owner",
          "type": "address"
        },
        {
          "indexed": false,
          "internalType": "address",
          "name": "deployedAt",
          "type": "address"
        }
      ],
      "name": "DistributionCreated",
      "type": "event"
    },
    {
      "anonymous": false,
      "inputs": [
        {
          "indexed": true,
          "internalType": "address",
          "name": "previousOwner",
          "type": "address"
        },
        {
          "indexed": true,
          "internalType": "address",
          "name": "newOwner",
          "type": "address"
        }
      ],
      "name": "OwnershipTransferred",
      "type": "event"
    },
    {
      "inputs": [
        {
          "internalType": "address[]",
          "name": "_rewardTokensAddresses",
          "type": "address[]"
        },
        {
          "internalType": "address",
          "name": "_stakableTokenAddress",
          "type": "address"
        },
        {
          "internalType": "uint256[]",
          "name": "_rewardAmounts",
          "type": "uint256[]"
        },
        {
          "internalType": "uint64",
          "name": "_startingTimestamp",
          "type": "uint64"
        },
        {
          "internalType": "uint64",
          "name": "_endingTimestmp",
          "type": "uint64"
        },
        {
          "internalType": "bool",
          "name": "_locked",
          "type": "bool"
        },
        {
          "internalType": "uint256",
          "name": "_stakingCap",
          "type": "uint256"
        }
      ],
      "name": "createDistribution",
      "outputs": [],
      "stateMutability": "nonpayable",
      "type": "function"
    },
    {
      "inputs": [
        {
          "internalType": "uint256",
          "name": "",
          "type": "uint256"
        }
      ],
      "name": "distributions",
      "outputs": [
        {
          "internalType": "contract ERC20StakingRewardsDistribution",
          "name": "",
          "type": "address"
        }
      ],
      "stateMutability": "view",
      "type": "function"
    },
    {
      "inputs": [],
      "name": "getDistributionsAmount",
      "outputs": [
        {
          "internalType": "uint256",
          "name": "",
          "type": "uint256"
        }
      ],
      "stateMutability": "view",
      "type": "function"
    },
    {
      "inputs": [],
      "name": "owner",
      "outputs": [
        {
          "internalType": "address",
          "name": "",
          "type": "address"
        }
      ],
      "stateMutability": "view",
      "type": "function"
    },
    {
      "inputs": [],
      "name": "renounceOwnership",
      "outputs": [],
      "stateMutability": "nonpayable",
      "type": "function"
    },
    {
      "inputs": [],
      "name": "rewardTokensValidator",
      "outputs": [
        {
          "internalType": "contract IRewardTokensValidator",
          "name": "",
          "type": "address"
        }
      ],
      "stateMutability": "view",
      "type": "function"
    },
    {
      "inputs": [
        {
          "internalType": "address",
          "name": "_rewardTokensValidatorAddress",
          "type": "address"
        }
      ],
      "name": "setRewardTokensValidator",
      "outputs": [],
      "stateMutability": "nonpayable",
      "type": "function"
    },
    {
      "inputs": [
        {
          "internalType": "address",
          "name": "_stakableTokenValidatorAddress",
          "type": "address"
        }
      ],
      "name": "setStakableTokenValidator",
      "outputs": [],
      "stateMutability": "nonpayable",
      "type": "function"
    },
    {
      "inputs": [],
      "name": "stakableTokenValidator",
      "outputs": [
        {
          "internalType": "contract IStakableTokenValidator",
          "name": "",
          "type": "address"
        }
      ],
      "stateMutability": "view",
      "type": "function"
    },
    {
      "inputs": [
        {
          "internalType": "address",
          "name": "newOwner",
          "type": "address"
        }
      ],
      "name": "transferOwnership",
      "outputs": [],
      "stateMutability": "nonpayable",
      "type": "function"
    }
  ],
  "bytecode": "0x608060405234801561001057600080fd5b5060405161419c38038061419c8339818101604052604081101561003357600080fd5b508051602090910151600061004661014b565b600080546001600160a01b0319166001600160a01b0383169081178255604051929350917f8be0079c531659141344cd1fd0a4f28419497f9722a3daafe3b4186f6b6457e0908290a3506001600160a01b0382166100d55760405162461bcd60e51b815260040180806020018281038252604e8152602001806140ff604e913960600191505060405180910390fd5b6001600160a01b03811661011a5760405162461bcd60e51b815260040180806020018281038252604f81526020018061414d604f913960600191505060405180910390fd5b600280546001600160a01b039384166001600160a01b0319918216179091556003805492909316911617905561014f565b3390565b613fa18061015e6000396000f3fe608060405234801561001057600080fd5b506004361061009d5760003560e01c8063715018a611610066578063715018a6146102045780638da5cb5b1461020c5780639d684baa14610214578063d5eeaef71461023a578063f2fde38b146102545761009d565b8062083727146100a25780630fed647d146100ca5780632c8908ff146100ee5780634487d3df146101df57806344d15b23146101fc575b600080fd5b6100c8600480360360208110156100b857600080fd5b50356001600160a01b031661027a565b005b6100d2610339565b604080516001600160a01b039092168252519081900360200190f35b6100c8600480360360e081101561010457600080fd5b81019060208101813564010000000081111561011f57600080fd5b82018360208201111561013157600080fd5b8035906020019184602083028401116401000000008311171561015357600080fd5b919390926001600160a01b038335169260408101906020013564010000000081111561017e57600080fd5b82018360208201111561019057600080fd5b803590602001918460208302840111640100000000831117156101b257600080fd5b919350915067ffffffffffffffff8135811691602081013590911690604081013515159060600135610348565b6100d2600480360360208110156101f557600080fd5b503561045c565b6100d2610483565b6100c8610492565b6100d2610534565b6100c86004803603602081101561022a57600080fd5b50356001600160a01b0316610543565b610242610602565b60408051918252519081900360200190f35b6100c86004803603602081101561026a57600080fd5b50356001600160a01b0316610608565b610282610700565b6000546001600160a01b039081169116146102d2576040805162461bcd60e51b81526020600482018190526024820152600080516020613f22833981519152604482015290519081900360640190fd5b6001600160a01b0381166103175760405162461bcd60e51b815260040180806020018281038252604e815260200180613e5f604e913960600191505060405180910390fd5b600280546001600160a01b0319166001600160a01b0392909216919091179055565b6003546001600160a01b031681565b60025460405163191fc58d60e31b8152602060048201818152602483018c90526001600160a01b039093169263c8fe2c68928d928d929182916044909101908590850280828437600081840152601f19601f820116905080830192505050935050505060006040518083038186803b1580156103c357600080fd5b505afa1580156103d7573d6000803e3d6000fd5b505060035460408051639532b6ab60e01b81526001600160a01b038c811660048301529151919092169350639532b6ab92506024808301926000929190829003018186803b15801561042857600080fd5b505afa15801561043c573d6000803e3d6000fd5b50505050610451898989898989898989610704565b505050505050505050565b6001818154811061046957fe5b6000918252602090912001546001600160a01b0316905081565b6002546001600160a01b031681565b61049a610700565b6000546001600160a01b039081169116146104ea576040805162461bcd60e51b81526020600482018190526024820152600080516020613f22833981519152604482015290519081900360640190fd5b600080546040516001600160a01b03909116907f8be0079c531659141344cd1fd0a4f28419497f9722a3daafe3b4186f6b6457e0908390a3600080546001600160a01b0319169055565b6000546001600160a01b031690565b61054b610700565b6000546001600160a01b0390811691161461059b576040805162461bcd60e51b81526020600482018190526024820152600080516020613f22833981519152604482015290519081900360640190fd5b6001600160a01b0381166105e05760405162461bcd60e51b815260040180806020018281038252604f815260200180613ed3604f913960600191505060405180910390fd5b600380546001600160a01b0319166001600160a01b0392909216919091179055565b60015490565b610610610700565b6000546001600160a01b03908116911614610660576040805162461bcd60e51b81526020600482018190526024820152600080516020613f22833981519152604482015290519081900360640190fd5b6001600160a01b0381166106a55760405162461bcd60e51b8152600401808060200182810382526026815260200180613e396026913960400191505060405180910390fd5b600080546040516001600160a01b03808516939216917f8be0079c531659141344cd1fd0a4f28419497f9722a3daafe3b4186f6b6457e091a3600080546001600160a01b0319166001600160a01b0392909216919091179055565b3390565b600060405161071290610cc3565b604051809103906000f08015801561072e573d6000803e3d6000fd5b50905060005b8981101561079757600088888381811061074a57fe5b90506020020135905061078e3384838f8f8781811061076557fe5b905060200201356001600160a01b03166001600160a01b031661098e909392919063ffffffff16565b50600101610734565b50806001600160a01b03166323a26e368b8b8b8b8b8b8b8b8b6040518a63ffffffff1660e01b81526004018080602001896001600160a01b03168152602001806020018767ffffffffffffffff1681526020018667ffffffffffffffff168152602001851515815260200184815260200183810383528c8c82818152602001925060200280828437600083820152601f01601f19169091018481038352898152602090810191508a908a0280828437600081840152601f19601f8201169050808301925050509b505050505050505050505050600060405180830381600087803b15801561088457600080fd5b505af1158015610898573d6000803e3d6000fd5b50506040805163f2fde38b60e01b815233600482015290516001600160a01b038516935063f2fde38b9250602480830192600092919082900301818387803b1580156108e357600080fd5b505af11580156108f7573d6000803e3d6000fd5b50506001805480820182556000919091527fb10e2d527612073b26eecdfd717e6a320cf44b4afac2b0732d9fcbe2b7fa0cf60180546001600160a01b0319166001600160a01b03851690811790915560408051338152602081019290925280517fc017437e795c074edadc242e8f0b868fb614ed8d2923b9a58cbc52799e8b9b27945091829003019150a150505050505050505050565b604080516001600160a01b0380861660248301528416604482015260648082018490528251808303909101815260849091019091526020810180516001600160e01b03166323b872dd60e01b1790526109e89085906109ee565b50505050565b6060610a43826040518060400160405280602081526020017f5361666545524332303a206c6f772d6c6576656c2063616c6c206661696c6564815250856001600160a01b0316610aa49092919063ffffffff16565b805190915015610a9f57808060200190516020811015610a6257600080fd5b5051610a9f5760405162461bcd60e51b815260040180806020018281038252602a815260200180613f42602a913960400191505060405180910390fd5b505050565b6060610ab38484600085610abd565b90505b9392505050565b606082471015610afe5760405162461bcd60e51b8152600401808060200182810382526026815260200180613ead6026913960400191505060405180910390fd5b610b0785610c19565b610b58576040805162461bcd60e51b815260206004820152601d60248201527f416464726573733a2063616c6c20746f206e6f6e2d636f6e7472616374000000604482015290519081900360640190fd5b60006060866001600160a01b031685876040518082805190602001908083835b60208310610b975780518252601f199092019160209182019101610b78565b6001836020036101000a03801982511681845116808217855250505050505090500191505060006040518083038185875af1925050503d8060008114610bf9576040519150601f19603f3d011682016040523d82523d6000602084013e610bfe565b606091505b5091509150610c0e828286610c1f565b979650505050505050565b3b151590565b60608315610c2e575081610ab6565b825115610c3e5782518084602001fd5b8160405162461bcd60e51b81526004018080602001828103825283818151815260200191508051906020019080838360005b83811015610c88578181015183820152602001610c70565b50505050905090810190601f168015610cb55780820380516001836020036101000a031916815260200191505b509250505060405180910390fd5b61316880610cd18339019056fe608060405234801561001057600080fd5b50600061001b61006a565b600080546001600160a01b0319166001600160a01b0383169081178255604051929350917f8be0079c531659141344cd1fd0a4f28419497f9722a3daafe3b4186f6b6457e0908290a35061006e565b3390565b6130ea806200007e6000396000f3fe608060405234801561001057600080fd5b50600436106102065760003560e01c80638c574b481161011a578063b9e35db0116100ad578063dc01f60d1161007c578063dc01f60d146106d2578063e644067d146106f8578063e66d85be14610700578063ea8a1af014610726578063f2fde38b1461072e57610206565b8063b9e35db014610644578063c10de300146106ba578063c4f59f9b146106c2578063cf309012146106ca57610206565b8063a694fc3a116100e9578063a694fc3a146105d3578063ab08d4fc146105f0578063b41fa97914610616578063b42652e91461061e57610206565b80638c574b48146104d15780638da5cb5b1461057f57806398f8123014610587578063a110b93f146105ad57610206565b80635fa350231161019d578063728e4a671161016c578063728e4a671461042a57806375b8dbf81461045857806377329f35146104865780637bb7bed1146104ac57806388786272146104c957610206565b80635fa35023146103ec578063645a8a56146103f45780636715dcb81461041a578063715018a61461042257610206565b806334380a61116101d957806334380a611461035a5780633b34ee501461039a57806344c370d3146103c05780635e5294b7146103c857610206565b8063158ef93e1461020b5780631c96c3fb1461022757806323a26e361461024b5780632e1a7d4d1461033d575b600080fd5b610213610754565b604080519115158252519081900360200190f35b61022f61075d565b604080516001600160a01b039092168252519081900360200190f35b61033b600480360360e081101561026157600080fd5b81019060208101813564010000000081111561027c57600080fd5b82018360208201111561028e57600080fd5b803590602001918460208302840111640100000000831117156102b057600080fd5b919390926001600160a01b03833516926040810190602001356401000000008111156102db57600080fd5b8201836020820111156102ed57600080fd5b8035906020019184602083028401116401000000008311171561030f57600080fd5b91935091506001600160401b03813581169160208101359091169060408101351515906060013561076c565b005b61033b6004803603602081101561035357600080fd5b5035610ca9565b6103886004803603604081101561037057600080fd5b506001600160a01b0381358116916020013516610ec3565b60408051918252519081900360200190f35b610388600480360360208110156103b057600080fd5b50356001600160a01b0316610ee0565b610388610ef2565b6103d0610ef8565b604080516001600160401b039092168252519081900360200190f35b6103d0610f0e565b6103886004803603602081101561040a57600080fd5b50356001600160a01b0316610f24565b61033b610f36565b61033b6112a6565b6103886004803603604081101561044057600080fd5b506001600160a01b0381358116916020013516611348565b6103886004803603604081101561046e57600080fd5b506001600160a01b0381358116916020013516611365565b61033b6004803603602081101561049c57600080fd5b50356001600160a01b0316611382565b61022f600480360360208110156104c257600080fd5b5035611584565b6103d06115ab565b61033b600480360360408110156104e757600080fd5b81019060208101813564010000000081111561050257600080fd5b82018360208201111561051457600080fd5b8035906020019184602083028401116401000000008311171561053657600080fd5b919080806020026020016040519081016040528093929190818152602001838360200280828437600092019190915250929550505090356001600160a01b031691506115ba9050565b61022f61185a565b6103886004803603602081101561059d57600080fd5b50356001600160a01b0316611869565b610388600480360360208110156105c357600080fd5b50356001600160a01b031661187b565b61033b600480360360208110156105e957600080fd5b503561188d565b6103886004803603602081101561060657600080fd5b50356001600160a01b0316611aac565b610388611abe565b61033b6004803603602081101561063457600080fd5b50356001600160a01b0316611ac4565b61066a6004803603602081101561065a57600080fd5b50356001600160a01b0316611b8a565b60408051602080825283518183015283519192839290830191858101910280838360005b838110156106a657818101518382015260200161068e565b505050509050019250505060405180910390f35b6103d0611c59565b61066a611c6d565b610213611ccf565b61066a600480360360208110156106e857600080fd5b50356001600160a01b0316611cdf565b61033b611f6b565b6103886004803603602081101561071657600080fd5b50356001600160a01b0316612230565b61033b612242565b61033b6004803603602081101561074457600080fd5b50356001600160a01b031661247c565b60095460ff1681565b6002546001600160a01b031681565b610774612574565b6000546001600160a01b039081169116146107c4576040805162461bcd60e51b81526020600482018190526024820152600080516020612e4a833981519152604482015290519081900360640190fd5b60095460ff16156108065760405162461bcd60e51b8152600401808060200182810382526034815260200180612dc56034913960400191505060405180910390fd5b42846001600160401b03161161084d5760405162461bcd60e51b815260040180806020018281038252603b815260200180612fdc603b913960400191505060405180910390fd5b836001600160401b0316836001600160401b03161161089d5760405162461bcd60e51b8152600401808060200182810382526036815260200180612d696036913960400191505060405180910390fd5b8785146108db5760405162461bcd60e51b8152600401808060200182810382526041815260200180612cdc6041913960600191505060405180910390fd5b6007805467ffffffffffffffff60801b1916600160801b8686036001600160401b03160217905560005b63ffffffff8116891115610aeb5760008a8a8363ffffffff1681811061092757fe5b905060200201356001600160a01b03169050600088888463ffffffff1681811061094d57fe5b60200291909101359150506001600160a01b03821661099d5760405162461bcd60e51b815260040180806020018281038252603a815260200180612e6a603a913960400191505060405180910390fd5b600081116109dc5760405162461bcd60e51b815260040180806020018281038252602a815260200180612ea4602a913960400191505060405180910390fd5b604080516370a0823160e01b81523060048201529051839183916001600160a01b038416916370a08231916024808301926020929190829003018186803b158015610a2657600080fd5b505afa158015610a3a573d6000803e3d6000fd5b505050506040513d6020811015610a5057600080fd5b50511015610a8f5760405162461bcd60e51b815260040180806020018281038252602b81526020018061308a602b913960400191505060405180910390fd5b6001805480820182557fb10e2d527612073b26eecdfd717e6a320cf44b4afac2b0732d9fcbe2b7fa0cf60180546001600160a01b0319166001600160a01b03938416179055921660009081526003602052604090205501610905565b506001600160a01b038716610b315760405162461bcd60e51b815260040180806020018281038252603c815260200180612f72603c913960400191505060405180910390fd5b600280546001600160a01b0319166001600160a01b038916908117909155600780546009805467ffffffffffffffff199092166001600160401b038981169182176fffffffffffffffff00000000000000001916600160401b918a169182021760ff60c01b1916600160c01b89151590810291909117909555600887905568ffffffffffffffff00199093166101008083029190911760ff1916600117909255604080516020808201979097526060810192909252608082019390935260a081019390935260c0830185905260e080845283018c90527f2c1fa4f0e3f1c67636ee0b3665bf3a04407a2c1332d4e3e99f941ee2b0b9daf4938d938d938d938d938d938d938d938d938d9392839290830191908301908d908d0280828437600083820152601f01601f19169091018481038352898152602090810191508a908a0280828437600083820152604051601f909101601f19169092018290039d50909b505050505050505050505050a1505050505050505050565b60095460ff16610cea5760405162461bcd60e51b8152600401808060200182810382526030815260200180612df96030913960400191505060405180910390fd5b60095460ff168015610d0757506007546001600160401b03164210155b610d425760405162461bcd60e51b815260040180806020018281038252602c815260200180612c12602c913960400191505060405180910390fd5b60008111610d815760405162461bcd60e51b815260040180806020018281038252603a815260200180612c3e603a913960400191505060405180910390fd5b600754600160c01b900460ff1615610de357600754600160401b90046001600160401b03164211610de35760405162461bcd60e51b81526004018080602001828103825260498152602001806130176049913960600191505060405180910390fd5b610deb610f36565b336000908152600c6020526040902054811115610e395760405162461bcd60e51b815260040180806020018281038252604c815260200180612d1d604c913960600191505060405180910390fd5b336000908152600c6020526040902054610e539082612578565b336000908152600c6020526040902055600554610e709082612578565b600555600254610e8a906001600160a01b031633836125c3565b60408051828152905133917f7084f5476618d8e60b11ef0d7d3f06914655adb8793e28ff7f018d4c76d505d5919081900360200190a250565b600f60209081526000928352604080842090915290825290205481565b600a6020526000908152604090205481565b60085481565b600754600160401b90046001600160401b031681565b600754600160801b90046001600160401b031681565b60036020526000908152604090205481565b60095460ff16610f775760405162461bcd60e51b8152600401808060200182810382526030815260200180612df96030913960400191505060405180910390fd5b60095460ff168015610f9457506007546001600160401b03164210155b610fcf5760405162461bcd60e51b815260040180806020018281038252602c815260200180612c12602c913960400191505060405180910390fd5b600754600090610ff0904290600160401b90046001600160401b031661261a565b600954909150600090611014906001600160401b0380851691610100900416612578565b905060005b60015481101561127b5760006001828154811061103257fe5b6000918252602090912001546005546001600160a01b0390911691506110e4576007546001600160a01b0382166000908152600360205260409020546110b89161109991600160801b9091046001600160401b031690611093908790612630565b90612689565b6001600160a01b0383166000908152600a6020526040902054906126cb565b6001600160a01b0382166000908152600a60209081526040808320939093556006905290812055611178565b60075460055461115e9161113f9161110b91600160801b90046001600160401b0316612630565b6001600160a01b03841660009081526003602052604090205461109390600160701b90611139908990612630565b90612630565b6001600160a01b038316600090815260066020526040902054906126cb565b6001600160a01b0382166000908152600660205260409020555b6001600160a01b03811660009081526006602052604081205461119c5760006111f7565b336000908152600d602090815260408083206001600160a01b03861684528252808320546006909252909120546111f791600160701b91611093916111e19190612578565b336000908152600c602052604090205490612630565b336000908152600e602090815260408083206001600160a01b038716845290915290205490915061122890826126cb565b336000818152600e602090815260408083206001600160a01b0397909716808452968252808320949094556006815283822054928252600d81528382209582529490945292209190915550600101611019565b5050600980546001600160401b039092166101000268ffffffffffffffff0019909216919091179055565b6112ae612574565b6000546001600160a01b039081169116146112fe576040805162461bcd60e51b81526020600482018190526024820152600080516020612e4a833981519152604482015290519081900360640190fd5b600080546040516001600160a01b03909116907f8be0079c531659141344cd1fd0a4f28419497f9722a3daafe3b4186f6b6457e0908390a3600080546001600160a01b0319169055565b600e60209081526000928352604080842090915290825290205481565b600d60209081526000928352604080842090915290825290205481565b60095460ff166113c35760405162461bcd60e51b8152600401808060200182810382526030815260200180612df96030913960400191505060405180910390fd5b60095460ff1680156113e057506007546001600160401b03164210155b61141b5760405162461bcd60e51b815260040180806020018281038252602c815260200180612c12602c913960400191505060405180910390fd5b611423610f36565b6001546060906001600160401b038111801561143e57600080fd5b50604051908082528060200260200182016040528015611468578160200160208202803683370190505b50905060005b60015481101561150b5760006001828154811061148757fe5b600091825260208083209091015433808452600f835260408085206001600160a01b0390931680865292845280852054918552600e8452808520838652909352918320549093508392916114db9190612578565b90506114e8838288612725565b808585815181106114f557fe5b602090810291909101015250505060010161146e565b50604080516020808252835181830152835133937f28ee566bdecaf975c0979f4d09fecf91a9009ffe78523aef053a678134137b8b93869390928392830191808601910280838360005b8381101561156d578181015183820152602001611555565b505050509050019250505060405180910390a25050565b6001818154811061159157fe5b6000918252602090912001546001600160a01b0316905081565b6007546001600160401b031681565b60095460ff166115fb5760405162461bcd60e51b8152600401808060200182810382526030815260200180612df96030913960400191505060405180910390fd5b60095460ff16801561161857506007546001600160401b03164210155b6116535760405162461bcd60e51b815260040180806020018281038252602c815260200180612c12602c913960400191505060405180910390fd5b6001548251146116945760405162461bcd60e51b815260040180806020018281038252603d815260200180612bd5603d913960400191505060405180910390fd5b61169c610f36565b6001546060906001600160401b03811180156116b757600080fd5b506040519080825280602002602001820160405280156116e1578160200160208202803683370190505b50905060005b6001548110156117e05760006001828154811061170057fe5b600091825260208083209091015433808452600f835260408085206001600160a01b0390931680865292845280852054918552600e8452808520838652909352918320549093508392916117549190612578565b9050600087858151811061176457fe5b60200260200101519050808210156117ad5760405162461bcd60e51b815260040180806020018281038252603e815260200180612c78603e913960400191505060405180910390fd5b6117b8848289612725565b808686815181106117c557fe5b60209081029190910101525050600190920191506116e79050565b50604080516020808252835181830152835133937f28ee566bdecaf975c0979f4d09fecf91a9009ffe78523aef053a678134137b8b93869390928392830191808601910280838360005b8381101561184257818101518382015260200161182a565b505050509050019250505060405180910390a2505050565b6000546001600160a01b031690565b60066020526000908152604090205481565b600b6020526000908152604090205481565b60095460ff166118ce5760405162461bcd60e51b8152600401808060200182810382526030815260200180612df96030913960400191505060405180910390fd5b60095460ff1680156118eb57506007546001600160401b03164210155b6119265760405162461bcd60e51b815260040180806020018281038252602c815260200180612c12602c913960400191505060405180910390fd5b60095460ff16801561194a5750600754600160401b90046001600160401b03164211155b6119855760405162461bcd60e51b815260040180806020018281038252602e815260200180612fae602e913960400191505060405180910390fd5b600081116119c45760405162461bcd60e51b8152600401808060200182810382526037815260200180612f0b6037913960400191505060405180910390fd5b60085415611a19576008546005546119dc90836126cb565b1115611a195760405162461bcd60e51b8152600401808060200182810382526030815260200180612f426030913960400191505060405180910390fd5b611a21610f36565b336000908152600c6020526040902054611a3b90826126cb565b336000908152600c6020526040902055600554611a5890826126cb565b600555600254611a73906001600160a01b03163330846127b1565b60408051828152905133917f9e71bc8eea02a63969f509818f2dafb9254532904319f9dbda79b67bd34a5f3d919081900360200190a250565b600c6020526000908152604090205481565b60055481565b60095460ff16611b055760405162461bcd60e51b8152600401808060200182810382526030815260200180612df96030913960400191505060405180910390fd5b60095460ff168015611b2257506007546001600160401b03164210155b611b5d5760405162461bcd60e51b815260040180806020018281038252602c815260200180612c12602c913960400191505060405180910390fd5b611b65610f36565b611b6e81611382565b336000908152600c6020526040902054611b8790610ca9565b50565b60015460609081906001600160401b0381118015611ba757600080fd5b50604051908082528060200260200182016040528015611bd1578160200160208202803683370190505b50905060005b600154811015611c50576001600160a01b0384166000908152600f602052604081206001805491929184908110611c0a57fe5b60009182526020808320909101546001600160a01b031683528201929092526040019020548251839083908110611c3d57fe5b6020908102919091010152600101611bd7565b5090505b919050565b60095461010090046001600160401b031681565b60606001805480602002602001604051908101604052809291908181526020018280548015611cc557602002820191906000526020600020905b81546001600160a01b03168152600190910190602001808311611ca7575b5050505050905090565b600754600160c01b900460ff1681565b60015460609081906001600160401b0381118015611cfc57600080fd5b50604051908082528060200260200182016040528015611d26578160200160208202803683370190505b5060095490915060ff161580611d4657506007546001600160401b031642105b15611d815760005b600154811015611d79576000828281518110611d6657fe5b6020908102919091010152600101611d4e565b509050611c54565b600754600090611da2904290600160401b90046001600160401b031661261a565b600954909150600090611dc6906001600160401b0380851691610100900416612578565b905060005b600154811015611f6157600060018281548110611de457fe5b60009182526020808320909101546001600160a01b0316808352600690915260409091205460055491925090611e1c57506000611e7b565b600754600554611e7891611e7191611e4391600160801b90046001600160401b0316612630565b6001600160a01b03851660009081526003602052604090205461109390600160701b90611139908a90612630565b82906126cb565b90505b6000808211611e8b576000611ee9565b6001600160a01b03808a166000908152600d6020908152604080832093871683529290522054611ee990600160701b9061109390611eca908690612578565b6001600160a01b038d166000908152600c602052604090205490612630565b6001600160a01b03808b166000818152600f6020908152604080832094891680845294825280832054938352600e82528083209483529390529190912054919250611f3f91611f399084906126cb565b90612578565b878581518110611f4b57fe5b6020908102919091010152505050600101611dcb565b5091949350505050565b60095460ff16611fac5760405162461bcd60e51b8152600401808060200182810382526030815260200180612df96030913960400191505060405180910390fd5b60095460ff168015611fc957506007546001600160401b03164210155b6120045760405162461bcd60e51b815260040180806020018281038252602c815260200180612c12602c913960400191505060405180910390fd5b61200c610f36565b6001546060816001600160401b038111801561202757600080fd5b50604051908082528060200260200182016040528015612051578160200160208202803683370190505b50905060005b828110156121b65760006001828154811061206e57fe5b60009182526020808320909101546001600160a01b0316808352600a8252604080842054600b9093529092205491925082916120a9916126cb565b6001600160a01b0382166000908152600b60209081526040808320849055600390915281205490916120db9190612578565b6001600160a01b038084166000908152600a6020908152604080832083905580516370a0823160e01b81523060048201529051949550919361216f938693908916926370a0823192602480840193829003018186803b15801561213d57600080fd5b505afa158015612151573d6000803e3d6000fd5b505050506040513d602081101561216757600080fd5b505190612578565b90508086868151811061217e57fe5b6020026020010181815250506121a661219561185a565b6001600160a01b03861690836125c3565b5050600190920191506120579050565b507ff904fafa600a7e4e8039f3a5497d1b6016772e3060f87d3e40f911b315f00bd1816040518080602001828103825283818151815260200191508051906020019060200280838360005b83811015612219578181015183820152602001612201565b505050509050019250505060405180910390a15050565b60046020526000908152604090205481565b60095460ff166122835760405162461bcd60e51b8152600401808060200182810382526030815260200180612df96030913960400191505060405180910390fd5b61228b612574565b6000546001600160a01b039081169116146122db576040805162461bcd60e51b81526020600482018190526024820152600080516020612e4a833981519152604482015290519081900360640190fd5b6007546001600160401b031642106123245760405162461bcd60e51b815260040180806020018281038252603d815260200180612ece603d913960400191505060405180910390fd5b60005b6001548110156124005760006001828154811061234057fe5b60009182526020808320909101546001600160a01b03168083526003909152604082209190915590506123f761237461185a565b604080516370a0823160e01b815230600482015290516001600160a01b038516916370a08231916024808301926020929190829003018186803b1580156123ba57600080fd5b505afa1580156123ce573d6000803e3d6000fd5b505050506040513d60208110156123e457600080fd5b50516001600160a01b03841691906125c3565b50600101612327565b5061240d60016000612ba2565b600280546001600160a01b0319169055600780546009805468ffffffffffffffffff1916905578ff0000000000000000ffffffffffffffffffffffffffffffff191690556040517f1afb0ae590df277bcb3a37f88612725bf1f7df4755792b1548a7efe77985ff7790600090a1565b612484612574565b6000546001600160a01b039081169116146124d4576040805162461bcd60e51b81526020600482018190526024820152600080516020612e4a833981519152604482015290519081900360640190fd5b6001600160a01b0381166125195760405162461bcd60e51b8152600401808060200182810382526026815260200180612cb66026913960400191505060405180910390fd5b600080546040516001600160a01b03808516939216917f8be0079c531659141344cd1fd0a4f28419497f9722a3daafe3b4186f6b6457e091a3600080546001600160a01b0319166001600160a01b0392909216919091179055565b3390565b60006125ba83836040518060400160405280601e81526020017f536166654d6174683a207375627472616374696f6e206f766572666c6f770000815250612811565b90505b92915050565b604080516001600160a01b038416602482015260448082018490528251808303909101815260649091019091526020810180516001600160e01b031663a9059cbb60e01b1790526126159084906128ad565b505050565b600081831061262957816125ba565b5090919050565b60008261263f575060006125bd565b8282028284828161264c57fe5b04146125ba5760405162461bcd60e51b8152600401808060200182810382526021815260200180612e296021913960400191505060405180910390fd5b60006125ba83836040518060400160405280601a81526020017f536166654d6174683a206469766973696f6e206279207a65726f00000000000081525061295e565b6000828201838110156125ba576040805162461bcd60e51b815260206004820152601b60248201527f536166654d6174683a206164646974696f6e206f766572666c6f770000000000604482015290519081900360640190fd5b336000908152600f602090815260408083206001600160a01b038716845290915290205461275390836126cb565b336000908152600f602090815260408083206001600160a01b0388168452825280832093909355600b9052205461278a90836126cb565b6001600160a01b0384166000818152600b60205260409020919091556126159082846125c3565b604080516001600160a01b0380861660248301528416604482015260648082018490528251808303909101815260849091019091526020810180516001600160e01b03166323b872dd60e01b17905261280b9085906128ad565b50505050565b600081848411156128a05760405162461bcd60e51b81526004018080602001828103825283818151815260200191508051906020019080838360005b8381101561286557818101518382015260200161284d565b50505050905090810190601f1680156128925780820380516001836020036101000a031916815260200191505b509250505060405180910390fd5b50508183035b9392505050565b6060612902826040518060400160405280602081526020017f5361666545524332303a206c6f772d6c6576656c2063616c6c206661696c6564815250856001600160a01b03166129c39092919063ffffffff16565b8051909150156126155780806020019051602081101561292157600080fd5b50516126155760405162461bcd60e51b815260040180806020018281038252602a815260200180613060602a913960400191505060405180910390fd5b600081836129ad5760405162461bcd60e51b815260206004820181815283516024840152835190928392604490910191908501908083836000831561286557818101518382015260200161284d565b5060008385816129b957fe5b0495945050505050565b60606129d284846000856129da565b949350505050565b606082471015612a1b5760405162461bcd60e51b8152600401808060200182810382526026815260200180612d9f6026913960400191505060405180910390fd5b612a2485612b36565b612a75576040805162461bcd60e51b815260206004820152601d60248201527f416464726573733a2063616c6c20746f206e6f6e2d636f6e7472616374000000604482015290519081900360640190fd5b60006060866001600160a01b031685876040518082805190602001908083835b60208310612ab45780518252601f199092019160209182019101612a95565b6001836020036101000a03801982511681845116808217855250505050505090500191505060006040518083038185875af1925050503d8060008114612b16576040519150601f19603f3d011682016040523d82523d6000602084013e612b1b565b606091505b5091509150612b2b828286612b3c565b979650505050505050565b3b151590565b60608315612b4b5750816128a6565b825115612b5b5782518084602001fd5b60405162461bcd60e51b815260206004820181815284516024840152845185939192839260440191908501908083836000831561286557818101518382015260200161284d565b5080546000825590600052602060002090810190611b8791905b80821115612bd05760008155600101612bbc565b509056fe45524332305374616b696e6752657761726473446973747269627574696f6e3a20696e636f6e73697374656e7420636c61696d656420616d6f756e747345524332305374616b696e6752657761726473446973747269627574696f6e3a206e6f74207374617274656445524332305374616b696e6752657761726473446973747269627574696f6e3a20747269656420746f207769746864726177206e6f7468696e6745524332305374616b696e6752657761726473446973747269627574696f6e3a20696e73756666696369656e7420636c61696d61626c6520616d6f756e744f776e61626c653a206e6577206f776e657220697320746865207a65726f206164647265737345524332305374616b696e6752657761726473446973747269627574696f6e3a20696e636f6e73697374656e742072657761726420746f6b656e2f616d6f756e7445524332305374616b696e6752657761726473446973747269627574696f6e3a2077697468647261776e20616d6f756e742067726561746572207468616e2063757272656e74207374616b6545524332305374616b696e6752657761726473446973747269627574696f6e3a20696e76616c69642074696d65206475726174696f6e416464726573733a20696e73756666696369656e742062616c616e636520666f722063616c6c45524332305374616b696e6752657761726473446973747269627574696f6e3a20616c726561647920696e697469616c697a656445524332305374616b696e6752657761726473446973747269627574696f6e3a206e6f7420696e697469616c697a6564536166654d6174683a206d756c7469706c69636174696f6e206f766572666c6f774f776e61626c653a2063616c6c6572206973206e6f7420746865206f776e657245524332305374616b696e6752657761726473446973747269627574696f6e3a203020616464726573732061732072657761726420746f6b656e45524332305374616b696e6752657761726473446973747269627574696f6e3a206e6f2072657761726445524332305374616b696e6752657761726473446973747269627574696f6e3a20646973747269627574696f6e20616c7265616479207374617274656445524332305374616b696e6752657761726473446973747269627574696f6e3a20747269656420746f207374616b65206e6f7468696e6745524332305374616b696e6752657761726473446973747269627574696f6e3a207374616b696e67206361702068697445524332305374616b696e6752657761726473446973747269627574696f6e3a20302061646472657373206173207374616b61626c6520746f6b656e45524332305374616b696e6752657761726473446973747269627574696f6e3a20616c726561647920656e64656445524332305374616b696e6752657761726473446973747269627574696f6e3a20696e76616c6964207374617274696e672074696d657374616d7045524332305374616b696e6752657761726473446973747269627574696f6e3a2066756e6473206c6f636b656420756e74696c2074686520646973747269627574696f6e20656e64735361666545524332303a204552433230206f7065726174696f6e20646964206e6f74207375636365656445524332305374616b696e6752657761726473446973747269627574696f6e3a206e6f2066756e64696e67a26469706673582212202a663ff37bfc296942fde1d6175d3dfaf65761a596c0be2f37a9cab2bd3adca364736f6c634300060c00334f776e61626c653a206e6577206f776e657220697320746865207a65726f2061646472657373537761707245524332305374616b696e6752657761726473446973747269627574696f6e466163746f72793a20302d616464726573732072657761726420746f6b656e732076616c696461746f72416464726573733a20696e73756666696369656e742062616c616e636520666f722063616c6c537761707245524332305374616b696e6752657761726473446973747269627574696f6e466163746f72793a20302d61646472657373207374616b61626c6520746f6b656e2076616c696461746f724f776e61626c653a2063616c6c6572206973206e6f7420746865206f776e65725361666545524332303a204552433230206f7065726174696f6e20646964206e6f742073756363656564a26469706673582212204ed6816f3bd0f8da05f8da3b224dc3016075abb9ccb7b1d97f2c7afe1f6ba8f264736f6c634300060c0033537761707245524332305374616b696e6752657761726473446973747269627574696f6e466163746f72793a20302d616464726573732072657761726420746f6b656e732076616c696461746f72537761707245524332305374616b696e6752657761726473446973747269627574696f6e466163746f72793a20302d61646472657373207374616b61626c6520746f6b656e2076616c696461746f72",
  "linkReferences": {},
  "deployedLinkReferences": {}
}