{
  "_format": "hh-sol-artifact-1",
  "contractName": "SwaprERC20StakingRewardsDistributionFactory",
  "sourceName": "contracts/SwaprERC20StakingRewardsDistributionFactory.sol",
  "abi": [
    {
      "inputs": [
        {
          "internalType": "address",
          "name": "_rewardTokensValidatorAddress",
          "type": "address"
        },
        {
          "internalType": "address",
          "name": "_stakableTokenValidatorAddress",
          "type": "address"
        }
      ],
      "stateMutability": "nonpayable",
      "type": "constructor"
    },
    {
      "anonymous": false,
      "inputs": [
        {
          "indexed": false,
          "internalType": "address",
          "name": "owner",
          "type": "address"
        },
        {
          "indexed": false,
          "internalType": "address",
          "name": "deployedAt",
          "type": "address"
        }
      ],
      "name": "DistributionCreated",
      "type": "event"
    },
    {
      "anonymous": false,
      "inputs": [
        {
          "indexed": true,
          "internalType": "address",
          "name": "previousOwner",
          "type": "address"
        },
        {
          "indexed": true,
          "internalType": "address",
          "name": "newOwner",
          "type": "address"
        }
      ],
      "name": "OwnershipTransferred",
      "type": "event"
    },
    {
      "inputs": [
        {
          "internalType": "address[]",
          "name": "_rewardTokensAddresses",
          "type": "address[]"
        },
        {
          "internalType": "address",
          "name": "_stakableTokenAddress",
          "type": "address"
        },
        {
          "internalType": "uint256[]",
          "name": "_rewardAmounts",
          "type": "uint256[]"
        },
        {
          "internalType": "uint64",
          "name": "_startingTimestamp",
          "type": "uint64"
        },
        {
          "internalType": "uint64",
          "name": "_endingTimestmp",
          "type": "uint64"
        },
        {
          "internalType": "bool",
          "name": "_locked",
          "type": "bool"
        }
      ],
      "name": "createDistribution",
      "outputs": [],
      "stateMutability": "nonpayable",
      "type": "function"
    },
    {
      "inputs": [
        {
          "internalType": "uint256",
          "name": "",
          "type": "uint256"
        }
      ],
      "name": "distributions",
      "outputs": [
        {
          "internalType": "contract ERC20StakingRewardsDistribution",
          "name": "",
          "type": "address"
        }
      ],
      "stateMutability": "view",
      "type": "function"
    },
    {
      "inputs": [],
      "name": "getDistributionsAmount",
      "outputs": [
        {
          "internalType": "uint256",
          "name": "",
          "type": "uint256"
        }
      ],
      "stateMutability": "view",
      "type": "function"
    },
    {
      "inputs": [],
      "name": "owner",
      "outputs": [
        {
          "internalType": "address",
          "name": "",
          "type": "address"
        }
      ],
      "stateMutability": "view",
      "type": "function"
    },
    {
      "inputs": [],
      "name": "renounceOwnership",
      "outputs": [],
      "stateMutability": "nonpayable",
      "type": "function"
    },
    {
      "inputs": [],
      "name": "rewardTokensValidator",
      "outputs": [
        {
          "internalType": "contract IRewardTokensValidator",
          "name": "",
          "type": "address"
        }
      ],
      "stateMutability": "view",
      "type": "function"
    },
    {
      "inputs": [
        {
          "internalType": "address",
          "name": "_rewardTokensValidatorAddress",
          "type": "address"
        }
      ],
      "name": "setRewardTokensValidator",
      "outputs": [],
      "stateMutability": "nonpayable",
      "type": "function"
    },
    {
      "inputs": [
        {
          "internalType": "address",
          "name": "_stakableTokenValidatorAddress",
          "type": "address"
        }
      ],
      "name": "setStakableTokenValidator",
      "outputs": [],
      "stateMutability": "nonpayable",
      "type": "function"
    },
    {
      "inputs": [],
      "name": "stakableTokenValidator",
      "outputs": [
        {
          "internalType": "contract IStakableTokenValidator",
          "name": "",
          "type": "address"
        }
      ],
      "stateMutability": "view",
      "type": "function"
    },
    {
      "inputs": [
        {
          "internalType": "address",
          "name": "newOwner",
          "type": "address"
        }
      ],
      "name": "transferOwnership",
      "outputs": [],
      "stateMutability": "nonpayable",
      "type": "function"
    }
  ],
  "bytecode": "0x608060405234801561001057600080fd5b5060405161372f38038061372f8339818101604052604081101561003357600080fd5b508051602090910151600061004661014b565b600080546001600160a01b0319166001600160a01b0383169081178255604051929350917f8be0079c531659141344cd1fd0a4f28419497f9722a3daafe3b4186f6b6457e0908290a3506001600160a01b0382166100d55760405162461bcd60e51b815260040180806020018281038252604e815260200180613692604e913960600191505060405180910390fd5b6001600160a01b03811661011a5760405162461bcd60e51b815260040180806020018281038252604f8152602001806136e0604f913960600191505060405180910390fd5b600280546001600160a01b039384166001600160a01b0319918216179091556003805492909316911617905561014f565b3390565b6135348061015e6000396000f3fe608060405234801561001057600080fd5b506004361061009d5760003560e01c8063715018a611610066578063715018a6146101fe5780638da5cb5b146102065780639d684baa1461020e578063d5eeaef714610234578063f2fde38b1461024e5761009d565b8062083727146100a25780630fed647d146100ca5780634487d3df146100ee57806344d15b231461010b578063484a5eaa14610113575b600080fd5b6100c8600480360360208110156100b857600080fd5b50356001600160a01b0316610274565b005b6100d2610333565b604080516001600160a01b039092168252519081900360200190f35b6100d26004803603602081101561010457600080fd5b5035610342565b6100d2610369565b6100c8600480360360c081101561012957600080fd5b81019060208101813564010000000081111561014457600080fd5b82018360208201111561015657600080fd5b8035906020019184602083028401116401000000008311171561017857600080fd5b919390926001600160a01b03833516926040810190602001356401000000008111156101a357600080fd5b8201836020820111156101b557600080fd5b803590602001918460208302840111640100000000831117156101d757600080fd5b919350915067ffffffffffffffff8135811691602081013590911690604001351515610378565b6100c861048a565b6100d261052c565b6100c86004803603602081101561022457600080fd5b50356001600160a01b031661053b565b61023c6105fa565b60408051918252519081900360200190f35b6100c86004803603602081101561026457600080fd5b50356001600160a01b0316610600565b61027c6106f8565b6000546001600160a01b039081169116146102cc576040805162461bcd60e51b815260206004820181905260248201526000805160206134b5833981519152604482015290519081900360640190fd5b6001600160a01b0381166103115760405162461bcd60e51b815260040180806020018281038252604e8152602001806133f2604e913960600191505060405180910390fd5b600280546001600160a01b0319166001600160a01b0392909216919091179055565b6003546001600160a01b031681565b6001818154811061034f57fe5b6000918252602090912001546001600160a01b0316905081565b6002546001600160a01b031681565b60025460405163191fc58d60e31b8152602060048201818152602483018b90526001600160a01b039093169263c8fe2c68928c928c929182916044909101908590850280828437600081840152601f19601f820116905080830192505050935050505060006040518083038186803b1580156103f357600080fd5b505afa158015610407573d6000803e3d6000fd5b505060035460408051639532b6ab60e01b81526001600160a01b038b811660048301529151919092169350639532b6ab92506024808301926000929190829003018186803b15801561045857600080fd5b505afa15801561046c573d6000803e3d6000fd5b5050505061048088888888888888886106fc565b5050505050505050565b6104926106f8565b6000546001600160a01b039081169116146104e2576040805162461bcd60e51b815260206004820181905260248201526000805160206134b5833981519152604482015290519081900360640190fd5b600080546040516001600160a01b03909116907f8be0079c531659141344cd1fd0a4f28419497f9722a3daafe3b4186f6b6457e0908390a3600080546001600160a01b0319169055565b6000546001600160a01b031690565b6105436106f8565b6000546001600160a01b03908116911614610593576040805162461bcd60e51b815260206004820181905260248201526000805160206134b5833981519152604482015290519081900360640190fd5b6001600160a01b0381166105d85760405162461bcd60e51b815260040180806020018281038252604f815260200180613466604f913960600191505060405180910390fd5b600380546001600160a01b0319166001600160a01b0392909216919091179055565b60015490565b6106086106f8565b6000546001600160a01b03908116911614610658576040805162461bcd60e51b815260206004820181905260248201526000805160206134b5833981519152604482015290519081900360640190fd5b6001600160a01b03811661069d5760405162461bcd60e51b81526004018080602001828103825260268152602001806133cc6026913960400191505060405180910390fd5b600080546040516001600160a01b03808516939216917f8be0079c531659141344cd1fd0a4f28419497f9722a3daafe3b4186f6b6457e091a3600080546001600160a01b0319166001600160a01b0392909216919091179055565b3390565b600060405161070a90610cb2565b604051809103906000f080158015610726573d6000803e3d6000fd5b50905060005b8881101561078f57600087878381811061074257fe5b9050602002013590506107863384838e8e8781811061075d57fe5b905060200201356001600160a01b03166001600160a01b031661097d909392919063ffffffff16565b5060010161072c565b50806001600160a01b031663c03e72958a8a8a8a8a8a8a8a6040518963ffffffff1660e01b81526004018080602001886001600160a01b03168152602001806020018667ffffffffffffffff1681526020018567ffffffffffffffff168152602001841515815260200183810383528b8b82818152602001925060200280828437600083820152601f01601f19169091018481038352888152602090810191508990890280828437600081840152601f19601f8201169050808301925050509a5050505050505050505050600060405180830381600087803b15801561087457600080fd5b505af1158015610888573d6000803e3d6000fd5b50506040805163f2fde38b60e01b815233600482015290516001600160a01b038516935063f2fde38b9250602480830192600092919082900301818387803b1580156108d357600080fd5b505af11580156108e7573d6000803e3d6000fd5b50506001805480820182556000919091527fb10e2d527612073b26eecdfd717e6a320cf44b4afac2b0732d9fcbe2b7fa0cf60180546001600160a01b0319166001600160a01b03851690811790915560408051338152602081019290925280517fc017437e795c074edadc242e8f0b868fb614ed8d2923b9a58cbc52799e8b9b27945091829003019150a1505050505050505050565b604080516001600160a01b0380861660248301528416604482015260648082018490528251808303909101815260849091019091526020810180516001600160e01b03166323b872dd60e01b1790526109d79085906109dd565b50505050565b6060610a32826040518060400160405280602081526020017f5361666545524332303a206c6f772d6c6576656c2063616c6c206661696c6564815250856001600160a01b0316610a939092919063ffffffff16565b805190915015610a8e57808060200190516020811015610a5157600080fd5b5051610a8e5760405162461bcd60e51b815260040180806020018281038252602a8152602001806134d5602a913960400191505060405180910390fd5b505050565b6060610aa28484600085610aac565b90505b9392505050565b606082471015610aed5760405162461bcd60e51b81526004018080602001828103825260268152602001806134406026913960400191505060405180910390fd5b610af685610c08565b610b47576040805162461bcd60e51b815260206004820152601d60248201527f416464726573733a2063616c6c20746f206e6f6e2d636f6e7472616374000000604482015290519081900360640190fd5b60006060866001600160a01b031685876040518082805190602001908083835b60208310610b865780518252601f199092019160209182019101610b67565b6001836020036101000a03801982511681845116808217855250505050505090500191505060006040518083038185875af1925050503d8060008114610be8576040519150601f19603f3d011682016040523d82523d6000602084013e610bed565b606091505b5091509150610bfd828286610c0e565b979650505050505050565b3b151590565b60608315610c1d575081610aa5565b825115610c2d5782518084602001fd5b8160405162461bcd60e51b81526004018080602001828103825283818151815260200191508051906020019080838360005b83811015610c77578181015183820152602001610c5f565b50505050905090810190601f168015610ca45780820380516001836020036101000a031916815260200191505b509250505060405180910390fd5b61270c80610cc08339019056fe608060405234801561001057600080fd5b50600061001b61006a565b600080546001600160a01b0319166001600160a01b0383169081178255604051929350917f8be0079c531659141344cd1fd0a4f28419497f9722a3daafe3b4186f6b6457e0908290a35061006e565b3390565b61268f8061007d6000396000f3fe608060405234801561001057600080fd5b50600436106101c45760003560e01c806388786272116100f9578063c10de30011610097578063e644067d11610071578063e644067d14610544578063e66d85be1461054c578063ea8a1af014610572578063f2fde38b1461057a576101c4565b8063c10de300146104dc578063c4f59f9b146104e4578063cf3090121461053c576101c4565b8063a694fc3a116100d3578063a694fc3a146103a7578063ab08d4fc146103c4578063b41fa979146103ea578063c03e7295146103f2576101c4565b806388786272146103715780638da5cb5b1461037957806398f8123014610381576101c4565b80635fa3502311610166578063715018a611610140578063715018a6146102f0578063728e4a67146102f857806375b8dbf8146103265780637bb7bed114610354576101c4565b80635fa35023146102ba578063645a8a56146102c25780636715dcb8146102e8576101c4565b806334380a61116101a257806334380a61146102285780633b34ee50146102685780634e71d92d1461028e5780635e5294b714610296576101c4565b8063158ef93e146101c95780631c96c3fb146101e55780632e1a7d4d14610209575b600080fd5b6101d16105a0565b604080519115158252519081900360200190f35b6101ed6105b0565b604080516001600160a01b039092168252519081900360200190f35b6102266004803603602081101561021f57600080fd5b50356105bf565b005b6102566004803603604081101561023e57600080fd5b506001600160a01b03813581169160200135166107e7565b60408051918252519081900360200190f35b6102566004803603602081101561027e57600080fd5b50356001600160a01b0316610804565b610226610816565b61029e610a7e565b604080516001600160401b039092168252519081900360200190f35b61029e610a94565b610256600480360360208110156102d857600080fd5b50356001600160a01b0316610aaa565b610226610abc565b610226610e2f565b6102566004803603604081101561030e57600080fd5b506001600160a01b0381358116916020013516610ed1565b6102566004803603604081101561033c57600080fd5b506001600160a01b0381358116916020013516610eee565b6101ed6004803603602081101561036a57600080fd5b5035610f0b565b61029e610f32565b6101ed610f41565b6102566004803603602081101561039757600080fd5b50356001600160a01b0316610f50565b610226600480360360208110156103bd57600080fd5b5035610f62565b610256600480360360208110156103da57600080fd5b50356001600160a01b0316611141565b610256611153565b610226600480360360c081101561040857600080fd5b81019060208101813564010000000081111561042357600080fd5b82018360208201111561043557600080fd5b8035906020019184602083028401116401000000008311171561045757600080fd5b919390926001600160a01b038335169260408101906020013564010000000081111561048257600080fd5b82018360208201111561049457600080fd5b803590602001918460208302840111640100000000831117156104b657600080fd5b91935091506001600160401b038135811691602081013590911690604001351515611159565b61029e611684565b6104ec611693565b60408051602080825283518183015283519192839290830191858101910280838360005b83811015610528578181015183820152602001610510565b505050509050019250505060405180910390f35b6101d16116f5565b610226611705565b6102566004803603602081101561056257600080fd5b50356001600160a01b03166118fd565b61022661190f565b6102266004803603602081101561059057600080fd5b50356001600160a01b0316611b50565b600754600160c81b900460ff1681565b6002546001600160a01b031681565b600754600160c81b900460ff166106075760405162461bcd60e51b81526004018080602001828103825260308152602001806123ce6030913960400191505060405180910390fd5b600754600160c81b900460ff16801561062b57506007546001600160401b03164210155b6106665760405162461bcd60e51b815260040180806020018281038252602c815260200180612225602c913960400191505060405180910390fd5b600081116106a55760405162461bcd60e51b815260040180806020018281038252603a815260200180612251603a913960400191505060405180910390fd5b600754600160c01b900460ff161561070757600754600160401b90046001600160401b031642116107075760405162461bcd60e51b81526004018080602001828103825260498152602001806125bc6049913960600191505060405180910390fd5b61070f610abc565b336000908152600a602052604090205481111561075d5760405162461bcd60e51b815260040180806020018281038252604c8152602001806122f2604c913960600191505060405180910390fd5b336000908152600a60205260409020546107779082611c48565b336000908152600a60205260409020556005546107949082611c48565b6005556002546107ae906001600160a01b03163383611c93565b60408051828152905133917f7084f5476618d8e60b11ef0d7d3f06914655adb8793e28ff7f018d4c76d505d5919081900360200190a250565b600d60209081526000928352604080842090915290825290205481565b60096020526000908152604090205481565b600754600160c81b900460ff1661085e5760405162461bcd60e51b81526004018080602001828103825260308152602001806123ce6030913960400191505060405180910390fd5b600754600160c81b900460ff16801561088257506007546001600160401b03164210155b6108bd5760405162461bcd60e51b815260040180806020018281038252602c815260200180612225602c913960400191505060405180910390fd5b6108c5610abc565b6001546060906001600160401b03811180156108e057600080fd5b5060405190808252806020026020018201604052801561090a578160200160208202803683370190505b50905060005b600154811015610a065760006001828154811061092957fe5b600091825260208083209091015433808452600d835260408085206001600160a01b0390931680865292845280852054918552600c84528085208386529093529183205490935083929161097d9190611c48565b336000908152600d602090815260408083206001600160a01b03871684529091529020549091506109ae9082611cea565b336000818152600d602090815260408083206001600160a01b0388811685529252909120929092556109e39185169083611c93565b808585815181106109f057fe5b6020908102919091010152505050600101610910565b50604080516020808252835181830152835133937f28ee566bdecaf975c0979f4d09fecf91a9009ffe78523aef053a678134137b8b93869390928392830191808601910280838360005b83811015610a68578181015183820152602001610a50565b505050509050019250505060405180910390a250565b600754600160401b90046001600160401b031681565b600754600160801b90046001600160401b031681565b60036020526000908152604090205481565b600754600160c81b900460ff16610b045760405162461bcd60e51b81526004018080602001828103825260308152602001806123ce6030913960400191505060405180910390fd5b600754600160c81b900460ff168015610b2857506007546001600160401b03164210155b610b635760405162461bcd60e51b815260040180806020018281038252602c815260200180612225602c913960400191505060405180910390fd5b600754600090610b84904290600160401b90046001600160401b0316611d44565b600854909150600090610ba3906001600160401b038085169116611c48565b905060005b600154811015610e0a57600060018281548110610bc157fe5b6000918252602090912001546005546001600160a01b039091169150610c73576007546001600160a01b038216600090815260036020526040902054610c4791610c2891600160801b9091046001600160401b031690610c22908790611d5a565b90611db3565b6001600160a01b03831660009081526009602052604090205490611cea565b6001600160a01b0382166000908152600960209081526040808320939093556006905290812055610d07565b600754600554610ced91610cce91610c9a91600160801b90046001600160401b0316611d5a565b6001600160a01b038416600090815260036020526040902054610c2290600160701b90610cc8908990611d5a565b90611d5a565b6001600160a01b03831660009081526006602052604090205490611cea565b6001600160a01b0382166000908152600660205260409020555b6001600160a01b038116600090815260066020526040812054610d2b576000610d86565b336000908152600b602090815260408083206001600160a01b0386168452825280832054600690925290912054610d8691600160701b91610c2291610d709190611c48565b336000908152600a602052604090205490611d5a565b336000908152600c602090815260408083206001600160a01b0387168452909152902054909150610db79082611cea565b336000818152600c602090815260408083206001600160a01b0397909716808452968252808320949094556006815283822054928252600b81528382209582529490945292209190915550600101610ba8565b50506008805467ffffffffffffffff19166001600160401b0392909216919091179055565b610e37611df5565b6000546001600160a01b03908116911614610e87576040805162461bcd60e51b8152602060048201819052602482015260008051602061241f833981519152604482015290519081900360640190fd5b600080546040516001600160a01b03909116907f8be0079c531659141344cd1fd0a4f28419497f9722a3daafe3b4186f6b6457e0908390a3600080546001600160a01b0319169055565b600c60209081526000928352604080842090915290825290205481565b600b60209081526000928352604080842090915290825290205481565b60018181548110610f1857fe5b6000918252602090912001546001600160a01b0316905081565b6007546001600160401b031681565b6000546001600160a01b031690565b60066020526000908152604090205481565b600754600160c81b900460ff16610faa5760405162461bcd60e51b81526004018080602001828103825260308152602001806123ce6030913960400191505060405180910390fd5b600754600160c81b900460ff168015610fce57506007546001600160401b03164210155b6110095760405162461bcd60e51b815260040180806020018281038252602c815260200180612225602c913960400191505060405180910390fd5b600754600160c81b900460ff1680156110345750600754600160401b90046001600160401b03164211155b61106f5760405162461bcd60e51b815260040180806020018281038252602e815260200180612553602e913960400191505060405180910390fd5b600081116110ae5760405162461bcd60e51b81526004018080602001828103825260378152602001806124e06037913960400191505060405180910390fd5b6110b6610abc565b336000908152600a60205260409020546110d09082611cea565b336000908152600a60205260409020556005546110ed9082611cea565b600555600254611108906001600160a01b0316333084611df9565b60408051828152905133917f9e71bc8eea02a63969f509818f2dafb9254532904319f9dbda79b67bd34a5f3d919081900360200190a250565b600a6020526000908152604090205481565b60055481565b611161611df5565b6000546001600160a01b039081169116146111b1576040805162461bcd60e51b8152602060048201819052602482015260008051602061241f833981519152604482015290519081900360640190fd5b600754600160c81b900460ff16156111fa5760405162461bcd60e51b815260040180806020018281038252603481526020018061239a6034913960400191505060405180910390fd5b42836001600160401b0316116112415760405162461bcd60e51b815260040180806020018281038252603b815260200180612581603b913960400191505060405180910390fd5b826001600160401b0316826001600160401b0316116112915760405162461bcd60e51b815260040180806020018281038252603681526020018061233e6036913960400191505060405180910390fd5b8684146112cf5760405162461bcd60e51b81526004018080602001828103825260418152602001806122b16041913960600191505060405180910390fd5b6007805467ffffffffffffffff60801b1916600160801b8585036001600160401b03160217905560005b63ffffffff81168811156114df57600089898363ffffffff1681811061131b57fe5b905060200201356001600160a01b03169050600087878463ffffffff1681811061134157fe5b60200291909101359150506001600160a01b0382166113915760405162461bcd60e51b815260040180806020018281038252603a81526020018061243f603a913960400191505060405180910390fd5b600081116113d05760405162461bcd60e51b815260040180806020018281038252602a815260200180612479602a913960400191505060405180910390fd5b604080516370a0823160e01b81523060048201529051839183916001600160a01b038416916370a08231916024808301926020929190829003018186803b15801561141a57600080fd5b505afa15801561142e573d6000803e3d6000fd5b505050506040513d602081101561144457600080fd5b505110156114835760405162461bcd60e51b815260040180806020018281038252602b81526020018061262f602b913960400191505060405180910390fd5b6001805480820182557fb10e2d527612073b26eecdfd717e6a320cf44b4afac2b0732d9fcbe2b7fa0cf60180546001600160a01b0319166001600160a01b039384161790559216600090815260036020526040902055016112f9565b506001600160a01b0386166115255760405162461bcd60e51b815260040180806020018281038252603c815260200180612517603c913960400191505060405180910390fd5b600280546001600160a01b0319166001600160a01b03881690811790915560078054600880546001600160401b0388811667ffffffffffffffff199283168117909355600160c81b9190931682176fffffffffffffffff00000000000000001916600160401b9388169384021760ff60c01b1916600160c01b8715159081029190911760ff60c81b191691909117909355604080516020808201969096526060810192909252608082019290925260a081019290925260c080835282018a90527fe0447a394d11ec1fdc78a0ee3f2ce94c11fcfcf256a283544638f918f2df2800928b928b928b928b928b928b928b928b929091829182019060e08301908c908c0280828437600083820152601f01601f19169091018481038352888152602090810191508990890280828437600083820152604051601f909101601f19169092018290039c50909a5050505050505050505050a15050505050505050565b6008546001600160401b031681565b606060018054806020026020016040519081016040528092919081815260200182805480156116eb57602002820191906000526020600020905b81546001600160a01b031681526001909101906020018083116116cd575b5050505050905090565b600754600160c01b900460ff1681565b600754600160c81b900460ff1661174d5760405162461bcd60e51b81526004018080602001828103825260308152602001806123ce6030913960400191505060405180910390fd5b600754600160c81b900460ff16801561177157506007546001600160401b03164210155b6117ac5760405162461bcd60e51b815260040180806020018281038252602c815260200180612225602c913960400191505060405180910390fd5b6117b4610abc565b6001546060816001600160401b03811180156117cf57600080fd5b506040519080825280602002602001820160405280156117f9578160200160208202803683370190505b50905060005b828110156118835760006001828154811061181657fe5b60009182526020808320909101546001600160a01b031680835260099091526040822080549290558451909250819085908590811061185157fe5b602002602001018181525050611879611868610f41565b6001600160a01b0384169083611c93565b50506001016117ff565b507ff904fafa600a7e4e8039f3a5497d1b6016772e3060f87d3e40f911b315f00bd1816040518080602001828103825283818151815260200191508051906020019060200280838360005b838110156118e65781810151838201526020016118ce565b505050509050019250505060405180910390a15050565b60046020526000908152604090205481565b600754600160c81b900460ff166119575760405162461bcd60e51b81526004018080602001828103825260308152602001806123ce6030913960400191505060405180910390fd5b61195f611df5565b6000546001600160a01b039081169116146119af576040805162461bcd60e51b8152602060048201819052602482015260008051602061241f833981519152604482015290519081900360640190fd5b6007546001600160401b031642106119f85760405162461bcd60e51b815260040180806020018281038252603d8152602001806124a3603d913960400191505060405180910390fd5b60005b600154811015611ad457600060018281548110611a1457fe5b60009182526020808320909101546001600160a01b0316808352600390915260408220919091559050611acb611a48610f41565b604080516370a0823160e01b815230600482015290516001600160a01b038516916370a08231916024808301926020929190829003018186803b158015611a8e57600080fd5b505afa158015611aa2573d6000803e3d6000fd5b505050506040513d6020811015611ab857600080fd5b50516001600160a01b0384169190611c93565b506001016119fb565b50611ae1600160006121ea565b600280546001600160a01b0319169055600780546008805467ffffffffffffffff1916905579ffff0000000000000000ffffffffffffffffffffffffffffffff191690556040517f1afb0ae590df277bcb3a37f88612725bf1f7df4755792b1548a7efe77985ff7790600090a1565b611b58611df5565b6000546001600160a01b03908116911614611ba8576040805162461bcd60e51b8152602060048201819052602482015260008051602061241f833981519152604482015290519081900360640190fd5b6001600160a01b038116611bed5760405162461bcd60e51b815260040180806020018281038252602681526020018061228b6026913960400191505060405180910390fd5b600080546040516001600160a01b03808516939216917f8be0079c531659141344cd1fd0a4f28419497f9722a3daafe3b4186f6b6457e091a3600080546001600160a01b0319166001600160a01b0392909216919091179055565b6000611c8a83836040518060400160405280601e81526020017f536166654d6174683a207375627472616374696f6e206f766572666c6f770000815250611e59565b90505b92915050565b604080516001600160a01b038416602482015260448082018490528251808303909101815260649091019091526020810180516001600160e01b031663a9059cbb60e01b179052611ce5908490611ef5565b505050565b600082820183811015611c8a576040805162461bcd60e51b815260206004820152601b60248201527f536166654d6174683a206164646974696f6e206f766572666c6f770000000000604482015290519081900360640190fd5b6000818310611d535781611c8a565b5090919050565b600082611d6957506000611c8d565b82820282848281611d7657fe5b0414611c8a5760405162461bcd60e51b81526004018080602001828103825260218152602001806123fe6021913960400191505060405180910390fd5b6000611c8a83836040518060400160405280601a81526020017f536166654d6174683a206469766973696f6e206279207a65726f000000000000815250611fa6565b3390565b604080516001600160a01b0380861660248301528416604482015260648082018490528251808303909101815260849091019091526020810180516001600160e01b03166323b872dd60e01b179052611e53908590611ef5565b50505050565b60008184841115611ee85760405162461bcd60e51b81526004018080602001828103825283818151815260200191508051906020019080838360005b83811015611ead578181015183820152602001611e95565b50505050905090810190601f168015611eda5780820380516001836020036101000a031916815260200191505b509250505060405180910390fd5b50508183035b9392505050565b6060611f4a826040518060400160405280602081526020017f5361666545524332303a206c6f772d6c6576656c2063616c6c206661696c6564815250856001600160a01b031661200b9092919063ffffffff16565b805190915015611ce557808060200190516020811015611f6957600080fd5b5051611ce55760405162461bcd60e51b815260040180806020018281038252602a815260200180612605602a913960400191505060405180910390fd5b60008183611ff55760405162461bcd60e51b8152602060048201818152835160248401528351909283926044909101919085019080838360008315611ead578181015183820152602001611e95565b50600083858161200157fe5b0495945050505050565b606061201a8484600085612022565b949350505050565b6060824710156120635760405162461bcd60e51b81526004018080602001828103825260268152602001806123746026913960400191505060405180910390fd5b61206c8561217e565b6120bd576040805162461bcd60e51b815260206004820152601d60248201527f416464726573733a2063616c6c20746f206e6f6e2d636f6e7472616374000000604482015290519081900360640190fd5b60006060866001600160a01b031685876040518082805190602001908083835b602083106120fc5780518252601f1990920191602091820191016120dd565b6001836020036101000a03801982511681845116808217855250505050505090500191505060006040518083038185875af1925050503d806000811461215e576040519150601f19603f3d011682016040523d82523d6000602084013e612163565b606091505b5091509150612173828286612184565b979650505050505050565b3b151590565b60608315612193575081611eee565b8251156121a35782518084602001fd5b60405162461bcd60e51b8152602060048201818152845160248401528451859391928392604401919085019080838360008315611ead578181015183820152602001611e95565b5080546000825590600052602060002090810190612208919061220b565b50565b5b80821115612220576000815560010161220c565b509056fe45524332305374616b696e6752657761726473446973747269627574696f6e3a206e6f74207374617274656445524332305374616b696e6752657761726473446973747269627574696f6e3a20747269656420746f207769746864726177206e6f7468696e674f776e61626c653a206e6577206f776e657220697320746865207a65726f206164647265737345524332305374616b696e6752657761726473446973747269627574696f6e3a20696e636f6e73697374656e742072657761726420746f6b656e2f616d6f756e7445524332305374616b696e6752657761726473446973747269627574696f6e3a2077697468647261776e20616d6f756e742067726561746572207468616e2063757272656e74207374616b6545524332305374616b696e6752657761726473446973747269627574696f6e3a20696e76616c69642074696d65206475726174696f6e416464726573733a20696e73756666696369656e742062616c616e636520666f722063616c6c45524332305374616b696e6752657761726473446973747269627574696f6e3a20616c726561647920696e697469616c697a656445524332305374616b696e6752657761726473446973747269627574696f6e3a206e6f7420696e697469616c697a6564536166654d6174683a206d756c7469706c69636174696f6e206f766572666c6f774f776e61626c653a2063616c6c6572206973206e6f7420746865206f776e657245524332305374616b696e6752657761726473446973747269627574696f6e3a203020616464726573732061732072657761726420746f6b656e45524332305374616b696e6752657761726473446973747269627574696f6e3a206e6f2072657761726445524332305374616b696e6752657761726473446973747269627574696f6e3a20646973747269627574696f6e20616c7265616479207374617274656445524332305374616b696e6752657761726473446973747269627574696f6e3a20747269656420746f207374616b65206e6f7468696e6745524332305374616b696e6752657761726473446973747269627574696f6e3a20302061646472657373206173207374616b61626c6520746f6b656e45524332305374616b696e6752657761726473446973747269627574696f6e3a20616c726561647920656e64656445524332305374616b696e6752657761726473446973747269627574696f6e3a20696e76616c6964207374617274696e672074696d657374616d7045524332305374616b696e6752657761726473446973747269627574696f6e3a2066756e6473206c6f636b656420756e74696c2074686520646973747269627574696f6e20656e64735361666545524332303a204552433230206f7065726174696f6e20646964206e6f74207375636365656445524332305374616b696e6752657761726473446973747269627574696f6e3a206e6f2066756e64696e67a264697066735822122076b4da5b3d81d27226575e3a43dd39856b403760f23752008bbc3175d0e593bf64736f6c634300060c00334f776e61626c653a206e6577206f776e657220697320746865207a65726f2061646472657373537761707245524332305374616b696e6752657761726473446973747269627574696f6e466163746f72793a20302d616464726573732072657761726420746f6b656e732076616c696461746f72416464726573733a20696e73756666696369656e742062616c616e636520666f722063616c6c537761707245524332305374616b696e6752657761726473446973747269627574696f6e466163746f72793a20302d61646472657373207374616b61626c6520746f6b656e2076616c696461746f724f776e61626c653a2063616c6c6572206973206e6f7420746865206f776e65725361666545524332303a204552433230206f7065726174696f6e20646964206e6f742073756363656564a2646970667358221220d6d995f60edfe8c1f7e7c00d55e9e80f26fe50cf068275dd1918f992c9aaa11c64736f6c634300060c0033537761707245524332305374616b696e6752657761726473446973747269627574696f6e466163746f72793a20302d616464726573732072657761726420746f6b656e732076616c696461746f72537761707245524332305374616b696e6752657761726473446973747269627574696f6e466163746f72793a20302d61646472657373207374616b61626c6520746f6b656e2076616c696461746f72",
  "linkReferences": {},
  "deployedLinkReferences": {}
}