{
  "contractName": "DefaultStakableTokensValidator",
  "abi": [
    {
      "inputs": [
        {
          "internalType": "address",
          "name": "_dxTokenRegistryAddress",
          "type": "address"
        },
        {
          "internalType": "uint256",
          "name": "_dxTokenRegistryListId",
          "type": "uint256"
        }
      ],
      "stateMutability": "nonpayable",
      "type": "constructor"
    },
    {
      "anonymous": false,
      "inputs": [
        {
          "indexed": true,
          "internalType": "address",
          "name": "previousOwner",
          "type": "address"
        },
        {
          "indexed": true,
          "internalType": "address",
          "name": "newOwner",
          "type": "address"
        }
      ],
      "name": "OwnershipTransferred",
      "type": "event"
    },
    {
      "inputs": [],
      "name": "owner",
      "outputs": [
        {
          "internalType": "address",
          "name": "",
          "type": "address"
        }
      ],
      "stateMutability": "view",
      "type": "function"
    },
    {
      "inputs": [],
      "name": "renounceOwnership",
      "outputs": [],
      "stateMutability": "nonpayable",
      "type": "function"
    },
    {
      "inputs": [
        {
          "internalType": "bytes4",
          "name": "interfaceId",
          "type": "bytes4"
        }
      ],
      "name": "supportsInterface",
      "outputs": [
        {
          "internalType": "bool",
          "name": "",
          "type": "bool"
        }
      ],
      "stateMutability": "view",
      "type": "function"
    },
    {
      "inputs": [
        {
          "internalType": "address",
          "name": "newOwner",
          "type": "address"
        }
      ],
      "name": "transferOwnership",
      "outputs": [],
      "stateMutability": "nonpayable",
      "type": "function"
    },
    {
      "inputs": [
        {
          "internalType": "address",
          "name": "_dxTokenRegistryAddress",
          "type": "address"
        }
      ],
      "name": "setDxTokenRegistry",
      "outputs": [],
      "stateMutability": "nonpayable",
      "type": "function"
    },
    {
      "inputs": [
        {
          "internalType": "uint256",
          "name": "_dxTokenRegistryListId",
          "type": "uint256"
        }
      ],
      "name": "setDxTokenRegistryListId",
      "outputs": [],
      "stateMutability": "nonpayable",
      "type": "function"
    },
    {
      "inputs": [
        {
          "internalType": "address[]",
          "name": "_stakableTokens",
          "type": "address[]"
        }
      ],
      "name": "areStakableTokensValid",
      "outputs": [
        {
          "internalType": "bool",
          "name": "",
          "type": "bool"
        }
      ],
      "stateMutability": "nonpayable",
      "type": "function"
    }
  ],
  "bytecode": "0x608060405234801561001057600080fd5b506040516108ac3803806108ac8339818101604052604081101561003357600080fd5b50805160209091015161004c6301ffc9a760e01b6100db565b600061005661015f565b600180546001600160a01b0319166001600160a01b038316908117909155604051919250906000907f8be0079c531659141344cd1fd0a4f28419497f9722a3daafe3b4186f6b6457e0908290a350600280546001600160a01b0319166001600160a01b03841617905560038190556100d46340f85cdd60e11b6100db565b5050610163565b6001600160e01b0319808216141561013a576040805162461bcd60e51b815260206004820152601c60248201527f4552433136353a20696e76616c696420696e7465726661636520696400000000604482015290519081900360640190fd5b6001600160e01b0319166000908152602081905260409020805460ff19166001179055565b3390565b61073a806101726000396000f3fe608060405234801561001057600080fd5b506004361061007d5760003560e01c806381f0b9ba1161005b57806381f0b9ba146100ed5780638da5cb5b1461015d5780639189c0f214610181578063f2fde38b1461019e5761007d565b806301ffc9a714610082578063715018a6146100bd5780637ea54050146100c7575b600080fd5b6100a96004803603602081101561009857600080fd5b50356001600160e01b0319166101c4565b604080519115158252519081900360200190f35b6100c56101e3565b005b6100c5600480360360208110156100dd57600080fd5b50356001600160a01b0316610285565b6100a96004803603602081101561010357600080fd5b81019060208101813564010000000081111561011e57600080fd5b82018360208201111561013057600080fd5b8035906020019184602083028401116401000000008311171561015257600080fd5b5090925090506102ff565b610165610555565b604080516001600160a01b039092168252519081900360200190f35b6100c56004803603602081101561019757600080fd5b5035610564565b6100c5600480360360208110156101b457600080fd5b50356001600160a01b03166105c1565b6001600160e01b03191660009081526020819052604090205460ff1690565b6101eb6106ba565b6001546001600160a01b0390811691161461023b576040805162461bcd60e51b815260206004820181905260248201526000805160206106e5833981519152604482015290519081900360640190fd5b6001546040516000916001600160a01b0316907f8be0079c531659141344cd1fd0a4f28419497f9722a3daafe3b4186f6b6457e0908390a3600180546001600160a01b0319169055565b61028d6106ba565b6001546001600160a01b039081169116146102dd576040805162461bcd60e51b815260206004820181905260248201526000805160206106e5833981519152604482015290519081900360640190fd5b600280546001600160a01b0319166001600160a01b0392909216919091179055565b6000805b8281101561054957600084848381811061031957fe5b905060200201356001600160a01b031690506000819050600080826001600160a01b0316630dfe16816040518163ffffffff1660e01b815260040160206040518083038186803b15801561036c57600080fd5b505afa92505050801561039157506040513d602081101561038c57600080fd5b505160015b6103a35760009550505050505061054f565b9150826001600160a01b031663d21220a76040518163ffffffff1660e01b815260040160206040518083038186803b1580156103de57600080fd5b505afa92505050801561040357506040513d60208110156103fe57600080fd5b505160015b6104155760009550505050505061054f565b905060025460035460408051636ec456ef60e11b815260048101929092526001600160a01b038581166024840152905192169163dd88adde91604480820192602092909190829003018186803b15801561046e57600080fd5b505afa158015610482573d6000803e3d6000fd5b505050506040513d602081101561049857600080fd5b50511580610526575060025460035460408051636ec456ef60e11b815260048101929092526001600160a01b038481166024840152905192169163dd88adde91604480820192602092909190829003018186803b1580156104f857600080fd5b505afa15801561050c573d6000803e3d6000fd5b505050506040513d602081101561052257600080fd5b5051155b156105395760009550505050505061054f565b5050600190920191506103039050565b50600190505b92915050565b6001546001600160a01b031690565b61056c6106ba565b6001546001600160a01b039081169116146105bc576040805162461bcd60e51b815260206004820181905260248201526000805160206106e5833981519152604482015290519081900360640190fd5b600355565b6105c96106ba565b6001546001600160a01b03908116911614610619576040805162461bcd60e51b815260206004820181905260248201526000805160206106e5833981519152604482015290519081900360640190fd5b6001600160a01b03811661065e5760405162461bcd60e51b81526004018080602001828103825260268152602001806106bf6026913960400191505060405180910390fd5b6001546040516001600160a01b038084169216907f8be0079c531659141344cd1fd0a4f28419497f9722a3daafe3b4186f6b6457e090600090a3600180546001600160a01b0319166001600160a01b0392909216919091179055565b339056fe4f776e61626c653a206e6577206f776e657220697320746865207a65726f20616464726573734f776e61626c653a2063616c6c6572206973206e6f7420746865206f776e6572a264697066735822122036d37d76ff5e94cb6043903797ddc401e655677bc1370a3d3f5942dcc8c0841f64736f6c634300060c0033",
  "immutableReferences": {},
  "source": "// SPDX-License-Identifier: GPL-3.0\n\npragma solidity ^0.6.12;\n\nimport \"@openzeppelin/contracts/access/Ownable.sol\";\nimport \"../abstraction/IStakableTokensValidator.sol\";\nimport \"dxswap-core/contracts/interfaces/IDXswapPair.sol\";\nimport \"dxdao-token-registry/contracts/dxTokenRegistry.sol\";\n\ncontract DefaultStakableTokensValidator is IStakableTokensValidator, Ownable {\n    DXTokenRegistry dxTokenRegistry;\n    uint256 dxTokenRegistryListId;\n\n    constructor(address _dxTokenRegistryAddress, uint256 _dxTokenRegistryListId)\n        public\n    {\n        dxTokenRegistry = DXTokenRegistry(_dxTokenRegistryAddress);\n        dxTokenRegistryListId = _dxTokenRegistryListId;\n        _registerInterface(this.areStakableTokensValid.selector);\n    }\n\n    function setDxTokenRegistry(address _dxTokenRegistryAddress)\n        external\n        onlyOwner\n    {\n        dxTokenRegistry = DXTokenRegistry(_dxTokenRegistryAddress);\n    }\n\n    function setDxTokenRegistryListId(uint256 _dxTokenRegistryListId)\n        external\n        onlyOwner\n    {\n        dxTokenRegistryListId = _dxTokenRegistryListId;\n    }\n\n    function areStakableTokensValid(address[] calldata _stakableTokens)\n        external\n        override\n        returns (bool)\n    {\n        for (uint256 _i = 0; _i < _stakableTokens.length; _i++) {\n            address _stakableTokenAddress = _stakableTokens[_i];\n            IDXswapPair _dxSwapPair = IDXswapPair(_stakableTokenAddress);\n            address _token0;\n            address _token1;\n            try _dxSwapPair.token0() returns (address _fetchedToken0) {\n                _token0 = _fetchedToken0;\n            } catch {\n                return false;\n            }\n            try _dxSwapPair.token1() returns (address _fetchedToken1) {\n                _token1 = _fetchedToken1;\n            } catch {\n                return false;\n            }\n            if (\n                !dxTokenRegistry.isTokenActive(\n                    dxTokenRegistryListId,\n                    _token0\n                ) ||\n                !dxTokenRegistry.isTokenActive(dxTokenRegistryListId, _token1)\n            ) {\n                return false;\n            }\n        }\n        return true;\n    }\n}\n",
  "sourcePath": "/home/luzzif/Projects/swapr-erc20-staking-rewards-factory/contracts/validators/DefaultStakableTokensValidator.sol",
  "compiler": {
    "name": "solc",
    "version": "0.6.12+commit.27d51765.Emscripten.clang"
  },
  "schemaVersion": "3.3.3",
  "updatedAt": "2020-12-31T16:20:59.791Z",
  "devdoc": {
    "kind": "dev",
    "methods": {
      "owner()": {
        "details": "Returns the address of the current owner."
      },
      "renounceOwnership()": {
        "details": "Leaves the contract without owner. It will not be possible to call `onlyOwner` functions anymore. Can only be called by the current owner. NOTE: Renouncing ownership will leave the contract without an owner, thereby removing any functionality that is only available to the owner."
      },
      "supportsInterface(bytes4)": {
        "details": "See {IERC165-supportsInterface}. Time complexity O(1), guaranteed to always use less than 30 000 gas."
      },
      "transferOwnership(address)": {
        "details": "Transfers ownership of the contract to a new account (`newOwner`). Can only be called by the current owner."
      }
    },
    "version": 1
  },
  "userdoc": {
    "kind": "user",
    "methods": {},
    "version": 1
  }
}