{
  "contractName": "DefaultRewardTokensValidator",
  "abi": [
    {
      "inputs": [
        {
          "internalType": "address",
          "name": "_dxTokenRegistryAddress",
          "type": "address"
        },
        {
          "internalType": "uint256",
          "name": "_dxTokenRegistryListId",
          "type": "uint256"
        }
      ],
      "stateMutability": "nonpayable",
      "type": "constructor"
    },
    {
      "anonymous": false,
      "inputs": [
        {
          "indexed": true,
          "internalType": "address",
          "name": "previousOwner",
          "type": "address"
        },
        {
          "indexed": true,
          "internalType": "address",
          "name": "newOwner",
          "type": "address"
        }
      ],
      "name": "OwnershipTransferred",
      "type": "event"
    },
    {
      "inputs": [],
      "name": "owner",
      "outputs": [
        {
          "internalType": "address",
          "name": "",
          "type": "address"
        }
      ],
      "stateMutability": "view",
      "type": "function"
    },
    {
      "inputs": [],
      "name": "renounceOwnership",
      "outputs": [],
      "stateMutability": "nonpayable",
      "type": "function"
    },
    {
      "inputs": [
        {
          "internalType": "bytes4",
          "name": "interfaceId",
          "type": "bytes4"
        }
      ],
      "name": "supportsInterface",
      "outputs": [
        {
          "internalType": "bool",
          "name": "",
          "type": "bool"
        }
      ],
      "stateMutability": "view",
      "type": "function"
    },
    {
      "inputs": [
        {
          "internalType": "address",
          "name": "newOwner",
          "type": "address"
        }
      ],
      "name": "transferOwnership",
      "outputs": [],
      "stateMutability": "nonpayable",
      "type": "function"
    },
    {
      "inputs": [
        {
          "internalType": "address",
          "name": "_dxTokenRegistryAddress",
          "type": "address"
        }
      ],
      "name": "setDxTokenRegistry",
      "outputs": [],
      "stateMutability": "nonpayable",
      "type": "function"
    },
    {
      "inputs": [
        {
          "internalType": "uint256",
          "name": "_dxTokenRegistryListId",
          "type": "uint256"
        }
      ],
      "name": "setDxTokenRegistryListId",
      "outputs": [],
      "stateMutability": "nonpayable",
      "type": "function"
    },
    {
      "inputs": [
        {
          "internalType": "address[]",
          "name": "_rewardTokens",
          "type": "address[]"
        }
      ],
      "name": "areRewardTokensValid",
      "outputs": [
        {
          "internalType": "bool",
          "name": "",
          "type": "bool"
        }
      ],
      "stateMutability": "nonpayable",
      "type": "function"
    }
  ],
  "bytecode": "0x608060405234801561001057600080fd5b506040516107283803806107288339818101604052604081101561003357600080fd5b50805160209091015161004c6301ffc9a760e01b6100db565b600061005661015f565b600180546001600160a01b0319166001600160a01b038316908117909155604051919250906000907f8be0079c531659141344cd1fd0a4f28419497f9722a3daafe3b4186f6b6457e0908290a350600280546001600160a01b0319166001600160a01b03841617905560038190556100d46369b034d360e01b6100db565b5050610163565b6001600160e01b0319808216141561013a576040805162461bcd60e51b815260206004820152601c60248201527f4552433136353a20696e76616c696420696e7465726661636520696400000000604482015290519081900360640190fd5b6001600160e01b0319166000908152602081905260409020805460ff19166001179055565b3390565b6105b6806101726000396000f3fe608060405234801561001057600080fd5b506004361061007d5760003560e01c80637ea540501161005b5780637ea54050146101375780638da5cb5b1461015d5780639189c0f214610181578063f2fde38b1461019e5761007d565b806301ffc9a71461008257806369b034d3146100bd578063715018a61461012d575b600080fd5b6100a96004803603602081101561009857600080fd5b50356001600160e01b0319166101c4565b604080519115158252519081900360200190f35b6100a9600480360360208110156100d357600080fd5b8101906020810181356401000000008111156100ee57600080fd5b82018360208201111561010057600080fd5b8035906020019184602083028401116401000000008311171561012257600080fd5b5090925090506101e3565b6101356102b5565b005b6101356004803603602081101561014d57600080fd5b50356001600160a01b0316610357565b6101656103d1565b604080516001600160a01b039092168252519081900360200190f35b6101356004803603602081101561019757600080fd5b50356103e0565b610135600480360360208110156101b457600080fd5b50356001600160a01b031661043d565b6001600160e01b03191660009081526020819052604090205460ff1690565b6000805b828110156102a9576002546003546001600160a01b039091169063dd88adde9086868581811061021357fe5b905060200201356001600160a01b03166040518363ffffffff1660e01b815260040180838152602001826001600160a01b031681526020019250505060206040518083038186803b15801561026757600080fd5b505afa15801561027b573d6000803e3d6000fd5b505050506040513d602081101561029157600080fd5b50516102a15760009150506102af565b6001016101e7565b50600190505b92915050565b6102bd610536565b6001546001600160a01b0390811691161461030d576040805162461bcd60e51b81526020600482018190526024820152600080516020610561833981519152604482015290519081900360640190fd5b6001546040516000916001600160a01b0316907f8be0079c531659141344cd1fd0a4f28419497f9722a3daafe3b4186f6b6457e0908390a3600180546001600160a01b0319169055565b61035f610536565b6001546001600160a01b039081169116146103af576040805162461bcd60e51b81526020600482018190526024820152600080516020610561833981519152604482015290519081900360640190fd5b600280546001600160a01b0319166001600160a01b0392909216919091179055565b6001546001600160a01b031690565b6103e8610536565b6001546001600160a01b03908116911614610438576040805162461bcd60e51b81526020600482018190526024820152600080516020610561833981519152604482015290519081900360640190fd5b600355565b610445610536565b6001546001600160a01b03908116911614610495576040805162461bcd60e51b81526020600482018190526024820152600080516020610561833981519152604482015290519081900360640190fd5b6001600160a01b0381166104da5760405162461bcd60e51b815260040180806020018281038252602681526020018061053b6026913960400191505060405180910390fd5b6001546040516001600160a01b038084169216907f8be0079c531659141344cd1fd0a4f28419497f9722a3daafe3b4186f6b6457e090600090a3600180546001600160a01b0319166001600160a01b0392909216919091179055565b339056fe4f776e61626c653a206e6577206f776e657220697320746865207a65726f20616464726573734f776e61626c653a2063616c6c6572206973206e6f7420746865206f776e6572a2646970667358221220d1e8f55c6a9402b93b53177b2eed37c13c117f3c945f7bcec8e743d1b2df403464736f6c634300060c0033",
  "immutableReferences": {},
  "source": "// SPDX-License-Identifier: GPL-3.0\n\npragma solidity ^0.6.12;\n\nimport \"@openzeppelin/contracts/access/Ownable.sol\";\nimport \"../abstraction/IRewardTokensValidator.sol\";\nimport \"dxdao-token-registry/contracts/dxTokenRegistry.sol\";\n\ncontract DefaultRewardTokensValidator is IRewardTokensValidator, Ownable {\n    DXTokenRegistry dxTokenRegistry;\n    uint256 dxTokenRegistryListId;\n\n    constructor(address _dxTokenRegistryAddress, uint256 _dxTokenRegistryListId)\n        public\n    {\n        dxTokenRegistry = DXTokenRegistry(_dxTokenRegistryAddress);\n        dxTokenRegistryListId = _dxTokenRegistryListId;\n        _registerInterface(this.areRewardTokensValid.selector);\n    }\n\n    function setDxTokenRegistry(address _dxTokenRegistryAddress)\n        external\n        onlyOwner\n    {\n        dxTokenRegistry = DXTokenRegistry(_dxTokenRegistryAddress);\n    }\n\n    function setDxTokenRegistryListId(uint256 _dxTokenRegistryListId)\n        external\n        onlyOwner\n    {\n        dxTokenRegistryListId = _dxTokenRegistryListId;\n    }\n\n    function areRewardTokensValid(address[] calldata _rewardTokens)\n        external\n        override\n        returns (bool)\n    {\n        for (uint256 _i = 0; _i < _rewardTokens.length; _i++) {\n            if (\n                !dxTokenRegistry.isTokenActive(\n                    dxTokenRegistryListId,\n                    _rewardTokens[_i]\n                )\n            ) {\n                return false;\n            }\n        }\n        return true;\n    }\n}\n",
  "sourcePath": "/home/luzzif/Projects/swapr-erc20-staking-rewards-factory/contracts/validators/DefaultRewardTokensValidator.sol",
  "compiler": {
    "name": "solc",
    "version": "0.6.12+commit.27d51765.Emscripten.clang"
  },
  "schemaVersion": "3.3.3",
  "updatedAt": "2020-12-31T16:20:59.788Z",
  "devdoc": {
    "kind": "dev",
    "methods": {
      "owner()": {
        "details": "Returns the address of the current owner."
      },
      "renounceOwnership()": {
        "details": "Leaves the contract without owner. It will not be possible to call `onlyOwner` functions anymore. Can only be called by the current owner. NOTE: Renouncing ownership will leave the contract without an owner, thereby removing any functionality that is only available to the owner."
      },
      "supportsInterface(bytes4)": {
        "details": "See {IERC165-supportsInterface}. Time complexity O(1), guaranteed to always use less than 30 000 gas."
      },
      "transferOwnership(address)": {
        "details": "Transfers ownership of the contract to a new account (`newOwner`). Can only be called by the current owner."
      }
    },
    "version": 1
  },
  "userdoc": {
    "kind": "user",
    "methods": {},
    "version": 1
  }
}