{
  "contractName": "DXTokenRegistry",
  "abi": [
    {
      "anonymous": false,
      "inputs": [
        {
          "indexed": false,
          "internalType": "uint256",
          "name": "listId",
          "type": "uint256"
        },
        {
          "indexed": false,
          "internalType": "string",
          "name": "listName",
          "type": "string"
        }
      ],
      "name": "AddList",
      "type": "event"
    },
    {
      "anonymous": false,
      "inputs": [
        {
          "indexed": false,
          "internalType": "uint256",
          "name": "listId",
          "type": "uint256"
        },
        {
          "indexed": false,
          "internalType": "address",
          "name": "token",
          "type": "address"
        }
      ],
      "name": "AddToken",
      "type": "event"
    },
    {
      "anonymous": false,
      "inputs": [
        {
          "indexed": true,
          "internalType": "address",
          "name": "previousOwner",
          "type": "address"
        },
        {
          "indexed": true,
          "internalType": "address",
          "name": "newOwner",
          "type": "address"
        }
      ],
      "name": "OwnershipTransferred",
      "type": "event"
    },
    {
      "anonymous": false,
      "inputs": [
        {
          "indexed": false,
          "internalType": "uint256",
          "name": "listId",
          "type": "uint256"
        },
        {
          "indexed": false,
          "internalType": "address",
          "name": "token",
          "type": "address"
        }
      ],
      "name": "RemoveToken",
      "type": "event"
    },
    {
      "inputs": [],
      "name": "listCount",
      "outputs": [
        {
          "internalType": "uint256",
          "name": "",
          "type": "uint256"
        }
      ],
      "stateMutability": "view",
      "type": "function"
    },
    {
      "inputs": [],
      "name": "owner",
      "outputs": [
        {
          "internalType": "address",
          "name": "",
          "type": "address"
        }
      ],
      "stateMutability": "view",
      "type": "function"
    },
    {
      "inputs": [],
      "name": "renounceOwnership",
      "outputs": [],
      "stateMutability": "nonpayable",
      "type": "function"
    },
    {
      "inputs": [
        {
          "internalType": "uint256",
          "name": "",
          "type": "uint256"
        }
      ],
      "name": "tcrs",
      "outputs": [
        {
          "internalType": "uint256",
          "name": "listId",
          "type": "uint256"
        },
        {
          "internalType": "string",
          "name": "listName",
          "type": "string"
        },
        {
          "internalType": "uint256",
          "name": "activeTokenCount",
          "type": "uint256"
        }
      ],
      "stateMutability": "view",
      "type": "function"
    },
    {
      "inputs": [
        {
          "internalType": "address",
          "name": "newOwner",
          "type": "address"
        }
      ],
      "name": "transferOwnership",
      "outputs": [],
      "stateMutability": "nonpayable",
      "type": "function"
    },
    {
      "inputs": [
        {
          "internalType": "string",
          "name": "_listName",
          "type": "string"
        }
      ],
      "name": "addList",
      "outputs": [
        {
          "internalType": "uint256",
          "name": "",
          "type": "uint256"
        }
      ],
      "stateMutability": "nonpayable",
      "type": "function"
    },
    {
      "inputs": [
        {
          "internalType": "uint256",
          "name": "_listId",
          "type": "uint256"
        },
        {
          "internalType": "address[]",
          "name": "_tokens",
          "type": "address[]"
        }
      ],
      "name": "addTokens",
      "outputs": [],
      "stateMutability": "nonpayable",
      "type": "function"
    },
    {
      "inputs": [
        {
          "internalType": "uint256",
          "name": "_listId",
          "type": "uint256"
        },
        {
          "internalType": "address[]",
          "name": "_tokens",
          "type": "address[]"
        }
      ],
      "name": "removeTokens",
      "outputs": [],
      "stateMutability": "nonpayable",
      "type": "function"
    },
    {
      "inputs": [
        {
          "internalType": "uint256",
          "name": "_listId",
          "type": "uint256"
        }
      ],
      "name": "getTokens",
      "outputs": [
        {
          "internalType": "address[]",
          "name": "",
          "type": "address[]"
        }
      ],
      "stateMutability": "view",
      "type": "function"
    },
    {
      "inputs": [
        {
          "internalType": "uint256",
          "name": "_listId",
          "type": "uint256"
        },
        {
          "internalType": "uint256",
          "name": "_start",
          "type": "uint256"
        },
        {
          "internalType": "uint256",
          "name": "_end",
          "type": "uint256"
        }
      ],
      "name": "getTokensRange",
      "outputs": [
        {
          "internalType": "address[]",
          "name": "tokensRange",
          "type": "address[]"
        }
      ],
      "stateMutability": "view",
      "type": "function"
    },
    {
      "inputs": [
        {
          "internalType": "uint256",
          "name": "_listId",
          "type": "uint256"
        },
        {
          "internalType": "address",
          "name": "_token",
          "type": "address"
        }
      ],
      "name": "isTokenActive",
      "outputs": [
        {
          "internalType": "bool",
          "name": "",
          "type": "bool"
        }
      ],
      "stateMutability": "view",
      "type": "function"
    },
    {
      "inputs": [
        {
          "internalType": "address[]",
          "name": "_tokens",
          "type": "address[]"
        }
      ],
      "name": "getTokensData",
      "outputs": [
        {
          "internalType": "string[]",
          "name": "names",
          "type": "string[]"
        },
        {
          "internalType": "string[]",
          "name": "symbols",
          "type": "string[]"
        },
        {
          "internalType": "uint256[]",
          "name": "decimals",
          "type": "uint256[]"
        }
      ],
      "stateMutability": "view",
      "type": "function"
    },
    {
      "inputs": [
        {
          "internalType": "address",
          "name": "_trader",
          "type": "address"
        },
        {
          "internalType": "address[]",
          "name": "_assetAddresses",
          "type": "address[]"
        }
      ],
      "name": "getExternalBalances",
      "outputs": [
        {
          "internalType": "uint256[]",
          "name": "",
          "type": "uint256[]"
        }
      ],
      "stateMutability": "view",
      "type": "function"
    }
  ],
  "bytecode": "0x608060405234801561001057600080fd5b50600061001b61006a565b600080546001600160a01b0319166001600160a01b0383169081178255604051929350917f8be0079c531659141344cd1fd0a4f28419497f9722a3daafe3b4186f6b6457e0908290a35061006e565b3390565b6118c28061007d6000396000f3fe608060405234801561001057600080fd5b50600436106100cf5760003560e01c80638da5cb5b1161008c578063dc4d317111610066578063dc4d3171146101ac578063dd88adde146101bf578063f2fde38b146101df578063f7bb8415146101f2576100cf565b80638da5cb5b14610164578063c371472314610179578063d3c9cc2614610199576100cf565b806302209d96146100d457806306498e60146100fd5780631b68d10d1461011d5780636b5b8808146101255780636c92d0d11461013a578063715018a61461015c575b600080fd5b6100e76100e23660046112cc565b610214565b6040516100f491906117b1565b60405180910390f35b61011061010b366004611440565b6102e2565b6040516100f4919061155c565b6100e76104a3565b610138610133366004611412565b6104a9565b005b61014d610148366004611292565b6106d3565b6040516100f4939291906115a9565b6101386109da565b61016c610a59565b6040516100f49190611548565b61018c610187366004611246565b610a68565b6040516100f491906115ec565b6101106101a73660046113b6565b610b73565b6101386101ba366004611412565b610c04565b6101d26101cd3660046113e6565b610eaf565b6040516100f491906115ff565b6101386101ed36600461122b565b610f1d565b6102056102003660046113b6565b610fd3565b6040516100f4939291906117ea565b600061021e61107f565b6000546001600160a01b039081169116146102545760405162461bcd60e51b815260040161024b906116cf565b60405180910390fd5b6002805460019081019182905560008281526020828152604090912092835584516102869390920191908501906110fa565b506002805460009081526001602052604080822060040191909155905490517fa35fec3c33a3546583876608bc467b00398be7ad08a751bff377f3636e1d45b8916102d29185906117d1565b60405180910390a1505060025490565b60606002548411156103065760405162461bcd60e51b815260040161024b9061177a565b6000848152600160205260409020600201548311801590610337575060008481526001602052604090206002015482105b6103535760405162461bcd60e51b815260040161024b90611698565b818311156103735760405162461bcd60e51b815260040161024b90611650565b8282036001016001600160401b038111801561038e57600080fd5b506040519080825280602002602001820160405280156103b8578160200160208202803683370190505b5090506000835b83811161049a576001600087815260016020526040812060028101805460039092019291859081106103ed57fe5b60009182526020808320909101546001600160a01b0316835282019290925260400190205460ff16600181111561042057fe5b141561049257600086815260016020526040902060020180548290811061044357fe5b9060005260206000200160009054906101000a90046001600160a01b0316838363ffffffff168151811061047357fe5b6001600160a01b03909216602092830291909101909101526001909101905b6001016103bf565b50509392505050565b60025481565b6104b161107f565b6000546001600160a01b039081169116146104de5760405162461bcd60e51b815260040161024b906116cf565b6002548211156105005760405162461bcd60e51b815260040161024b9061177a565b60005b81518163ffffffff1610156106ce5760018060008581526020019081526020016000206003016000848463ffffffff168151811061053d57fe5b6020908102919091018101516001600160a01b031682528101919091526040016000205460ff16600181111561056f57fe5b141561058d5760405162461bcd60e51b815260040161024b90611704565b60016000848152602001908152602001600020600201828263ffffffff16815181106105b557fe5b602090810291909101810151825460018082018555600094855283852090910180546001600160a01b0319166001600160a01b0390931692909217909155858352908190526040822084519192600390910191859063ffffffff861690811061061a57fe5b6020908102919091018101516001600160a01b03168252810191909152604001600020805460ff19166001838181111561065057fe5b021790555060008381526001602081905260409091206004018054909101905581517f374195d639167721eee596157426d922ffedad376d1ec774751088e8de1dcd0d908490849063ffffffff85169081106106a857fe5b60200260200101516040516106be9291906117ba565b60405180910390a1600101610503565b505050565b606080606083516001600160401b03811180156106ef57600080fd5b5060405190808252806020026020018201604052801561072357816020015b606081526020019060019003908161070e5790505b50925083516001600160401b038111801561073d57600080fd5b5060405190808252806020026020018201604052801561077157816020015b606081526020019060019003908161075c5790505b50915083516001600160401b038111801561078b57600080fd5b506040519080825280602002602001820160405280156107b5578160200160208202803683370190505b50905060005b84518163ffffffff1610156109d257848163ffffffff16815181106107dc57fe5b60200260200101516001600160a01b03166306fdde036040518163ffffffff1660e01b815260040160006040518083038186803b15801561081c57600080fd5b505afa158015610830573d6000803e3d6000fd5b505050506040513d6000823e601f3d908101601f191682016040526108589190810190611344565b848263ffffffff168151811061086a57fe5b6020026020010181905250848163ffffffff168151811061088757fe5b60200260200101516001600160a01b03166395d89b416040518163ffffffff1660e01b815260040160006040518083038186803b1580156108c757600080fd5b505afa1580156108db573d6000803e3d6000fd5b505050506040513d6000823e601f3d908101601f191682016040526109039190810190611344565b838263ffffffff168151811061091557fe5b6020026020010181905250848163ffffffff168151811061093257fe5b60200260200101516001600160a01b031663313ce5676040518163ffffffff1660e01b815260040160206040518083038186803b15801561097257600080fd5b505afa158015610986573d6000803e3d6000fd5b505050506040513d601f19601f820116820180604052508101906109aa919061146b565b60ff16828263ffffffff16815181106109bf57fe5b60209081029190910101526001016107bb565b509193909250565b6109e261107f565b6000546001600160a01b03908116911614610a0f5760405162461bcd60e51b815260040161024b906116cf565b600080546040516001600160a01b03909116907f8be0079c531659141344cd1fd0a4f28419497f9722a3daafe3b4186f6b6457e0908390a3600080546001600160a01b0319169055565b6000546001600160a01b031690565b60608082516001600160401b0381118015610a8257600080fd5b50604051908082528060200260200182016040528015610aac578160200160208202803683370190505b50905060005b8351811015610b6957838181518110610ac757fe5b60200260200101516001600160a01b03166370a08231866040518263ffffffff1660e01b8152600401610afa9190611548565b60206040518083038186803b158015610b1257600080fd5b505afa158015610b26573d6000803e3d6000fd5b505050506040513d601f19601f82011682018060405250810190610b4a91906113ce565b828281518110610b5657fe5b6020908102919091010152600101610ab2565b5090505b92915050565b6060600254821115610b975760405162461bcd60e51b815260040161024b9061177a565b60008281526001602090815260409182902060020180548351818402810184019094528084529091830182828015610bf857602002820191906000526020600020905b81546001600160a01b03168152600190910190602001808311610bda575b50505050509050919050565b610c0c61107f565b6000546001600160a01b03908116911614610c395760405162461bcd60e51b815260040161024b906116cf565b600254821115610c5b5760405162461bcd60e51b815260040161024b9061177a565b60005b81518163ffffffff1610156106ce5760018060008581526020019081526020016000206003016000848463ffffffff1681518110610c9857fe5b6020908102919091018101516001600160a01b031682528101919091526040016000205460ff166001811115610cca57fe5b14610ce75760405162461bcd60e51b815260040161024b90611745565b6000600160008581526020019081526020016000206003016000848463ffffffff1681518110610d1357fe5b6020908102919091018101516001600160a01b03168252810191909152604001600020805460ff191660018381811115610d4957fe5b02179055506000610d7384848463ffffffff1681518110610d6657fe5b6020026020010151611083565b60008581526001602052604090206002018054919250906000198101908110610d9857fe5b60009182526020808320909101548683526001909152604090912060020180546001600160a01b039092169183908110610dce57fe5b600091825260208083209190910180546001600160a01b0319166001600160a01b039490941693909317909255858152600190915260409020600201805480610e1357fe5b60008281526020808220830160001990810180546001600160a01b0319169055928301909355868152600190925260409091206004018054909101905582517fcadf6fd3968e653eef0f298763a80925d054059a599c46fadf9d319d9653bd86908590859063ffffffff8616908110610e8857fe5b6020026020010151604051610e9e9291906117ba565b60405180910390a150600101610c5e565b6000600254831115610ed35760405162461bcd60e51b815260040161024b9061177a565b60008381526001602081815260408084206001600160a01b03871685526003019091529091205460ff1681811115610f0757fe5b14610f13576000610f16565b60015b9392505050565b610f2561107f565b6000546001600160a01b03908116911614610f525760405162461bcd60e51b815260040161024b906116cf565b6001600160a01b038116610f785760405162461bcd60e51b815260040161024b9061160a565b600080546040516001600160a01b03808516939216917f8be0079c531659141344cd1fd0a4f28419497f9722a3daafe3b4186f6b6457e091a3600080546001600160a01b0319166001600160a01b0392909216919091179055565b600160208181526000928352604092839020805481840180548651600296821615610100026000190190911695909504601f8101859004850286018501909652858552909491939290919083018282801561106f5780601f106110445761010080835404028352916020019161106f565b820191906000526020600020905b81548152906001019060200180831161105257829003601f168201915b5050505050908060040154905083565b3390565b6000805b6000848152600160205260409020600201548110156110f357600084815260016020526040902060020180546001600160a01b0385169190839081106110c957fe5b6000918252602090912001546001600160a01b031614156110eb579050610b6d565b600101611087565b5092915050565b828054600181600116156101000203166002900490600052602060002090601f016020900481019282601f1061113b57805160ff1916838001178555611168565b82800160010185558215611168579182015b8281111561116857825182559160200191906001019061114d565b50611174929150611178565b5090565b5b808211156111745760008155600101611179565b80356001600160a01b0381168114610b6d57600080fd5b600082601f8301126111b4578081fd5b81356001600160401b038111156111c9578182fd5b60208082026111d9828201611813565b838152935081840185830182870184018810156111f557600080fd5b600092505b848310156112205761120c888261118d565b8252600192909201919083019083016111fa565b505050505092915050565b60006020828403121561123c578081fd5b610f16838361118d565b60008060408385031215611258578081fd5b611262848461118d565b915060208301356001600160401b0381111561127c578182fd5b611288858286016111a4565b9150509250929050565b6000602082840312156112a3578081fd5b81356001600160401b038111156112b8578182fd5b6112c4848285016111a4565b949350505050565b6000602082840312156112dd578081fd5b81356001600160401b038111156112f2578182fd5b8201601f81018413611302578182fd5b803561131561131082611839565b611813565b818152856020838501011115611329578384fd5b81602084016020830137908101602001929092525092915050565b600060208284031215611355578081fd5b81516001600160401b0381111561136a578182fd5b8201601f8101841361137a578182fd5b805161138861131082611839565b81815285602083850101111561139c578384fd5b6113ad82602083016020860161185c565b95945050505050565b6000602082840312156113c7578081fd5b5035919050565b6000602082840312156113df578081fd5b5051919050565b600080604083850312156113f8578182fd5b82359150611409846020850161118d565b90509250929050565b60008060408385031215611424578182fd5b8235915060208301356001600160401b0381111561127c578182fd5b600080600060608486031215611454578081fd5b505081359360208301359350604090920135919050565b60006020828403121561147c578081fd5b815160ff81168114610f16578182fd5b60008282518085526020808601955080818302840101818601855b848110156114d557601f198684030189526114c383835161151c565b988401989250908301906001016114a7565b5090979650505050505050565b6000815180845260208085019450808401835b83811015611511578151875295820195908201906001016114f5565b509495945050505050565b6000815180845261153481602086016020860161185c565b601f01601f19169290920160200192915050565b6001600160a01b0391909116815260200190565b6020808252825182820181905260009190848201906040850190845b8181101561159d5783516001600160a01b031683529284019291840191600101611578565b50909695505050505050565b6000606082526115bc606083018661148c565b82810360208401526115ce818661148c565b905082810360408401526115e281856114e2565b9695505050505050565b600060208252610f1660208301846114e2565b901515815260200190565b60208082526026908201527f4f776e61626c653a206e6577206f776e657220697320746865207a65726f206160408201526564647265737360d01b606082015260800190565b60208082526028908201527f4458546f6b656e5265676973747279203a20494e56414c49445f494e5645525460408201526745445f52414e474560c01b606082015260800190565b6020808252601f908201527f4458546f6b656e5265676973747279203a20494e56414c49445f52414e474500604082015260600190565b6020808252818101527f4f776e61626c653a2063616c6c6572206973206e6f7420746865206f776e6572604082015260600190565b60208082526021908201527f4458546f6b656e5265676973747279203a204455504c49434154455f544f4b456040820152602760f91b606082015260800190565b6020808252818101527f4458546f6b656e5265676973747279203a20494e4143544956455f544f4b454e604082015260600190565b6020808252601e908201527f4458546f6b656e5265676973747279203a20494e56414c49445f4c4953540000604082015260600190565b90815260200190565b9182526001600160a01b0316602082015260400190565b6000838252604060208301526112c4604083018461151c565b600084825260606020830152611803606083018561151c565b9050826040830152949350505050565b6040518181016001600160401b038111828210171561183157600080fd5b604052919050565b60006001600160401b0382111561184e578081fd5b50601f01601f191660200190565b60005b8381101561187757818101518382015260200161185f565b83811115611886576000848401525b5050505056fea26469706673582212207094c5156448b6eafc8d28c3ad93fe9c09c38bc0d2d6bc4c9e1870f2dfdd0b8564736f6c634300060c0033",
  "immutableReferences": {},
  "source": "pragma solidity >=0.6.2;\npragma experimental ABIEncoderV2;\n\nimport '@openzeppelin/contracts/access/Ownable.sol';\nimport '@openzeppelin/contracts/token/ERC20/ERC20.sol';\n\n\n/// @title dxDAO Token Multi-Registry\n/// @notice Maintains multiple token lists, curated by the DAO\ncontract DXTokenRegistry is Ownable {\n    event AddList(uint256 listId, string listName);\n    event AddToken(uint256 listId, address token);\n    event RemoveToken(uint256 listId, address token);\n\n    enum TokenStatus {NULL, ACTIVE}\n\n    struct TCR {\n        uint256 listId;\n        string listName;\n        address[] tokens;\n        mapping(address => TokenStatus) status;\n        uint256 activeTokenCount;\n    }\n\n    mapping(uint256 => TCR) public tcrs;\n    uint256 public listCount;\n\n    /// @notice Add new token list.\n    /// @param _listName Name of new list.\n    /// @return New list ID.\n    function addList(string memory _listName) public onlyOwner returns (uint256) {\n        listCount++;\n        tcrs[listCount].listId = listCount;\n        tcrs[listCount].listName = _listName;\n        tcrs[listCount].activeTokenCount = 0;\n        emit AddList(listCount, _listName);\n        return listCount;\n    }\n\n    /// @notice The owner can add new token(s) to existing list, by address.\n    /// @dev Attempting to add token addresses which are already in the list will cause revert.\n    /// @param _listId ID of list to add new tokens.\n    /// @param _tokens Array of token addresses to add.\n    function addTokens(uint256 _listId, address[] memory _tokens) public onlyOwner {\n        require(_listId <= listCount, 'DXTokenRegistry : INVALID_LIST');\n        for (uint32 i = 0; i < _tokens.length; i++) {\n            require(\n                tcrs[_listId].status[_tokens[i]] != TokenStatus.ACTIVE,\n                'DXTokenRegistry : DUPLICATE_TOKEN'\n            );\n            tcrs[_listId].tokens.push(_tokens[i]);\n            tcrs[_listId].status[_tokens[i]] = TokenStatus.ACTIVE;\n            tcrs[_listId].activeTokenCount++;\n            emit AddToken(_listId, _tokens[i]);\n        }\n    }\n\n    /// @notice The owner can remove token(s) on existing list, by address.\n    /// @dev Attempting to remove token addresses which are not active, or not present in the list, will cause revert.\n    /// @param _listId ID of list to remove tokens from.\n    /// @param _tokens Array of token addresses to remove.\n    function removeTokens(uint256 _listId, address[] memory _tokens) public onlyOwner {\n        require(_listId <= listCount, 'DXTokenRegistry : INVALID_LIST');\n        for (uint32 i = 0; i < _tokens.length; i++) {\n            require(\n                tcrs[_listId].status[_tokens[i]] == TokenStatus.ACTIVE,\n                'DXTokenRegistry : INACTIVE_TOKEN'\n            );\n            tcrs[_listId].status[_tokens[i]] = TokenStatus.NULL;\n            uint256 tokenIndex = getTokenIndex(_listId, _tokens[i]);\n            tcrs[_listId].tokens[tokenIndex] = tcrs[_listId].tokens[tcrs[_listId].tokens.length -\n                1];\n            tcrs[_listId].tokens.pop();\n            tcrs[_listId].activeTokenCount--;\n            emit RemoveToken(_listId, _tokens[i]);\n        }\n    }\n\n    /// @notice Get all tokens tracked by a token list\n    /// @param _listId ID of list to get tokens from.\n    /// @return Array of token addresses tracked by list.\n    function getTokens(uint256 _listId) public view returns (address[] memory) {\n        require(_listId <= listCount, 'DXTokenRegistry : INVALID_LIST');\n        return tcrs[_listId].tokens;\n    }\n\n    /// @notice Get active tokens from a list, within a specified index range.\n    /// @param _listId ID of list to get tokens from.\n    /// @param _start Start index.\n    /// @param _end End index.\n    /// @return tokensRange Array of active token addresses in index range.\n    function getTokensRange(\n        uint256 _listId,\n        uint256 _start,\n        uint256 _end\n    ) public view returns (address[] memory tokensRange) {\n        require(_listId <= listCount, 'DXTokenRegistry : INVALID_LIST');\n        require(\n            _start <= tcrs[_listId].tokens.length && _end < tcrs[_listId].tokens.length,\n            'DXTokenRegistry : INVALID_RANGE'\n        );\n        require(_start <= _end, 'DXTokenRegistry : INVALID_INVERTED_RANGE');\n        tokensRange = new address[](_end - _start + 1);\n        uint32 activeCount = 0;\n        for (uint256 i = _start; i <= _end; i++) {\n            if (tcrs[_listId].status[tcrs[_listId].tokens[i]] == TokenStatus.ACTIVE) {\n                tokensRange[activeCount] = tcrs[_listId].tokens[i];\n                activeCount++;\n            }\n        }\n    }\n\n    /// @notice Check if list has a given token address active.\n    /// @param _listId ID of list to get tokens from.\n    /// @param _token Token address to check.\n    /// @return Active status of given token address in list.\n    function isTokenActive(uint256 _listId, address _token) public view returns (bool) {\n        require(_listId <= listCount, 'DXTokenRegistry : INVALID_LIST');\n        return tcrs[_listId].status[_token] == TokenStatus.ACTIVE ? true : false;\n    }\n\n    /// @notice Returns the array index of a given token address\n    /// @param _listId ID of list to get tokens from.\n    /// @param _token Token address to check.\n    /// @return index position of given token address in list.\n    function getTokenIndex(uint256 _listId, address _token) internal view returns (uint256) {\n        for (uint256 i = 0; i < tcrs[_listId].tokens.length; i++) {\n            if (tcrs[_listId].tokens[i] == _token) {\n                return i;\n            }\n        }\n    }\n\n    /// @notice Convenience method to get ERC20 metadata for given tokens.\n    /// @param _tokens Array of token addresses.\n    /// @return names for each token.\n    /// @return symbols for each token.\n    /// @return decimals for each token.\n    function getTokensData(address[] memory _tokens)\n        public\n        view\n        returns (\n            string[] memory names,\n            string[] memory symbols,\n            uint256[] memory decimals\n        )\n    {\n        names = new string[](_tokens.length);\n        symbols = new string[](_tokens.length);\n        decimals = new uint256[](_tokens.length);\n        for (uint32 i = 0; i < _tokens.length; i++) {\n            names[i] = ERC20(_tokens[i]).name();\n            symbols[i] = ERC20(_tokens[i]).symbol();\n            decimals[i] = ERC20(_tokens[i]).decimals();\n        }\n    }\n\n    /// @notice Convenience method to get account balances for given tokens.\n    /// @param _trader Account to check balances for.\n    /// @param _assetAddresses Array of token addresses.\n    /// @return Account balances for each token.\n    function getExternalBalances(address _trader, address[] memory _assetAddresses)\n        public\n        view\n        returns (uint256[] memory)\n    {\n        uint256[] memory balances = new uint256[](_assetAddresses.length);\n        for (uint256 i = 0; i < _assetAddresses.length; i++) {\n            balances[i] = ERC20(_assetAddresses[i]).balanceOf(_trader);\n        }\n        return balances;\n    }\n}\n",
  "sourcePath": "dxdao-token-registry/contracts/dxTokenRegistry.sol",
  "compiler": {
    "name": "solc",
    "version": "0.6.12+commit.27d51765.Emscripten.clang"
  },
  "schemaVersion": "3.3.3",
  "updatedAt": "2020-12-31T16:20:59.821Z",
  "devdoc": {
    "kind": "dev",
    "methods": {
      "addList(string)": {
        "params": {
          "_listName": "Name of new list."
        },
        "returns": {
          "_0": "New list ID."
        }
      },
      "addTokens(uint256,address[])": {
        "details": "Attempting to add token addresses which are already in the list will cause revert.",
        "params": {
          "_listId": "ID of list to add new tokens.",
          "_tokens": "Array of token addresses to add."
        }
      },
      "getExternalBalances(address,address[])": {
        "params": {
          "_assetAddresses": "Array of token addresses.",
          "_trader": "Account to check balances for."
        },
        "returns": {
          "_0": "Account balances for each token."
        }
      },
      "getTokens(uint256)": {
        "params": {
          "_listId": "ID of list to get tokens from."
        },
        "returns": {
          "_0": "Array of token addresses tracked by list."
        }
      },
      "getTokensData(address[])": {
        "params": {
          "_tokens": "Array of token addresses."
        },
        "returns": {
          "decimals": "for each token.",
          "names": "for each token.",
          "symbols": "for each token."
        }
      },
      "getTokensRange(uint256,uint256,uint256)": {
        "params": {
          "_end": "End index.",
          "_listId": "ID of list to get tokens from.",
          "_start": "Start index."
        },
        "returns": {
          "tokensRange": "Array of active token addresses in index range."
        }
      },
      "isTokenActive(uint256,address)": {
        "params": {
          "_listId": "ID of list to get tokens from.",
          "_token": "Token address to check."
        },
        "returns": {
          "_0": "Active status of given token address in list."
        }
      },
      "owner()": {
        "details": "Returns the address of the current owner."
      },
      "removeTokens(uint256,address[])": {
        "details": "Attempting to remove token addresses which are not active, or not present in the list, will cause revert.",
        "params": {
          "_listId": "ID of list to remove tokens from.",
          "_tokens": "Array of token addresses to remove."
        }
      },
      "renounceOwnership()": {
        "details": "Leaves the contract without owner. It will not be possible to call `onlyOwner` functions anymore. Can only be called by the current owner. NOTE: Renouncing ownership will leave the contract without an owner, thereby removing any functionality that is only available to the owner."
      },
      "transferOwnership(address)": {
        "details": "Transfers ownership of the contract to a new account (`newOwner`). Can only be called by the current owner."
      }
    },
    "title": "dxDAO Token Multi-Registry",
    "version": 1
  },
  "userdoc": {
    "kind": "user",
    "methods": {
      "addList(string)": {
        "notice": "Add new token list."
      },
      "addTokens(uint256,address[])": {
        "notice": "The owner can add new token(s) to existing list, by address."
      },
      "getExternalBalances(address,address[])": {
        "notice": "Convenience method to get account balances for given tokens."
      },
      "getTokens(uint256)": {
        "notice": "Get all tokens tracked by a token list"
      },
      "getTokensData(address[])": {
        "notice": "Convenience method to get ERC20 metadata for given tokens."
      },
      "getTokensRange(uint256,uint256,uint256)": {
        "notice": "Get active tokens from a list, within a specified index range."
      },
      "isTokenActive(uint256,address)": {
        "notice": "Check if list has a given token address active."
      },
      "removeTokens(uint256,address[])": {
        "notice": "The owner can remove token(s) on existing list, by address."
      }
    },
    "notice": "Maintains multiple token lists, curated by the DAO",
    "version": 1
  }
}