{
  "contractName": "ERC20Distribution",
  "abi": [
    {
      "anonymous": false,
      "inputs": [],
      "name": "Canceled",
      "type": "event"
    },
    {
      "anonymous": false,
      "inputs": [
        {
          "indexed": true,
          "internalType": "address",
          "name": "claimer",
          "type": "address"
        },
        {
          "indexed": false,
          "internalType": "uint256[]",
          "name": "amounts",
          "type": "uint256[]"
        }
      ],
      "name": "Claimed",
      "type": "event"
    },
    {
      "anonymous": false,
      "inputs": [
        {
          "indexed": false,
          "internalType": "address[]",
          "name": "rewardsTokenAddresses",
          "type": "address[]"
        },
        {
          "indexed": false,
          "internalType": "address[]",
          "name": "stakableTokenAddresses",
          "type": "address[]"
        },
        {
          "indexed": false,
          "internalType": "uint256[]",
          "name": "rewardsAmounts",
          "type": "uint256[]"
        },
        {
          "indexed": false,
          "internalType": "uint64",
          "name": "startingTimestamp",
          "type": "uint64"
        },
        {
          "indexed": false,
          "internalType": "uint64",
          "name": "endingTimestamp",
          "type": "uint64"
        },
        {
          "indexed": false,
          "internalType": "bool",
          "name": "locked",
          "type": "bool"
        }
      ],
      "name": "Initialized",
      "type": "event"
    },
    {
      "anonymous": false,
      "inputs": [
        {
          "indexed": true,
          "internalType": "address",
          "name": "previousOwner",
          "type": "address"
        },
        {
          "indexed": true,
          "internalType": "address",
          "name": "newOwner",
          "type": "address"
        }
      ],
      "name": "OwnershipTransferred",
      "type": "event"
    },
    {
      "anonymous": false,
      "inputs": [
        {
          "indexed": false,
          "internalType": "uint256[]",
          "name": "amounts",
          "type": "uint256[]"
        }
      ],
      "name": "Recovered",
      "type": "event"
    },
    {
      "anonymous": false,
      "inputs": [
        {
          "indexed": true,
          "internalType": "address",
          "name": "staker",
          "type": "address"
        },
        {
          "indexed": false,
          "internalType": "uint256[]",
          "name": "amounts",
          "type": "uint256[]"
        }
      ],
      "name": "Staked",
      "type": "event"
    },
    {
      "anonymous": false,
      "inputs": [
        {
          "indexed": true,
          "internalType": "address",
          "name": "withdrawer",
          "type": "address"
        },
        {
          "indexed": false,
          "internalType": "uint256[]",
          "name": "amounts",
          "type": "uint256[]"
        }
      ],
      "name": "Withdrawn",
      "type": "event"
    },
    {
      "inputs": [
        {
          "internalType": "address",
          "name": "",
          "type": "address"
        },
        {
          "internalType": "address",
          "name": "",
          "type": "address"
        }
      ],
      "name": "claimedReward",
      "outputs": [
        {
          "internalType": "uint256",
          "name": "",
          "type": "uint256"
        }
      ],
      "stateMutability": "view",
      "type": "function"
    },
    {
      "inputs": [
        {
          "internalType": "address",
          "name": "",
          "type": "address"
        },
        {
          "internalType": "address",
          "name": "",
          "type": "address"
        }
      ],
      "name": "consolidatedRewardsPerStakedToken",
      "outputs": [
        {
          "internalType": "uint256",
          "name": "",
          "type": "uint256"
        }
      ],
      "stateMutability": "view",
      "type": "function"
    },
    {
      "inputs": [
        {
          "internalType": "address",
          "name": "",
          "type": "address"
        },
        {
          "internalType": "address",
          "name": "",
          "type": "address"
        }
      ],
      "name": "earnedRewards",
      "outputs": [
        {
          "internalType": "uint256",
          "name": "",
          "type": "uint256"
        }
      ],
      "stateMutability": "view",
      "type": "function"
    },
    {
      "inputs": [],
      "name": "endingTimestamp",
      "outputs": [
        {
          "internalType": "uint64",
          "name": "",
          "type": "uint64"
        }
      ],
      "stateMutability": "view",
      "type": "function"
    },
    {
      "inputs": [],
      "name": "initialized",
      "outputs": [
        {
          "internalType": "bool",
          "name": "",
          "type": "bool"
        }
      ],
      "stateMutability": "view",
      "type": "function"
    },
    {
      "inputs": [],
      "name": "lastConsolidationTimestamp",
      "outputs": [
        {
          "internalType": "uint64",
          "name": "",
          "type": "uint64"
        }
      ],
      "stateMutability": "view",
      "type": "function"
    },
    {
      "inputs": [],
      "name": "locked",
      "outputs": [
        {
          "internalType": "bool",
          "name": "",
          "type": "bool"
        }
      ],
      "stateMutability": "view",
      "type": "function"
    },
    {
      "inputs": [],
      "name": "owner",
      "outputs": [
        {
          "internalType": "address",
          "name": "",
          "type": "address"
        }
      ],
      "stateMutability": "view",
      "type": "function"
    },
    {
      "inputs": [
        {
          "internalType": "address",
          "name": "",
          "type": "address"
        }
      ],
      "name": "recoverableUnassignedReward",
      "outputs": [
        {
          "internalType": "uint256",
          "name": "",
          "type": "uint256"
        }
      ],
      "stateMutability": "view",
      "type": "function"
    },
    {
      "inputs": [],
      "name": "renounceOwnership",
      "outputs": [],
      "stateMutability": "nonpayable",
      "type": "function"
    },
    {
      "inputs": [
        {
          "internalType": "address",
          "name": "",
          "type": "address"
        }
      ],
      "name": "rewardAmount",
      "outputs": [
        {
          "internalType": "uint256",
          "name": "",
          "type": "uint256"
        }
      ],
      "stateMutability": "view",
      "type": "function"
    },
    {
      "inputs": [
        {
          "internalType": "address",
          "name": "",
          "type": "address"
        }
      ],
      "name": "rewardPerSecond",
      "outputs": [
        {
          "internalType": "uint256",
          "name": "",
          "type": "uint256"
        }
      ],
      "stateMutability": "view",
      "type": "function"
    },
    {
      "inputs": [
        {
          "internalType": "address",
          "name": "",
          "type": "address"
        }
      ],
      "name": "rewardPerStakedToken",
      "outputs": [
        {
          "internalType": "uint256",
          "name": "",
          "type": "uint256"
        }
      ],
      "stateMutability": "view",
      "type": "function"
    },
    {
      "inputs": [
        {
          "internalType": "address",
          "name": "",
          "type": "address"
        }
      ],
      "name": "rewardTokenMultiplier",
      "outputs": [
        {
          "internalType": "uint256",
          "name": "",
          "type": "uint256"
        }
      ],
      "stateMutability": "view",
      "type": "function"
    },
    {
      "inputs": [
        {
          "internalType": "uint256",
          "name": "",
          "type": "uint256"
        }
      ],
      "name": "rewardTokens",
      "outputs": [
        {
          "internalType": "contract ERC20",
          "name": "",
          "type": "address"
        }
      ],
      "stateMutability": "view",
      "type": "function"
    },
    {
      "inputs": [
        {
          "internalType": "uint256",
          "name": "",
          "type": "uint256"
        }
      ],
      "name": "stakableTokens",
      "outputs": [
        {
          "internalType": "contract ERC20",
          "name": "",
          "type": "address"
        }
      ],
      "stateMutability": "view",
      "type": "function"
    },
    {
      "inputs": [
        {
          "internalType": "address",
          "name": "",
          "type": "address"
        }
      ],
      "name": "stakedTokenAmount",
      "outputs": [
        {
          "internalType": "uint256",
          "name": "",
          "type": "uint256"
        }
      ],
      "stateMutability": "view",
      "type": "function"
    },
    {
      "inputs": [
        {
          "internalType": "address",
          "name": "",
          "type": "address"
        },
        {
          "internalType": "address",
          "name": "",
          "type": "address"
        }
      ],
      "name": "stakedTokensOf",
      "outputs": [
        {
          "internalType": "uint256",
          "name": "",
          "type": "uint256"
        }
      ],
      "stateMutability": "view",
      "type": "function"
    },
    {
      "inputs": [],
      "name": "startingTimestamp",
      "outputs": [
        {
          "internalType": "uint64",
          "name": "",
          "type": "uint64"
        }
      ],
      "stateMutability": "view",
      "type": "function"
    },
    {
      "inputs": [],
      "name": "totalStakedTokensAmount",
      "outputs": [
        {
          "internalType": "uint256",
          "name": "",
          "type": "uint256"
        }
      ],
      "stateMutability": "view",
      "type": "function"
    },
    {
      "inputs": [
        {
          "internalType": "address",
          "name": "",
          "type": "address"
        }
      ],
      "name": "totalStakedTokensOf",
      "outputs": [
        {
          "internalType": "uint256",
          "name": "",
          "type": "uint256"
        }
      ],
      "stateMutability": "view",
      "type": "function"
    },
    {
      "inputs": [
        {
          "internalType": "address",
          "name": "newOwner",
          "type": "address"
        }
      ],
      "name": "transferOwnership",
      "outputs": [],
      "stateMutability": "nonpayable",
      "type": "function"
    },
    {
      "inputs": [],
      "name": "getRewardTokens",
      "outputs": [
        {
          "internalType": "contract ERC20[]",
          "name": "",
          "type": "address[]"
        }
      ],
      "stateMutability": "view",
      "type": "function"
    },
    {
      "inputs": [],
      "name": "getStakableTokens",
      "outputs": [
        {
          "internalType": "contract ERC20[]",
          "name": "",
          "type": "address[]"
        }
      ],
      "stateMutability": "view",
      "type": "function"
    },
    {
      "inputs": [
        {
          "internalType": "address[]",
          "name": "_rewardTokenAddresses",
          "type": "address[]"
        },
        {
          "internalType": "address[]",
          "name": "_stakableTokenAddresses",
          "type": "address[]"
        },
        {
          "internalType": "uint256[]",
          "name": "_rewardAmounts",
          "type": "uint256[]"
        },
        {
          "internalType": "uint64",
          "name": "_startingTimestamp",
          "type": "uint64"
        },
        {
          "internalType": "uint64",
          "name": "_endingTimestamp",
          "type": "uint64"
        },
        {
          "internalType": "bool",
          "name": "_locked",
          "type": "bool"
        }
      ],
      "name": "initialize",
      "outputs": [],
      "stateMutability": "nonpayable",
      "type": "function"
    },
    {
      "inputs": [],
      "name": "cancel",
      "outputs": [],
      "stateMutability": "nonpayable",
      "type": "function"
    },
    {
      "inputs": [],
      "name": "recoverUnassignedRewards",
      "outputs": [],
      "stateMutability": "nonpayable",
      "type": "function"
    },
    {
      "inputs": [
        {
          "internalType": "uint256[]",
          "name": "_amounts",
          "type": "uint256[]"
        }
      ],
      "name": "stake",
      "outputs": [],
      "stateMutability": "nonpayable",
      "type": "function"
    },
    {
      "inputs": [
        {
          "internalType": "uint256[]",
          "name": "_amounts",
          "type": "uint256[]"
        }
      ],
      "name": "withdraw",
      "outputs": [],
      "stateMutability": "nonpayable",
      "type": "function"
    },
    {
      "inputs": [],
      "name": "claim",
      "outputs": [],
      "stateMutability": "nonpayable",
      "type": "function"
    },
    {
      "inputs": [],
      "name": "consolidateReward",
      "outputs": [],
      "stateMutability": "nonpayable",
      "type": "function"
    }
  ],
  "bytecode": "0x608060405234801561001057600080fd5b50600061001b61006a565b600080546001600160a01b0319166001600160a01b0383169081178255604051929350917f8be0079c531659141344cd1fd0a4f28419497f9722a3daafe3b4186f6b6457e0908290a35061006e565b3390565b612b368061007d6000396000f3fe608060405234801561001057600080fd5b50600436106101e55760003560e01c8063867b2f271161010f578063c4f59f9b116100a2578063e66d85be11610071578063e66d85be146106d5578063ea8a1af0146106fb578063ebbf95e114610703578063f2fde38b1461070b576101e5565b8063c4f59f9b14610647578063cf3090121461069f578063e31a384f146106a7578063e644067d146106cd576101e5565b806398f81230116100de57806398f81230146104e8578063b10789541461050e578063b41fa97914610637578063c10de3001461063f576101e5565b8063867b2f2714610444578063887862721461046a5780638da5cb5b14610472578063983d95ce1461047a576101e5565b80635541559211610187578063715018a611610156578063715018a6146103c3578063728e4a67146103cb57806375b8dbf8146103f95780637bb7bed114610427576101e5565b806355415592146103435780635e5294b714610371578063645a8a56146103955780636715dcb8146103bb576101e5565b80633b34ee50116101c35780633b34ee50146102b6578063407f2932146102dc57806348895a9c146103155780634e71d92d1461033b576101e5565b80630fbf0a93146101ea578063158ef93e1461025a57806334380a6114610276575b600080fd5b6102586004803603602081101561020057600080fd5b810190602081018135600160201b81111561021a57600080fd5b82018360208201111561022c57600080fd5b803590602001918460208302840111600160201b8311171561024d57600080fd5b509092509050610731565b005b610262610a3a565b604080519115158252519081900360200190f35b6102a46004803603604081101561028c57600080fd5b506001600160a01b0381358116916020013516610a4a565b60408051918252519081900360200190f35b6102a4600480360360208110156102cc57600080fd5b50356001600160a01b0316610a67565b6102f9600480360360208110156102f257600080fd5b5035610a79565b604080516001600160a01b039092168252519081900360200190f35b6102a46004803603602081101561032b57600080fd5b50356001600160a01b0316610aa0565b610258610ab2565b6102a46004803603604081101561035957600080fd5b506001600160a01b0381358116916020013516610d1e565b610379610d3b565b604080516001600160401b039092168252519081900360200190f35b6102a4600480360360208110156103ab57600080fd5b50356001600160a01b0316610d51565b610258610d63565b6102586110c5565b6102a4600480360360408110156103e157600080fd5b506001600160a01b0381358116916020013516611167565b6102a46004803603604081101561040f57600080fd5b506001600160a01b0381358116916020013516611184565b6102f96004803603602081101561043d57600080fd5b50356111a1565b6102a46004803603602081101561045a57600080fd5b50356001600160a01b03166111ae565b6103796111c0565b6102f96111cf565b6102586004803603602081101561049057600080fd5b810190602081018135600160201b8111156104aa57600080fd5b8201836020820111156104bc57600080fd5b803590602001918460208302840111600160201b831117156104dd57600080fd5b5090925090506111de565b6102a4600480360360208110156104fe57600080fd5b50356001600160a01b031661152e565b610258600480360360c081101561052457600080fd5b810190602081018135600160201b81111561053e57600080fd5b82018360208201111561055057600080fd5b803590602001918460208302840111600160201b8311171561057157600080fd5b919390929091602081019035600160201b81111561058e57600080fd5b8201836020820111156105a057600080fd5b803590602001918460208302840111600160201b831117156105c157600080fd5b919390929091602081019035600160201b8111156105de57600080fd5b8201836020820111156105f057600080fd5b803590602001918460208302840111600160201b8311171561061157600080fd5b91935091506001600160401b038135811691602081013590911690604001351515611540565b6102a4611bb8565b610379611bbe565b61064f611bd4565b60408051602080825283518183015283519192839290830191858101910280838360005b8381101561068b578181015183820152602001610673565b505050509050019250505060405180910390f35b610262611c36565b6102a4600480360360208110156106bd57600080fd5b50356001600160a01b0316611c46565b610258611c58565b6102a4600480360360208110156106eb57600080fd5b50356001600160a01b0316611e54565b610258611e66565b61064f612029565b6102586004803603602081101561072157600080fd5b50356001600160a01b0316612089565b600954600160881b900460ff166107795760405162461bcd60e51b8152600401808060200182810382526022815260200180612a456022913960400191505060405180910390fd5b600954600160881b900460ff16801561079d57506009546001600160401b03164210155b6107dc576040805162461bcd60e51b815260206004820152601e60248201526000805160206127eb833981519152604482015290519081900360640190fd5b600954600160881b900460ff1680156108075750600954600160401b90046001600160401b03164211155b610858576040805162461bcd60e51b815260206004820181905260248201527f4552433230446973747269627574696f6e3a20616c726561647920656e646564604482015290519081900360640190fd5b60025481146108985760405162461bcd60e51b8152600401808060200182810382526035815260200180612a106035913960400191505060405180910390fd5b6108a0610d63565b60005b818110156109c85760008383838181106108b957fe5b90506020020135905080600014156108d157506109c0565b6000600283815481106108e057fe5b6000918252602080832090910154338352600b825260408084206001600160a01b0390921680855291909252912054909150819061091e9084612181565b336000908152600b602090815260408083206001600160a01b03861684528252808320939093556006905220546109559084612181565b6001600160a01b038216600090815260066020908152604080832093909355338252600c905220546109879084612181565b336000908152600c60205260409020556007546109a49084612181565b6007556109bc6001600160a01b0383163330866121e4565b5050505b6001016108a3565b50336001600160a01b03167f134b166c6094cc1ccbf1e3353ce5c3cd9fd29869051bdb999895854d77cc5ef6838360405180806020018281038252848482818152602001925060200280828437600083820152604051601f909101601f19169092018290039550909350505050a25050565b600954600160881b900460ff1681565b600f60209081526000928352604080842090915290825290205481565b600a6020526000908152604090205481565b60028181548110610a8657fe5b6000918252602090912001546001600160a01b0316905081565b60036020526000908152604090205481565b600954600160881b900460ff16610afa5760405162461bcd60e51b8152600401808060200182810382526022815260200180612a456022913960400191505060405180910390fd5b600954600160881b900460ff168015610b1e57506009546001600160401b03164210155b610b5d576040805162461bcd60e51b815260206004820152601e60248201526000805160206127eb833981519152604482015290519081900360640190fd5b610b65610d63565b6001546060906001600160401b0381118015610b8057600080fd5b50604051908082528060200260200182016040528015610baa578160200160208202803683370190505b50905060005b600154811015610ca657600060018281548110610bc957fe5b600091825260208083209091015433808452600f835260408085206001600160a01b0390931680865292845280852054918552600e845280852083865290935291832054909350839291610c1d9190612244565b336000908152600f602090815260408083206001600160a01b0387168452909152902054909150610c4e9082612181565b336000818152600f602090815260408083206001600160a01b038881168552925290912092909255610c839185169083612286565b80858581518110610c9057fe5b6020908102919091010152505050600101610bb0565b50604080516020808252835181830152835133937f28ee566bdecaf975c0979f4d09fecf91a9009ffe78523aef053a678134137b8b93869390928392830191808601910280838360005b83811015610d08578181015183820152602001610cf0565b505050509050019250505060405180910390a250565b600b60209081526000928352604080842090915290825290205481565b600954600160401b90046001600160401b031681565b60046020526000908152604090205481565b600954600160881b900460ff16610dab5760405162461bcd60e51b8152600401808060200182810382526022815260200180612a456022913960400191505060405180910390fd5b600954600160881b900460ff168015610dcf57506009546001600160401b03164210155b610e0e576040805162461bcd60e51b815260206004820152601e60248201526000805160206127eb833981519152604482015290519081900360640190fd5b600954600090610e2f904290600160401b90046001600160401b03166122dd565b600954909150600090610e55906001600160401b0380851691600160901b900416612244565b905060005b60015481101561109657600060018281548110610e7357fe5b6000918252602090912001546007546001600160a01b039091169150610f06576001600160a01b038116600090815260056020526040902054610eda90610ebb9085906122f3565b6001600160a01b0383166000908152600a602052604090205490612181565b6001600160a01b0382166000908152600a60209081526040808320939093556008905290812055610f8d565b6007546001600160a01b038216600090815260036020908152604080832054600590925290912054610f7392610f54929091610f4e9190610f489089906122f3565b906122f3565b9061234c565b6001600160a01b03831660009081526008602052604090205490612181565b6001600160a01b0382166000908152600860205260409020555b6001600160a01b038116600090815260086020526040812054610fb1576000611012565b6001600160a01b038216600081815260036020908152604080832054338452600d8352818420948452938252808320546008909252909120546110129291610f4e91610ffc91612244565b336000908152600c6020526040902054906122f3565b336000908152600e602090815260408083206001600160a01b03871684529091529020549091506110439082612181565b336000818152600e602090815260408083206001600160a01b0397909716808452968252808320949094556008815283822054928252600d81528382209582529490945292209190915550600101610e5a565b5050600980546001600160401b03909216600160901b0267ffffffffffffffff60901b19909216919091179055565b6110cd61238e565b6000546001600160a01b0390811691161461111d576040805162461bcd60e51b81526020600482018190526024820152600080516020612928833981519152604482015290519081900360640190fd5b600080546040516001600160a01b03909116907f8be0079c531659141344cd1fd0a4f28419497f9722a3daafe3b4186f6b6457e0908390a3600080546001600160a01b0319169055565b600e60209081526000928352604080842090915290825290205481565b600d60209081526000928352604080842090915290825290205481565b60018181548110610a8657fe5b60056020526000908152604090205481565b6009546001600160401b031681565b6000546001600160a01b031690565b600954600160881b900460ff166112265760405162461bcd60e51b8152600401808060200182810382526022815260200180612a456022913960400191505060405180910390fd5b600954600160881b900460ff16801561124a57506009546001600160401b03164210155b611289576040805162461bcd60e51b815260206004820152601e60248201526000805160206127eb833981519152604482015290519081900360640190fd5b60025481146112c95760405162461bcd60e51b815260040180806020018281038252603881526020018061275e6038913960400191505060405180910390fd5b600954600160801b900460ff161561132b57600954600160401b90046001600160401b0316421161132b5760405162461bcd60e51b8152600401808060200182810382526036815260200180612a676036913960400191505060405180910390fd5b611333610d63565b60005b818110156114bc57600083838381811061134c57fe5b905060200201359050806000141561136457506114b4565b60006002838154811061137357fe5b6000918252602080832090910154338352600b825260408084206001600160a01b039092168085529190925291205490915081908311156113e55760405162461bcd60e51b815260040180806020018281038252603e815260200180612ac3603e913960400191505060405180910390fd5b336000908152600b602090815260408083206001600160a01b03851684529091529020546114139084612244565b336000908152600b602090815260408083206001600160a01b038616845282528083209390935560069052205461144a9084612244565b6001600160a01b038216600090815260066020908152604080832093909355338252600c9052205461147c9084612244565b336000908152600c60205260409020556007546114999084612244565b6007556114b06001600160a01b0383163385612286565b5050505b600101611336565b50336001600160a01b03167ff35c46796392b0deae18b1c5ac3cc50df76b67ef9bcf256df595a3607aab6258838360405180806020018281038252848482818152602001925060200280828437600083820152604051601f909101601f19169092018290039550909350505050a25050565b60086020526000908152604090205481565b61154861238e565b6000546001600160a01b03908116911614611598576040805162461bcd60e51b81526020600482018190526024820152600080516020612928833981519152604482015290519081900360640190fd5b600954600160881b900460ff16156115e15760405162461bcd60e51b8152600401808060200182810382526026815260200180612a9d6026913960400191505060405180910390fd5b42836001600160401b0316116116285760405162461bcd60e51b81526004018080602001828103825260418152602001806128316041913960600191505060405180910390fd5b826001600160401b0316826001600160401b0316116116785760405162461bcd60e51b81526004018080602001828103825260288152602001806128df6028913960400191505060405180910390fd5b8784146116b65760405162461bcd60e51b81526004018080602001828103825260418152602001806128726041913960600191505060405180910390fd5b6001600160401b038383031660005b63ffffffff81168a11156119615760008b8b8363ffffffff168181106116e757fe5b905060200201356001600160a01b03169050600088888463ffffffff1681811061170d57fe5b60200291909101359150506001600160a01b03821661175d5760405162461bcd60e51b815260040180806020018281038252602c8152602001806128b3602c913960400191505060405180910390fd5b600081116117b2576040805162461bcd60e51b815260206004820152601c60248201527f4552433230446973747269627574696f6e3a206e6f2072657761726400000000604482015290519081900360640190fd5b838110156117f15760405162461bcd60e51b815260040180806020018281038252603c815260200180612976603c913960400191505060405180910390fd5b60008290506000816001600160a01b031663313ce5676040518163ffffffff1660e01b815260040160206040518083038186803b15801561183157600080fd5b505afa158015611845573d6000803e3d6000fd5b505050506040513d602081101561185b57600080fd5b505160ff1690508015801590611872575060128111155b6118ad5760405162461bcd60e51b81526004018080602001828103825260348152602001806129b26034913960400191505060405180910390fd5b600180548082019091557fb10e2d527612073b26eecdfd717e6a320cf44b4afac2b0732d9fcbe2b7fa0cf60180546001600160a01b0319166001600160a01b038481169190911790915584166000908152600360205260409020600a82900a9055611918838761234c565b6001600160a01b0380861660009081526005602090815260408083209490945560049052919091208490556119519083163330866121e4565b5050600190920191506116c59050565b5060005b63ffffffff8116881115611a4357600089898363ffffffff1681811061198757fe5b905060200201356001600160a01b0316905060006001600160a01b0316816001600160a01b031614156119eb5760405162461bcd60e51b815260040180806020018281038252602e815260200180612948602e913960400191505060405180910390fd5b60028054600180820183556000929092527f405787fa12a823e0f2b7631cc41b3ba8828b3321ca811111fa75cd3aa3bb5ace0180546001600160a01b0319166001600160a01b03939093169290921790915501611965565b5060098054600160881b67ffffffffffffffff199091166001600160401b038781169182176fffffffffffffffff00000000000000001916600160401b9188169182021767ffffffffffffffff60901b1916600160901b83021760ff60801b1916600160801b8715159081029190911760ff60881b191693909317909355604080516060810192909252608082019390935260a081019190915260c080825281018b90527fd0dfb5b7572136ccae7a2341eaf52e3fbe6733114f46033204cf61a269ddb82d918c918c918c918c918c918c918c918c918c9190819060208083019183019060e08401908e908e0280828437600083820152601f01601f191690910185810384528b8152602090810191508c908c0280828437600083820152601f01601f19169091018581038352898152602090810191508a908a0280828437600083820152604051601f909101601f19169092018290039e50909c50505050505050505050505050a150505050505050505050565b60075481565b600954600160901b90046001600160401b031681565b60606001805480602002602001604051908101604052809291908181526020018280548015611c2c57602002820191906000526020600020905b81546001600160a01b03168152600190910190602001808311611c0e575b5050505050905090565b600954600160801b900460ff1681565b600c6020526000908152604090205481565b600954600160881b900460ff16611ca05760405162461bcd60e51b8152600401808060200182810382526022815260200180612a456022913960400191505060405180910390fd5b600954600160881b900460ff168015611cc457506009546001600160401b03164210155b611d03576040805162461bcd60e51b815260206004820152601e60248201526000805160206127eb833981519152604482015290519081900360640190fd5b611d0b610d63565b6001546060816001600160401b0381118015611d2657600080fd5b50604051908082528060200260200182016040528015611d50578160200160208202803683370190505b50905060005b82811015611dda57600060018281548110611d6d57fe5b60009182526020808320909101546001600160a01b0316808352600a90915260408220805492905584519092508190859085908110611da857fe5b602002602001018181525050611dd0611dbf6111cf565b6001600160a01b0384169083612286565b5050600101611d56565b507ff904fafa600a7e4e8039f3a5497d1b6016772e3060f87d3e40f911b315f00bd1816040518080602001828103825283818151815260200191508051906020019060200280838360005b83811015611e3d578181015183820152602001611e25565b505050509050019250505060405180910390a15050565b60066020526000908152604090205481565b600954600160881b900460ff16611eae5760405162461bcd60e51b8152600401808060200182810382526022815260200180612a456022913960400191505060405180910390fd5b611eb661238e565b6000546001600160a01b03908116911614611f06576040805162461bcd60e51b81526020600482018190526024820152600080516020612928833981519152604482015290519081900360640190fd5b6009546001600160401b03164210611f4f5760405162461bcd60e51b815260040180806020018281038252602f815260200180612796602f913960400191505060405180910390fd5b60005b600154811015611fd557600060018281548110611f6b57fe5b60009182526020808320909101546001600160a01b03168083526004825260408084208054600385528286208690559085905560059093528320929092559091508190611fca611fb96111cf565b6001600160a01b0385169083612286565b505050600101611f52565b50611fe260016000612723565b611fee60026000612723565b600980546001600160d01b03191690556040517f1afb0ae590df277bcb3a37f88612725bf1f7df4755792b1548a7efe77985ff7790600090a1565b60606002805480602002602001604051908101604052809291908181526020018280548015611c2c576020028201919060005260206000209081546001600160a01b03168152600190910190602001808311611c0e575050505050905090565b61209161238e565b6000546001600160a01b039081169116146120e1576040805162461bcd60e51b81526020600482018190526024820152600080516020612928833981519152604482015290519081900360640190fd5b6001600160a01b0381166121265760405162461bcd60e51b81526004018080602001828103825260268152602001806127c56026913960400191505060405180910390fd5b600080546040516001600160a01b03808516939216917f8be0079c531659141344cd1fd0a4f28419497f9722a3daafe3b4186f6b6457e091a3600080546001600160a01b0319166001600160a01b0392909216919091179055565b6000828201838110156121db576040805162461bcd60e51b815260206004820152601b60248201527f536166654d6174683a206164646974696f6e206f766572666c6f770000000000604482015290519081900360640190fd5b90505b92915050565b604080516001600160a01b0380861660248301528416604482015260648082018490528251808303909101815260849091019091526020810180516001600160e01b03166323b872dd60e01b17905261223e908590612392565b50505050565b60006121db83836040518060400160405280601e81526020017f536166654d6174683a207375627472616374696f6e206f766572666c6f770000815250612443565b604080516001600160a01b038416602482015260448082018490528251808303909101815260649091019091526020810180516001600160e01b031663a9059cbb60e01b1790526122d8908490612392565b505050565b60008183106122ec57816121db565b5090919050565b600082612302575060006121de565b8282028284828161230f57fe5b04146121db5760405162461bcd60e51b81526004018080602001828103825260218152602001806129076021913960400191505060405180910390fd5b60006121db83836040518060400160405280601a81526020017f536166654d6174683a206469766973696f6e206279207a65726f0000000000008152506124df565b3390565b60606123e7826040518060400160405280602081526020017f5361666545524332303a206c6f772d6c6576656c2063616c6c206661696c6564815250856001600160a01b03166125449092919063ffffffff16565b8051909150156122d85780806020019051602081101561240657600080fd5b50516122d85760405162461bcd60e51b815260040180806020018281038252602a8152602001806129e6602a913960400191505060405180910390fd5b600081848411156124d25760405162461bcd60e51b81526004018080602001828103825283818151815260200191508051906020019080838360005b8381101561249757818101518382015260200161247f565b50505050905090810190601f1680156124c45780820380516001836020036101000a031916815260200191505b509250505060405180910390fd5b50508183035b9392505050565b6000818361252e5760405162461bcd60e51b815260206004820181815283516024840152835190928392604490910191908501908083836000831561249757818101518382015260200161247f565b50600083858161253a57fe5b0495945050505050565b6060612553848460008561255b565b949350505050565b60608247101561259c5760405162461bcd60e51b815260040180806020018281038252602681526020018061280b6026913960400191505060405180910390fd5b6125a5856126b7565b6125f6576040805162461bcd60e51b815260206004820152601d60248201527f416464726573733a2063616c6c20746f206e6f6e2d636f6e7472616374000000604482015290519081900360640190fd5b60006060866001600160a01b031685876040518082805190602001908083835b602083106126355780518252601f199092019160209182019101612616565b6001836020036101000a03801982511681845116808217855250505050505090500191505060006040518083038185875af1925050503d8060008114612697576040519150601f19603f3d011682016040523d82523d6000602084013e61269c565b606091505b50915091506126ac8282866126bd565b979650505050505050565b3b151590565b606083156126cc5750816124d8565b8251156126dc5782518084602001fd5b60405162461bcd60e51b815260206004820181815284516024840152845185939192839260440191908501908083836000831561249757818101518382015260200161247f565b50805460008255906000526020600020908101906127419190612744565b50565b5b808211156127595760008155600101612745565b509056fe4552433230446973747269627574696f6e3a20696e636f6e73697374656e742077697468647261776e20616d6f756e7473206c656e6774684552433230446973747269627574696f6e3a20646973747269627574696f6e20616c726561647920737461727465644f776e61626c653a206e6577206f776e657220697320746865207a65726f20616464726573734552433230446973747269627574696f6e3a206e6f7420737461727465640000416464726573733a20696e73756666696369656e742062616c616e636520666f722063616c6c4552433230446973747269627574696f6e3a207374617274696e672074696d657374616d70206c6f776572206f7220657175616c207468616e2063757272656e744552433230446973747269627574696f6e3a20696e636f6e73697374656e742072657761726420746f6b656e2f616d6f756e7420617272617973206c656e6774684552433230446973747269627574696f6e3a203020616464726573732061732072657761726420746f6b656e4552433230446973747269627574696f6e3a20696e76616c69642074696d65206475726174696f6e536166654d6174683a206d756c7469706c69636174696f6e206f766572666c6f774f776e61626c653a2063616c6c6572206973206e6f7420746865206f776e65724552433230446973747269627574696f6e3a20302061646472657373206173207374616b61626c6520746f6b656e4552433230446973747269627574696f6e3a207365636f6e6473206475726174696f6e206c657373207468616e207265776172647320616d6f756e744552433230446973747269627574696f6e3a20696e76616c696420646563696d616c7320666f722072657761726420746f6b656e5361666545524332303a204552433230206f7065726174696f6e20646964206e6f7420737563636565644552433230446973747269627574696f6e3a20696e636f6e73697374656e74207374616b656420616d6f756e7473206c656e6774684552433230446973747269627574696f6e3a206e6f7420696e697469616c697a65644552433230446973747269627574696f6e3a2066756e6473206c6f636b656420756e74696c20656e64696e672074696d657374616d704552433230446973747269627574696f6e3a20616c726561647920696e697469616c697a65644552433230446973747269627574696f6e3a2077697468647261776e20616d6f756e742067726561746572207468616e2063757272656e74207374616b65a26469706673582212201e5209624ef286c1c10e96c34bb4c1cc5d6150d250325f05b102aa1a1b1fb64b64736f6c634300060c0033",
  "immutableReferences": {},
  "source": "// SPDX-License-Identifier: GPL-3.0\n\npragma solidity ^0.6.12;\n\nimport \"@openzeppelin/contracts/math/SafeMath.sol\";\nimport \"@openzeppelin/contracts/math/Math.sol\";\nimport \"@openzeppelin/contracts/token/ERC20/ERC20.sol\";\nimport \"@openzeppelin/contracts/token/ERC20/SafeERC20.sol\";\nimport \"@openzeppelin/contracts/access/Ownable.sol\";\n\ncontract ERC20Distribution is Ownable {\n    using SafeMath for uint256;\n    using SafeMath for uint64;\n    using SafeERC20 for ERC20;\n\n    ERC20[] public rewardTokens;\n    ERC20[] public stakableTokens;\n    mapping(address => uint256) public rewardTokenMultiplier;\n    mapping(address => uint256) public rewardAmount;\n    mapping(address => uint256) public rewardPerSecond;\n    mapping(address => uint256) public stakedTokenAmount;\n    uint256 public totalStakedTokensAmount;\n    mapping(address => uint256) public rewardPerStakedToken;\n    uint64 public startingTimestamp;\n    uint64 public endingTimestamp;\n    bool public locked;\n    bool public initialized;\n    uint64 public lastConsolidationTimestamp;\n    mapping(address => uint256) public recoverableUnassignedReward;\n\n    mapping(address => mapping(address => uint256)) public stakedTokensOf;\n    mapping(address => uint256) public totalStakedTokensOf;\n    mapping(address => mapping(address => uint256))\n        public consolidatedRewardsPerStakedToken;\n    mapping(address => mapping(address => uint256)) public earnedRewards;\n    mapping(address => mapping(address => uint256)) public claimedReward;\n\n    event Initialized(\n        address[] rewardsTokenAddresses,\n        address[] stakableTokenAddresses,\n        uint256[] rewardsAmounts,\n        uint64 startingTimestamp,\n        uint64 endingTimestamp,\n        bool locked\n    );\n    event Canceled();\n    event Staked(address indexed staker, uint256[] amounts);\n    event Withdrawn(address indexed withdrawer, uint256[] amounts);\n    event Claimed(address indexed claimer, uint256[] amounts);\n    event Recovered(uint256[] amounts);\n\n    function getRewardTokens() external view returns (ERC20[] memory) {\n        return rewardTokens;\n    }\n\n    function getStakableTokens() external view returns (ERC20[] memory) {\n        return stakableTokens;\n    }\n\n    function initialize(\n        address[] calldata _rewardTokenAddresses,\n        address[] calldata _stakableTokenAddresses,\n        uint256[] calldata _rewardAmounts,\n        uint64 _startingTimestamp,\n        uint64 _endingTimestamp,\n        bool _locked\n    ) external onlyOwner onlyUninitialized {\n        require(\n            _startingTimestamp > block.timestamp,\n            \"ERC20Distribution: starting timestamp lower or equal than current\"\n        );\n        require(\n            _endingTimestamp > _startingTimestamp,\n            \"ERC20Distribution: invalid time duration\"\n        );\n        require(\n            _rewardTokenAddresses.length == _rewardAmounts.length,\n            \"ERC20Distribution: inconsistent reward token/amount arrays length\"\n        );\n\n        uint256 _secondsDuration = _endingTimestamp - _startingTimestamp;\n        // Initializing reward tokens and amounts\n        for (uint32 _i = 0; _i < _rewardTokenAddresses.length; _i++) {\n            address _rewardTokenAddress = _rewardTokenAddresses[_i];\n            uint256 _rewardAmount = _rewardAmounts[_i];\n            require(\n                _rewardTokenAddress != address(0),\n                \"ERC20Distribution: 0 address as reward token\"\n            );\n            require(_rewardAmount > 0, \"ERC20Distribution: no reward\");\n            require(\n                _rewardAmount >= _secondsDuration,\n                \"ERC20Distribution: seconds duration less than rewards amount\"\n            );\n            ERC20 _rewardToken = ERC20(_rewardTokenAddress);\n            // avoid overflow down the road (when consolidating rewards)\n            // by constraining the reward token decimals to a maximum of 18\n            uint256 _rewardTokenDecimals = _rewardToken.decimals();\n            require(\n                _rewardTokenDecimals > 0 && _rewardTokenDecimals <= 18,\n                \"ERC20Distribution: invalid decimals for reward token\"\n            );\n            rewardTokens.push(_rewardToken);\n            rewardTokenMultiplier[_rewardTokenAddress] =\n                uint256(10)**uint256(_rewardTokenDecimals);\n            rewardPerSecond[_rewardTokenAddress] = _rewardAmount.div(\n                _secondsDuration\n            );\n            rewardAmount[_rewardTokenAddress] = _rewardAmount;\n            // transfer funds to the contract\n            _rewardToken.safeTransferFrom(\n                msg.sender,\n                address(this),\n                _rewardAmount\n            );\n        }\n\n        // Initializing stakable tokens\n        for (uint32 _i = 0; _i < _stakableTokenAddresses.length; _i++) {\n            address _stakableTokenAddress = _stakableTokenAddresses[_i];\n            require(\n                _stakableTokenAddress != address(0),\n                \"ERC20Distribution: 0 address as stakable token\"\n            );\n            stakableTokens.push(ERC20(_stakableTokenAddress));\n        }\n\n        startingTimestamp = _startingTimestamp;\n        endingTimestamp = _endingTimestamp;\n        lastConsolidationTimestamp = _startingTimestamp;\n        locked = _locked;\n\n        initialized = true;\n        emit Initialized(\n            _rewardTokenAddresses,\n            _stakableTokenAddresses,\n            _rewardAmounts,\n            _startingTimestamp,\n            _endingTimestamp,\n            _locked\n        );\n    }\n\n    function cancel() external onlyInitialized onlyOwner {\n        require(\n            block.timestamp < startingTimestamp,\n            \"ERC20Distribution: distribution already started\"\n        );\n        // resetting reward information (both tokens and amounts)\n        for (uint256 _i; _i < rewardTokens.length; _i++) {\n            ERC20 rewardToken = rewardTokens[_i];\n            address rewardTokenAddress = address(rewardToken);\n            uint256 _relatedRewardAmount = rewardAmount[rewardTokenAddress];\n            delete rewardTokenMultiplier[rewardTokenAddress];\n            delete rewardAmount[rewardTokenAddress];\n            delete rewardPerSecond[rewardTokenAddress];\n            rewardToken.safeTransfer(owner(), _relatedRewardAmount);\n        }\n        delete rewardTokens;\n        delete stakableTokens;\n        startingTimestamp = 0;\n        endingTimestamp = 0;\n        lastConsolidationTimestamp = 0;\n        initialized = false;\n        locked = false;\n        emit Canceled();\n    }\n\n    function recoverUnassignedRewards() external onlyInitialized onlyStarted {\n        consolidateReward();\n        uint256 _rewardTokensAmount = rewardTokens.length;\n        uint256[] memory _recoveredUnassignedRewards =\n            new uint256[](_rewardTokensAmount);\n        for (uint256 _i; _i < _rewardTokensAmount; _i++) {\n            ERC20 _relatedRewardToken = rewardTokens[_i];\n\n            uint256 _relatedUnassignedReward =\n                recoverableUnassignedReward[address(_relatedRewardToken)];\n            delete recoverableUnassignedReward[address(_relatedRewardToken)];\n            _recoveredUnassignedRewards[_i] = _relatedUnassignedReward;\n            _relatedRewardToken.safeTransfer(owner(), _relatedUnassignedReward);\n        }\n        emit Recovered(_recoveredUnassignedRewards);\n    }\n\n    function stake(uint256[] calldata _amounts)\n        external\n        onlyInitialized\n        onlyStarted\n        onlyRunning\n    {\n        require(\n            _amounts.length == stakableTokens.length,\n            \"ERC20Distribution: inconsistent staked amounts length\"\n        );\n        consolidateReward();\n        for (uint256 _i; _i < _amounts.length; _i++) {\n            uint256 _amount = _amounts[_i];\n            if (_amount == 0) {\n                continue;\n            }\n            ERC20 _relatedStakableToken = stakableTokens[_i];\n            address _relatedStakableTokenAddress =\n                address(_relatedStakableToken);\n            stakedTokensOf[msg.sender][\n                _relatedStakableTokenAddress\n            ] = stakedTokensOf[msg.sender][_relatedStakableTokenAddress].add(\n                _amount\n            );\n            stakedTokenAmount[_relatedStakableTokenAddress] = stakedTokenAmount[\n                _relatedStakableTokenAddress\n            ]\n                .add(_amount);\n            totalStakedTokensOf[msg.sender] = totalStakedTokensOf[msg.sender]\n                .add(_amount);\n            totalStakedTokensAmount = totalStakedTokensAmount.add(_amount);\n            _relatedStakableToken.safeTransferFrom(\n                msg.sender,\n                address(this),\n                _amount\n            );\n        }\n        emit Staked(msg.sender, _amounts);\n    }\n\n    function withdraw(uint256[] calldata _amounts)\n        external\n        onlyInitialized\n        onlyStarted\n    {\n        require(\n            _amounts.length == stakableTokens.length,\n            \"ERC20Distribution: inconsistent withdrawn amounts length\"\n        );\n        if (locked) {\n            require(\n                block.timestamp > endingTimestamp,\n                \"ERC20Distribution: funds locked until ending timestamp\"\n            );\n        }\n        consolidateReward();\n        for (uint256 _i; _i < _amounts.length; _i++) {\n            uint256 _amount = _amounts[_i];\n            if (_amount == 0) {\n                continue;\n            }\n            ERC20 _relatedStakableToken = stakableTokens[_i];\n            address _relatedStakableTokenAddress =\n                address(_relatedStakableToken);\n            require(\n                _amount <=\n                    stakedTokensOf[msg.sender][_relatedStakableTokenAddress],\n                \"ERC20Distribution: withdrawn amount greater than current stake\"\n            );\n            stakedTokensOf[msg.sender][\n                _relatedStakableTokenAddress\n            ] = stakedTokensOf[msg.sender][_relatedStakableTokenAddress].sub(\n                _amount\n            );\n            stakedTokenAmount[_relatedStakableTokenAddress] = stakedTokenAmount[\n                _relatedStakableTokenAddress\n            ]\n                .sub(_amount);\n            totalStakedTokensOf[msg.sender] = totalStakedTokensOf[msg.sender]\n                .sub(_amount);\n            totalStakedTokensAmount = totalStakedTokensAmount.sub(_amount);\n            _relatedStakableToken.safeTransfer(msg.sender, _amount);\n        }\n        emit Withdrawn(msg.sender, _amounts);\n    }\n\n    function claim() external onlyInitialized onlyStarted {\n        consolidateReward();\n        uint256[] memory _pendingRewards = new uint256[](rewardTokens.length);\n        for (uint256 _i; _i < rewardTokens.length; _i++) {\n            ERC20 _relatedRewardToken = rewardTokens[_i];\n            address _relatedRewardTokenAddress = address(_relatedRewardToken);\n            uint256 _pendingReward =\n                earnedRewards[msg.sender][_relatedRewardTokenAddress].sub(\n                    claimedReward[msg.sender][_relatedRewardTokenAddress]\n                );\n            claimedReward[msg.sender][\n                _relatedRewardTokenAddress\n            ] = claimedReward[msg.sender][_relatedRewardTokenAddress].add(\n                _pendingReward\n            );\n            _relatedRewardToken.safeTransfer(msg.sender, _pendingReward);\n            _pendingRewards[_i] = _pendingReward;\n        }\n        emit Claimed(msg.sender, _pendingRewards);\n    }\n\n    function consolidateReward() public onlyInitialized onlyStarted {\n        uint64 _consolidationTimestamp =\n            uint64(Math.min(block.timestamp, endingTimestamp));\n        uint256 _lastPeriodDuration =\n            uint256(_consolidationTimestamp.sub(lastConsolidationTimestamp));\n        for (uint256 _i; _i < rewardTokens.length; _i++) {\n            address _relatedRewardTokenAddress = address(rewardTokens[_i]);\n            if (totalStakedTokensAmount == 0) {\n                // If the current staked tokens amount is zero, there have been unassigned rewards in the last period.\n                // We add them to any previous one so that they can be claimed back by the contract's owner.\n                recoverableUnassignedReward[\n                    _relatedRewardTokenAddress\n                ] = recoverableUnassignedReward[_relatedRewardTokenAddress].add(\n                    _lastPeriodDuration.mul(\n                        rewardPerSecond[_relatedRewardTokenAddress]\n                    )\n                );\n                rewardPerStakedToken[_relatedRewardTokenAddress] = 0;\n            } else {\n                rewardPerStakedToken[\n                    _relatedRewardTokenAddress\n                ] = rewardPerStakedToken[_relatedRewardTokenAddress].add(\n                    _lastPeriodDuration\n                    // FIXME: could this overflow?\n                        .mul(rewardPerSecond[_relatedRewardTokenAddress])\n                        .mul(rewardTokenMultiplier[_relatedRewardTokenAddress])\n                        .div(totalStakedTokensAmount)\n                );\n            }\n            // avoids subtraction underflow. If the rewards per staked tokens are 0,\n            // the rewards in current period must be 0 by definition, no need to\n            // perform subtraction risking underflow.\n            uint256 _rewardInCurrentPeriod =\n                rewardPerStakedToken[_relatedRewardTokenAddress] > 0\n                    ? totalStakedTokensOf[msg.sender]\n                        .mul(\n                        rewardPerStakedToken[_relatedRewardTokenAddress].sub(\n                            consolidatedRewardsPerStakedToken[msg.sender][\n                                _relatedRewardTokenAddress\n                            ]\n                        )\n                    )\n                        .div(rewardTokenMultiplier[_relatedRewardTokenAddress])\n                    : 0;\n            earnedRewards[msg.sender][\n                _relatedRewardTokenAddress\n            ] = earnedRewards[msg.sender][_relatedRewardTokenAddress].add(\n                _rewardInCurrentPeriod\n            );\n            consolidatedRewardsPerStakedToken[msg.sender][\n                _relatedRewardTokenAddress\n            ] = rewardPerStakedToken[_relatedRewardTokenAddress];\n        }\n        lastConsolidationTimestamp = _consolidationTimestamp;\n    }\n\n    modifier onlyUninitialized() {\n        require(!initialized, \"ERC20Distribution: already initialized\");\n        _;\n    }\n\n    modifier onlyInitialized() {\n        require(initialized, \"ERC20Distribution: not initialized\");\n        _;\n    }\n\n    modifier onlyStarted() {\n        require(\n            initialized && block.timestamp >= startingTimestamp,\n            \"ERC20Distribution: not started\"\n        );\n        _;\n    }\n\n    modifier onlyRunning() {\n        require(\n            initialized && block.timestamp <= endingTimestamp,\n            \"ERC20Distribution: already ended\"\n        );\n        _;\n    }\n}\n",
  "sourcePath": "erc20-staking-rewards-contracts/contracts/ERC20Distribution.sol",
  "compiler": {
    "name": "solc",
    "version": "0.6.12+commit.27d51765.Emscripten.clang"
  },
  "schemaVersion": "3.3.3",
  "updatedAt": "2020-12-31T16:20:59.836Z",
  "devdoc": {
    "kind": "dev",
    "methods": {
      "owner()": {
        "details": "Returns the address of the current owner."
      },
      "renounceOwnership()": {
        "details": "Leaves the contract without owner. It will not be possible to call `onlyOwner` functions anymore. Can only be called by the current owner. NOTE: Renouncing ownership will leave the contract without an owner, thereby removing any functionality that is only available to the owner."
      },
      "transferOwnership(address)": {
        "details": "Transfers ownership of the contract to a new account (`newOwner`). Can only be called by the current owner."
      }
    },
    "version": 1
  },
  "userdoc": {
    "kind": "user",
    "methods": {},
    "version": 1
  }
}