{
  "contractName": "SwaprERC20DistributionFactory",
  "abi": [
    {
      "anonymous": false,
      "inputs": [
        {
          "indexed": true,
          "internalType": "address",
          "name": "creator",
          "type": "address"
        },
        {
          "indexed": true,
          "internalType": "address[]",
          "name": "rewardsTokenAddresses",
          "type": "address[]"
        },
        {
          "indexed": true,
          "internalType": "address[]",
          "name": "stakableTokenAddresses",
          "type": "address[]"
        },
        {
          "indexed": false,
          "internalType": "uint256[]",
          "name": "rewardsAmounts",
          "type": "uint256[]"
        },
        {
          "indexed": false,
          "internalType": "uint256",
          "name": "startingTimestamp",
          "type": "uint256"
        },
        {
          "indexed": false,
          "internalType": "uint256",
          "name": "endingTimestamp",
          "type": "uint256"
        },
        {
          "indexed": false,
          "internalType": "bool",
          "name": "locked",
          "type": "bool"
        }
      ],
      "name": "Created",
      "type": "event"
    },
    {
      "anonymous": false,
      "inputs": [
        {
          "indexed": true,
          "internalType": "address",
          "name": "previousOwner",
          "type": "address"
        },
        {
          "indexed": true,
          "internalType": "address",
          "name": "newOwner",
          "type": "address"
        }
      ],
      "name": "OwnershipTransferred",
      "type": "event"
    },
    {
      "inputs": [],
      "name": "REWARD_TOKENS_VALIDATOR_INTERFACE_ID",
      "outputs": [
        {
          "internalType": "bytes4",
          "name": "",
          "type": "bytes4"
        }
      ],
      "stateMutability": "view",
      "type": "function"
    },
    {
      "inputs": [
        {
          "internalType": "uint256",
          "name": "",
          "type": "uint256"
        }
      ],
      "name": "distributions",
      "outputs": [
        {
          "internalType": "contract ERC20Distribution",
          "name": "",
          "type": "address"
        }
      ],
      "stateMutability": "view",
      "type": "function"
    },
    {
      "inputs": [],
      "name": "getDistributionsAmount",
      "outputs": [
        {
          "internalType": "uint256",
          "name": "",
          "type": "uint256"
        }
      ],
      "stateMutability": "view",
      "type": "function"
    },
    {
      "inputs": [],
      "name": "owner",
      "outputs": [
        {
          "internalType": "address",
          "name": "",
          "type": "address"
        }
      ],
      "stateMutability": "view",
      "type": "function"
    },
    {
      "inputs": [],
      "name": "renounceOwnership",
      "outputs": [],
      "stateMutability": "nonpayable",
      "type": "function"
    },
    {
      "inputs": [
        {
          "internalType": "address",
          "name": "newOwner",
          "type": "address"
        }
      ],
      "name": "transferOwnership",
      "outputs": [],
      "stateMutability": "nonpayable",
      "type": "function"
    },
    {
      "inputs": [
        {
          "internalType": "address",
          "name": "_rewardTokensValidatorAddress",
          "type": "address"
        }
      ],
      "name": "setRewardTokensValidator",
      "outputs": [],
      "stateMutability": "nonpayable",
      "type": "function"
    },
    {
      "inputs": [
        {
          "internalType": "address[]",
          "name": "_rewardTokensAddresses",
          "type": "address[]"
        },
        {
          "internalType": "address[]",
          "name": "_stakableTokensAddresses",
          "type": "address[]"
        },
        {
          "internalType": "uint256[]",
          "name": "_rewardAmounts",
          "type": "uint256[]"
        },
        {
          "internalType": "uint64",
          "name": "_startingTimestamp",
          "type": "uint64"
        },
        {
          "internalType": "uint64",
          "name": "_endingTimestmp",
          "type": "uint64"
        },
        {
          "internalType": "bool",
          "name": "_locked",
          "type": "bool"
        }
      ],
      "name": "createDistribution",
      "outputs": [],
      "stateMutability": "nonpayable",
      "type": "function"
    }
  ],
  "bytecode": "0x608060405234801561001057600080fd5b50600061001b61006a565b600080546001600160a01b0319166001600160a01b0383169081178255604051929350917f8be0079c531659141344cd1fd0a4f28419497f9722a3daafe3b4186f6b6457e0908290a35061006e565b3390565b613cd28061007d6000396000f3fe608060405234801561001057600080fd5b50600436106100875760003560e01c8063859184071161005b57806385918407146102255780638da5cb5b1461024a578063d5eeaef714610252578063f2fde38b1461026c57610087565b80620837271461008c5780634487d3df146100b45780634f050e39146100ed578063715018a61461021d575b600080fd5b6100b2600480360360208110156100a257600080fd5b50356001600160a01b0316610292565b005b6100d1600480360360208110156100ca57600080fd5b50356102d0565b604080516001600160a01b039092168252519081900360200190f35b6100b2600480360360c081101561010357600080fd5b81019060208101813564010000000081111561011e57600080fd5b82018360208201111561013057600080fd5b8035906020019184602083028401116401000000008311171561015257600080fd5b91939092909160208101903564010000000081111561017057600080fd5b82018360208201111561018257600080fd5b803590602001918460208302840111640100000000831117156101a457600080fd5b9193909290916020810190356401000000008111156101c257600080fd5b8201836020820111156101d457600080fd5b803590602001918460208302840111640100000000831117156101f657600080fd5b919350915067ffffffffffffffff81358116916020810135909116906040013515156102f7565b6100b26104fd565b61022d6105b1565b604080516001600160e01b03199092168252519081900360200190f35b6100d16105bc565b61025a6105cb565b60408051918252519081900360200190f35b6100b26004803603602081101561028257600080fd5b50356001600160a01b03166105d1565b6102ac6001600160a01b0382166369b034d360e01b6106db565b156102cd57600280546001600160a01b0319166001600160a01b0383161790555b50565b600181815481106102dd57fe5b6000918252602090912001546001600160a01b0316905081565b6002546001600160a01b0316156103ec576002546040516369b034d360e01b8152602060048201818152602483018c90526001600160a01b03909316926369b034d3928d928d929182916044909101908590850280828437600081840152601f19601f8201169050808301925050509350505050602060405180830381600087803b15801561038557600080fd5b505af1158015610399573d6000803e3d6000fd5b505050506040513d60208110156103af57600080fd5b50516103ec5760405162461bcd60e51b8152600401808060200182810382526034815260200180613c096034913960400191505060405180910390fd5b6003546001600160a01b0316156104e1576003546040516340f85cdd60e11b8152602060048201818152602483018c90526001600160a01b03909316926381f0b9ba928d928d929182916044909101908590850280828437600081840152601f19601f8201169050808301925050509350505050602060405180830381600087803b15801561047a57600080fd5b505af115801561048e573d6000803e3d6000fd5b505050506040513d60208110156104a457600080fd5b50516104e15760405162461bcd60e51b8152600401808060200182810382526036815260200180613c3d6036913960400191505060405180910390fd5b6104f28989898989898989896106fe565b505050505050505050565b6105056109f2565b6000546001600160a01b03908116911614610567576040805162461bcd60e51b815260206004820181905260248201527f4f776e61626c653a2063616c6c6572206973206e6f7420746865206f776e6572604482015290519081900360640190fd5b600080546040516001600160a01b03909116907f8be0079c531659141344cd1fd0a4f28419497f9722a3daafe3b4186f6b6457e0908390a3600080546001600160a01b0319169055565b6369b034d360e01b81565b6000546001600160a01b031690565b60015490565b6105d96109f2565b6000546001600160a01b0390811691161461063b576040805162461bcd60e51b815260206004820181905260248201527f4f776e61626c653a2063616c6c6572206973206e6f7420746865206f776e6572604482015290519081900360640190fd5b6001600160a01b0381166106805760405162461bcd60e51b8152600401808060200182810382526026815260200180613bbd6026913960400191505060405180910390fd5b600080546040516001600160a01b03808516939216917f8be0079c531659141344cd1fd0a4f28419497f9722a3daafe3b4186f6b6457e091a3600080546001600160a01b0319166001600160a01b0392909216919091179055565b60006106e6836109f6565b80156106f757506106f78383610a2a565b9392505050565b600060405161070c90610ffc565b604051809103906000f080158015610728573d6000803e3d6000fd5b50905060005b898110156107a35760008b8b8381811061074457fe5b905060200201356001600160a01b03169050600088888481811061076457fe5b6020029190910135915061078590506001600160a01b038316333084610a50565b6107996001600160a01b0383168583610ab0565b505060010161072e565b50806001600160a01b031663b10789548b8b8b8b8b8b8b8b8b6040518a63ffffffff1660e01b8152600401808060200180602001806020018767ffffffffffffffff1681526020018667ffffffffffffffff168152602001851515815260200184810384528d8d82818152602001925060200280828437600083820152601f01601f191690910185810384528b8152602090810191508c908c0280828437600083820152601f01601f19169091018581038352898152602090810191508a908a0280828437600081840152601f19601f8201169050808301925050509c50505050505050505050505050600060405180830381600087803b1580156108a757600080fd5b505af11580156108bb573d6000803e3d6000fd5b50506001805480820182556000919091527fb10e2d527612073b26eecdfd717e6a320cf44b4afac2b0732d9fcbe2b7fa0cf60180546001600160a01b0319166001600160a01b038516179055505060405188908890808360208402808284376040519201829003822094508e93508d925081905083602084028082843780830192505050925050506040518091039020336001600160a01b03167f9e995a9ca96aaab96877e39e6011cc5c0a50d52af0ad58edeb3bacc6c6c91057898989898960405180806020018567ffffffffffffffff1681526020018467ffffffffffffffff16815260200183151581526020018281038252878782818152602001925060200280828437600083820152604051601f909101601f19169092018290039850909650505050505050a450505050505050505050565b3390565b6000610a09826301ffc9a760e01b610a2a565b8015610a245750610a22826001600160e01b0319610a2a565b155b92915050565b6000806000610a398585610b9b565b91509150818015610a475750805b95945050505050565b604080516001600160a01b0380861660248301528416604482015260648082018490528251808303909101815260849091019091526020810180516001600160e01b03166323b872dd60e01b179052610aaa908590610ccf565b50505050565b6000610b4682856001600160a01b031663dd62ed3e30876040518363ffffffff1660e01b815260040180836001600160a01b03168152602001826001600160a01b031681526020019250505060206040518083038186803b158015610b1457600080fd5b505afa158015610b28573d6000803e3d6000fd5b505050506040513d6020811015610b3e57600080fd5b505190610d85565b604080516001600160a01b038616602482015260448082018490528251808303909101815260649091019091526020810180516001600160e01b031663095ea7b360e01b179052909150610aaa908590610ccf565b604080516001600160e01b0319831660248083019190915282518083039091018152604490910182526020810180516001600160e01b03166301ffc9a760e01b1781529151815160009384939284926060926001600160a01b038a169261753092879282918083835b60208310610c235780518252601f199092019160209182019101610c04565b6001836020036101000a0380198251168184511680821785525050505050509050019150506000604051808303818686fa925050503d8060008114610c84576040519150601f19603f3d011682016040523d82523d6000602084013e610c89565b606091505b5091509150602081511015610ca75760008094509450505050610cc8565b81818060200190516020811015610cbd57600080fd5b505190955093505050505b9250929050565b6060610d24826040518060400160405280602081526020017f5361666545524332303a206c6f772d6c6576656c2063616c6c206661696c6564815250856001600160a01b0316610ddf9092919063ffffffff16565b805190915015610d8057808060200190516020811015610d4357600080fd5b5051610d805760405162461bcd60e51b815260040180806020018281038252602a815260200180613c73602a913960400191505060405180910390fd5b505050565b6000828201838110156106f7576040805162461bcd60e51b815260206004820152601b60248201527f536166654d6174683a206164646974696f6e206f766572666c6f770000000000604482015290519081900360640190fd5b6060610dee8484600085610df6565b949350505050565b606082471015610e375760405162461bcd60e51b8152600401808060200182810382526026815260200180613be36026913960400191505060405180910390fd5b610e4085610f52565b610e91576040805162461bcd60e51b815260206004820152601d60248201527f416464726573733a2063616c6c20746f206e6f6e2d636f6e7472616374000000604482015290519081900360640190fd5b60006060866001600160a01b031685876040518082805190602001908083835b60208310610ed05780518252601f199092019160209182019101610eb1565b6001836020036101000a03801982511681845116808217855250505050505090500191505060006040518083038185875af1925050503d8060008114610f32576040519150601f19603f3d011682016040523d82523d6000602084013e610f37565b606091505b5091509150610f47828286610f58565b979650505050505050565b3b151590565b60608315610f675750816106f7565b825115610f775782518084602001fd5b8160405162461bcd60e51b81526004018080602001828103825283818151815260200191508051906020019080838360005b83811015610fc1578181015183820152602001610fa9565b50505050905090810190601f168015610fee5780820380516001836020036101000a031916815260200191505b509250505060405180910390fd5b612bb38061100a8339019056fe608060405234801561001057600080fd5b50600061001b61006a565b600080546001600160a01b0319166001600160a01b0383169081178255604051929350917f8be0079c531659141344cd1fd0a4f28419497f9722a3daafe3b4186f6b6457e0908290a35061006e565b3390565b612b368061007d6000396000f3fe608060405234801561001057600080fd5b50600436106101e55760003560e01c8063867b2f271161010f578063c4f59f9b116100a2578063e66d85be11610071578063e66d85be146106d5578063ea8a1af0146106fb578063ebbf95e114610703578063f2fde38b1461070b576101e5565b8063c4f59f9b14610647578063cf3090121461069f578063e31a384f146106a7578063e644067d146106cd576101e5565b806398f81230116100de57806398f81230146104e8578063b10789541461050e578063b41fa97914610637578063c10de3001461063f576101e5565b8063867b2f2714610444578063887862721461046a5780638da5cb5b14610472578063983d95ce1461047a576101e5565b80635541559211610187578063715018a611610156578063715018a6146103c3578063728e4a67146103cb57806375b8dbf8146103f95780637bb7bed114610427576101e5565b806355415592146103435780635e5294b714610371578063645a8a56146103955780636715dcb8146103bb576101e5565b80633b34ee50116101c35780633b34ee50146102b6578063407f2932146102dc57806348895a9c146103155780634e71d92d1461033b576101e5565b80630fbf0a93146101ea578063158ef93e1461025a57806334380a6114610276575b600080fd5b6102586004803603602081101561020057600080fd5b810190602081018135600160201b81111561021a57600080fd5b82018360208201111561022c57600080fd5b803590602001918460208302840111600160201b8311171561024d57600080fd5b509092509050610731565b005b610262610a3a565b604080519115158252519081900360200190f35b6102a46004803603604081101561028c57600080fd5b506001600160a01b0381358116916020013516610a4a565b60408051918252519081900360200190f35b6102a4600480360360208110156102cc57600080fd5b50356001600160a01b0316610a67565b6102f9600480360360208110156102f257600080fd5b5035610a79565b604080516001600160a01b039092168252519081900360200190f35b6102a46004803603602081101561032b57600080fd5b50356001600160a01b0316610aa0565b610258610ab2565b6102a46004803603604081101561035957600080fd5b506001600160a01b0381358116916020013516610d1e565b610379610d3b565b604080516001600160401b039092168252519081900360200190f35b6102a4600480360360208110156103ab57600080fd5b50356001600160a01b0316610d51565b610258610d63565b6102586110c5565b6102a4600480360360408110156103e157600080fd5b506001600160a01b0381358116916020013516611167565b6102a46004803603604081101561040f57600080fd5b506001600160a01b0381358116916020013516611184565b6102f96004803603602081101561043d57600080fd5b50356111a1565b6102a46004803603602081101561045a57600080fd5b50356001600160a01b03166111ae565b6103796111c0565b6102f96111cf565b6102586004803603602081101561049057600080fd5b810190602081018135600160201b8111156104aa57600080fd5b8201836020820111156104bc57600080fd5b803590602001918460208302840111600160201b831117156104dd57600080fd5b5090925090506111de565b6102a4600480360360208110156104fe57600080fd5b50356001600160a01b031661152e565b610258600480360360c081101561052457600080fd5b810190602081018135600160201b81111561053e57600080fd5b82018360208201111561055057600080fd5b803590602001918460208302840111600160201b8311171561057157600080fd5b919390929091602081019035600160201b81111561058e57600080fd5b8201836020820111156105a057600080fd5b803590602001918460208302840111600160201b831117156105c157600080fd5b919390929091602081019035600160201b8111156105de57600080fd5b8201836020820111156105f057600080fd5b803590602001918460208302840111600160201b8311171561061157600080fd5b91935091506001600160401b038135811691602081013590911690604001351515611540565b6102a4611bb8565b610379611bbe565b61064f611bd4565b60408051602080825283518183015283519192839290830191858101910280838360005b8381101561068b578181015183820152602001610673565b505050509050019250505060405180910390f35b610262611c36565b6102a4600480360360208110156106bd57600080fd5b50356001600160a01b0316611c46565b610258611c58565b6102a4600480360360208110156106eb57600080fd5b50356001600160a01b0316611e54565b610258611e66565b61064f612029565b6102586004803603602081101561072157600080fd5b50356001600160a01b0316612089565b600954600160881b900460ff166107795760405162461bcd60e51b8152600401808060200182810382526022815260200180612a456022913960400191505060405180910390fd5b600954600160881b900460ff16801561079d57506009546001600160401b03164210155b6107dc576040805162461bcd60e51b815260206004820152601e60248201526000805160206127eb833981519152604482015290519081900360640190fd5b600954600160881b900460ff1680156108075750600954600160401b90046001600160401b03164211155b610858576040805162461bcd60e51b815260206004820181905260248201527f4552433230446973747269627574696f6e3a20616c726561647920656e646564604482015290519081900360640190fd5b60025481146108985760405162461bcd60e51b8152600401808060200182810382526035815260200180612a106035913960400191505060405180910390fd5b6108a0610d63565b60005b818110156109c85760008383838181106108b957fe5b90506020020135905080600014156108d157506109c0565b6000600283815481106108e057fe5b6000918252602080832090910154338352600b825260408084206001600160a01b0390921680855291909252912054909150819061091e9084612181565b336000908152600b602090815260408083206001600160a01b03861684528252808320939093556006905220546109559084612181565b6001600160a01b038216600090815260066020908152604080832093909355338252600c905220546109879084612181565b336000908152600c60205260409020556007546109a49084612181565b6007556109bc6001600160a01b0383163330866121e4565b5050505b6001016108a3565b50336001600160a01b03167f134b166c6094cc1ccbf1e3353ce5c3cd9fd29869051bdb999895854d77cc5ef6838360405180806020018281038252848482818152602001925060200280828437600083820152604051601f909101601f19169092018290039550909350505050a25050565b600954600160881b900460ff1681565b600f60209081526000928352604080842090915290825290205481565b600a6020526000908152604090205481565b60028181548110610a8657fe5b6000918252602090912001546001600160a01b0316905081565b60036020526000908152604090205481565b600954600160881b900460ff16610afa5760405162461bcd60e51b8152600401808060200182810382526022815260200180612a456022913960400191505060405180910390fd5b600954600160881b900460ff168015610b1e57506009546001600160401b03164210155b610b5d576040805162461bcd60e51b815260206004820152601e60248201526000805160206127eb833981519152604482015290519081900360640190fd5b610b65610d63565b6001546060906001600160401b0381118015610b8057600080fd5b50604051908082528060200260200182016040528015610baa578160200160208202803683370190505b50905060005b600154811015610ca657600060018281548110610bc957fe5b600091825260208083209091015433808452600f835260408085206001600160a01b0390931680865292845280852054918552600e845280852083865290935291832054909350839291610c1d9190612244565b336000908152600f602090815260408083206001600160a01b0387168452909152902054909150610c4e9082612181565b336000818152600f602090815260408083206001600160a01b038881168552925290912092909255610c839185169083612286565b80858581518110610c9057fe5b6020908102919091010152505050600101610bb0565b50604080516020808252835181830152835133937f28ee566bdecaf975c0979f4d09fecf91a9009ffe78523aef053a678134137b8b93869390928392830191808601910280838360005b83811015610d08578181015183820152602001610cf0565b505050509050019250505060405180910390a250565b600b60209081526000928352604080842090915290825290205481565b600954600160401b90046001600160401b031681565b60046020526000908152604090205481565b600954600160881b900460ff16610dab5760405162461bcd60e51b8152600401808060200182810382526022815260200180612a456022913960400191505060405180910390fd5b600954600160881b900460ff168015610dcf57506009546001600160401b03164210155b610e0e576040805162461bcd60e51b815260206004820152601e60248201526000805160206127eb833981519152604482015290519081900360640190fd5b600954600090610e2f904290600160401b90046001600160401b03166122dd565b600954909150600090610e55906001600160401b0380851691600160901b900416612244565b905060005b60015481101561109657600060018281548110610e7357fe5b6000918252602090912001546007546001600160a01b039091169150610f06576001600160a01b038116600090815260056020526040902054610eda90610ebb9085906122f3565b6001600160a01b0383166000908152600a602052604090205490612181565b6001600160a01b0382166000908152600a60209081526040808320939093556008905290812055610f8d565b6007546001600160a01b038216600090815260036020908152604080832054600590925290912054610f7392610f54929091610f4e9190610f489089906122f3565b906122f3565b9061234c565b6001600160a01b03831660009081526008602052604090205490612181565b6001600160a01b0382166000908152600860205260409020555b6001600160a01b038116600090815260086020526040812054610fb1576000611012565b6001600160a01b038216600081815260036020908152604080832054338452600d8352818420948452938252808320546008909252909120546110129291610f4e91610ffc91612244565b336000908152600c6020526040902054906122f3565b336000908152600e602090815260408083206001600160a01b03871684529091529020549091506110439082612181565b336000818152600e602090815260408083206001600160a01b0397909716808452968252808320949094556008815283822054928252600d81528382209582529490945292209190915550600101610e5a565b5050600980546001600160401b03909216600160901b0267ffffffffffffffff60901b19909216919091179055565b6110cd61238e565b6000546001600160a01b0390811691161461111d576040805162461bcd60e51b81526020600482018190526024820152600080516020612928833981519152604482015290519081900360640190fd5b600080546040516001600160a01b03909116907f8be0079c531659141344cd1fd0a4f28419497f9722a3daafe3b4186f6b6457e0908390a3600080546001600160a01b0319169055565b600e60209081526000928352604080842090915290825290205481565b600d60209081526000928352604080842090915290825290205481565b60018181548110610a8657fe5b60056020526000908152604090205481565b6009546001600160401b031681565b6000546001600160a01b031690565b600954600160881b900460ff166112265760405162461bcd60e51b8152600401808060200182810382526022815260200180612a456022913960400191505060405180910390fd5b600954600160881b900460ff16801561124a57506009546001600160401b03164210155b611289576040805162461bcd60e51b815260206004820152601e60248201526000805160206127eb833981519152604482015290519081900360640190fd5b60025481146112c95760405162461bcd60e51b815260040180806020018281038252603881526020018061275e6038913960400191505060405180910390fd5b600954600160801b900460ff161561132b57600954600160401b90046001600160401b0316421161132b5760405162461bcd60e51b8152600401808060200182810382526036815260200180612a676036913960400191505060405180910390fd5b611333610d63565b60005b818110156114bc57600083838381811061134c57fe5b905060200201359050806000141561136457506114b4565b60006002838154811061137357fe5b6000918252602080832090910154338352600b825260408084206001600160a01b039092168085529190925291205490915081908311156113e55760405162461bcd60e51b815260040180806020018281038252603e815260200180612ac3603e913960400191505060405180910390fd5b336000908152600b602090815260408083206001600160a01b03851684529091529020546114139084612244565b336000908152600b602090815260408083206001600160a01b038616845282528083209390935560069052205461144a9084612244565b6001600160a01b038216600090815260066020908152604080832093909355338252600c9052205461147c9084612244565b336000908152600c60205260409020556007546114999084612244565b6007556114b06001600160a01b0383163385612286565b5050505b600101611336565b50336001600160a01b03167ff35c46796392b0deae18b1c5ac3cc50df76b67ef9bcf256df595a3607aab6258838360405180806020018281038252848482818152602001925060200280828437600083820152604051601f909101601f19169092018290039550909350505050a25050565b60086020526000908152604090205481565b61154861238e565b6000546001600160a01b03908116911614611598576040805162461bcd60e51b81526020600482018190526024820152600080516020612928833981519152604482015290519081900360640190fd5b600954600160881b900460ff16156115e15760405162461bcd60e51b8152600401808060200182810382526026815260200180612a9d6026913960400191505060405180910390fd5b42836001600160401b0316116116285760405162461bcd60e51b81526004018080602001828103825260418152602001806128316041913960600191505060405180910390fd5b826001600160401b0316826001600160401b0316116116785760405162461bcd60e51b81526004018080602001828103825260288152602001806128df6028913960400191505060405180910390fd5b8784146116b65760405162461bcd60e51b81526004018080602001828103825260418152602001806128726041913960600191505060405180910390fd5b6001600160401b038383031660005b63ffffffff81168a11156119615760008b8b8363ffffffff168181106116e757fe5b905060200201356001600160a01b03169050600088888463ffffffff1681811061170d57fe5b60200291909101359150506001600160a01b03821661175d5760405162461bcd60e51b815260040180806020018281038252602c8152602001806128b3602c913960400191505060405180910390fd5b600081116117b2576040805162461bcd60e51b815260206004820152601c60248201527f4552433230446973747269627574696f6e3a206e6f2072657761726400000000604482015290519081900360640190fd5b838110156117f15760405162461bcd60e51b815260040180806020018281038252603c815260200180612976603c913960400191505060405180910390fd5b60008290506000816001600160a01b031663313ce5676040518163ffffffff1660e01b815260040160206040518083038186803b15801561183157600080fd5b505afa158015611845573d6000803e3d6000fd5b505050506040513d602081101561185b57600080fd5b505160ff1690508015801590611872575060128111155b6118ad5760405162461bcd60e51b81526004018080602001828103825260348152602001806129b26034913960400191505060405180910390fd5b600180548082019091557fb10e2d527612073b26eecdfd717e6a320cf44b4afac2b0732d9fcbe2b7fa0cf60180546001600160a01b0319166001600160a01b038481169190911790915584166000908152600360205260409020600a82900a9055611918838761234c565b6001600160a01b0380861660009081526005602090815260408083209490945560049052919091208490556119519083163330866121e4565b5050600190920191506116c59050565b5060005b63ffffffff8116881115611a4357600089898363ffffffff1681811061198757fe5b905060200201356001600160a01b0316905060006001600160a01b0316816001600160a01b031614156119eb5760405162461bcd60e51b815260040180806020018281038252602e815260200180612948602e913960400191505060405180910390fd5b60028054600180820183556000929092527f405787fa12a823e0f2b7631cc41b3ba8828b3321ca811111fa75cd3aa3bb5ace0180546001600160a01b0319166001600160a01b03939093169290921790915501611965565b5060098054600160881b67ffffffffffffffff199091166001600160401b038781169182176fffffffffffffffff00000000000000001916600160401b9188169182021767ffffffffffffffff60901b1916600160901b83021760ff60801b1916600160801b8715159081029190911760ff60881b191693909317909355604080516060810192909252608082019390935260a081019190915260c080825281018b90527fd0dfb5b7572136ccae7a2341eaf52e3fbe6733114f46033204cf61a269ddb82d918c918c918c918c918c918c918c918c918c9190819060208083019183019060e08401908e908e0280828437600083820152601f01601f191690910185810384528b8152602090810191508c908c0280828437600083820152601f01601f19169091018581038352898152602090810191508a908a0280828437600083820152604051601f909101601f19169092018290039e50909c50505050505050505050505050a150505050505050505050565b60075481565b600954600160901b90046001600160401b031681565b60606001805480602002602001604051908101604052809291908181526020018280548015611c2c57602002820191906000526020600020905b81546001600160a01b03168152600190910190602001808311611c0e575b5050505050905090565b600954600160801b900460ff1681565b600c6020526000908152604090205481565b600954600160881b900460ff16611ca05760405162461bcd60e51b8152600401808060200182810382526022815260200180612a456022913960400191505060405180910390fd5b600954600160881b900460ff168015611cc457506009546001600160401b03164210155b611d03576040805162461bcd60e51b815260206004820152601e60248201526000805160206127eb833981519152604482015290519081900360640190fd5b611d0b610d63565b6001546060816001600160401b0381118015611d2657600080fd5b50604051908082528060200260200182016040528015611d50578160200160208202803683370190505b50905060005b82811015611dda57600060018281548110611d6d57fe5b60009182526020808320909101546001600160a01b0316808352600a90915260408220805492905584519092508190859085908110611da857fe5b602002602001018181525050611dd0611dbf6111cf565b6001600160a01b0384169083612286565b5050600101611d56565b507ff904fafa600a7e4e8039f3a5497d1b6016772e3060f87d3e40f911b315f00bd1816040518080602001828103825283818151815260200191508051906020019060200280838360005b83811015611e3d578181015183820152602001611e25565b505050509050019250505060405180910390a15050565b60066020526000908152604090205481565b600954600160881b900460ff16611eae5760405162461bcd60e51b8152600401808060200182810382526022815260200180612a456022913960400191505060405180910390fd5b611eb661238e565b6000546001600160a01b03908116911614611f06576040805162461bcd60e51b81526020600482018190526024820152600080516020612928833981519152604482015290519081900360640190fd5b6009546001600160401b03164210611f4f5760405162461bcd60e51b815260040180806020018281038252602f815260200180612796602f913960400191505060405180910390fd5b60005b600154811015611fd557600060018281548110611f6b57fe5b60009182526020808320909101546001600160a01b03168083526004825260408084208054600385528286208690559085905560059093528320929092559091508190611fca611fb96111cf565b6001600160a01b0385169083612286565b505050600101611f52565b50611fe260016000612723565b611fee60026000612723565b600980546001600160d01b03191690556040517f1afb0ae590df277bcb3a37f88612725bf1f7df4755792b1548a7efe77985ff7790600090a1565b60606002805480602002602001604051908101604052809291908181526020018280548015611c2c576020028201919060005260206000209081546001600160a01b03168152600190910190602001808311611c0e575050505050905090565b61209161238e565b6000546001600160a01b039081169116146120e1576040805162461bcd60e51b81526020600482018190526024820152600080516020612928833981519152604482015290519081900360640190fd5b6001600160a01b0381166121265760405162461bcd60e51b81526004018080602001828103825260268152602001806127c56026913960400191505060405180910390fd5b600080546040516001600160a01b03808516939216917f8be0079c531659141344cd1fd0a4f28419497f9722a3daafe3b4186f6b6457e091a3600080546001600160a01b0319166001600160a01b0392909216919091179055565b6000828201838110156121db576040805162461bcd60e51b815260206004820152601b60248201527f536166654d6174683a206164646974696f6e206f766572666c6f770000000000604482015290519081900360640190fd5b90505b92915050565b604080516001600160a01b0380861660248301528416604482015260648082018490528251808303909101815260849091019091526020810180516001600160e01b03166323b872dd60e01b17905261223e908590612392565b50505050565b60006121db83836040518060400160405280601e81526020017f536166654d6174683a207375627472616374696f6e206f766572666c6f770000815250612443565b604080516001600160a01b038416602482015260448082018490528251808303909101815260649091019091526020810180516001600160e01b031663a9059cbb60e01b1790526122d8908490612392565b505050565b60008183106122ec57816121db565b5090919050565b600082612302575060006121de565b8282028284828161230f57fe5b04146121db5760405162461bcd60e51b81526004018080602001828103825260218152602001806129076021913960400191505060405180910390fd5b60006121db83836040518060400160405280601a81526020017f536166654d6174683a206469766973696f6e206279207a65726f0000000000008152506124df565b3390565b60606123e7826040518060400160405280602081526020017f5361666545524332303a206c6f772d6c6576656c2063616c6c206661696c6564815250856001600160a01b03166125449092919063ffffffff16565b8051909150156122d85780806020019051602081101561240657600080fd5b50516122d85760405162461bcd60e51b815260040180806020018281038252602a8152602001806129e6602a913960400191505060405180910390fd5b600081848411156124d25760405162461bcd60e51b81526004018080602001828103825283818151815260200191508051906020019080838360005b8381101561249757818101518382015260200161247f565b50505050905090810190601f1680156124c45780820380516001836020036101000a031916815260200191505b509250505060405180910390fd5b50508183035b9392505050565b6000818361252e5760405162461bcd60e51b815260206004820181815283516024840152835190928392604490910191908501908083836000831561249757818101518382015260200161247f565b50600083858161253a57fe5b0495945050505050565b6060612553848460008561255b565b949350505050565b60608247101561259c5760405162461bcd60e51b815260040180806020018281038252602681526020018061280b6026913960400191505060405180910390fd5b6125a5856126b7565b6125f6576040805162461bcd60e51b815260206004820152601d60248201527f416464726573733a2063616c6c20746f206e6f6e2d636f6e7472616374000000604482015290519081900360640190fd5b60006060866001600160a01b031685876040518082805190602001908083835b602083106126355780518252601f199092019160209182019101612616565b6001836020036101000a03801982511681845116808217855250505050505090500191505060006040518083038185875af1925050503d8060008114612697576040519150601f19603f3d011682016040523d82523d6000602084013e61269c565b606091505b50915091506126ac8282866126bd565b979650505050505050565b3b151590565b606083156126cc5750816124d8565b8251156126dc5782518084602001fd5b60405162461bcd60e51b815260206004820181815284516024840152845185939192839260440191908501908083836000831561249757818101518382015260200161247f565b50805460008255906000526020600020908101906127419190612744565b50565b5b808211156127595760008155600101612745565b509056fe4552433230446973747269627574696f6e3a20696e636f6e73697374656e742077697468647261776e20616d6f756e7473206c656e6774684552433230446973747269627574696f6e3a20646973747269627574696f6e20616c726561647920737461727465644f776e61626c653a206e6577206f776e657220697320746865207a65726f20616464726573734552433230446973747269627574696f6e3a206e6f7420737461727465640000416464726573733a20696e73756666696369656e742062616c616e636520666f722063616c6c4552433230446973747269627574696f6e3a207374617274696e672074696d657374616d70206c6f776572206f7220657175616c207468616e2063757272656e744552433230446973747269627574696f6e3a20696e636f6e73697374656e742072657761726420746f6b656e2f616d6f756e7420617272617973206c656e6774684552433230446973747269627574696f6e3a203020616464726573732061732072657761726420746f6b656e4552433230446973747269627574696f6e3a20696e76616c69642074696d65206475726174696f6e536166654d6174683a206d756c7469706c69636174696f6e206f766572666c6f774f776e61626c653a2063616c6c6572206973206e6f7420746865206f776e65724552433230446973747269627574696f6e3a20302061646472657373206173207374616b61626c6520746f6b656e4552433230446973747269627574696f6e3a207365636f6e6473206475726174696f6e206c657373207468616e207265776172647320616d6f756e744552433230446973747269627574696f6e3a20696e76616c696420646563696d616c7320666f722072657761726420746f6b656e5361666545524332303a204552433230206f7065726174696f6e20646964206e6f7420737563636565644552433230446973747269627574696f6e3a20696e636f6e73697374656e74207374616b656420616d6f756e7473206c656e6774684552433230446973747269627574696f6e3a206e6f7420696e697469616c697a65644552433230446973747269627574696f6e3a2066756e6473206c6f636b656420756e74696c20656e64696e672074696d657374616d704552433230446973747269627574696f6e3a20616c726561647920696e697469616c697a65644552433230446973747269627574696f6e3a2077697468647261776e20616d6f756e742067726561746572207468616e2063757272656e74207374616b65a26469706673582212201e5209624ef286c1c10e96c34bb4c1cc5d6150d250325f05b102aa1a1b1fb64b64736f6c634300060c00334f776e61626c653a206e6577206f776e657220697320746865207a65726f2061646472657373416464726573733a20696e73756666696369656e742062616c616e636520666f722063616c6c53776170724552433230446973747269627574696f6e466163746f72793a20696e76616c69642072657761726420746f6b656e7353776170724552433230446973747269627574696f6e466163746f72793a20696e76616c6964207374616b61626c6520746f6b656e735361666545524332303a204552433230206f7065726174696f6e20646964206e6f742073756363656564a26469706673582212200a5c0f9ad0a7717aada9a5b7807ea80a9b47ca2458f9adfb27ff9a8495eda71664736f6c634300060c0033",
  "immutableReferences": {},
  "source": "// SPDX-License-Identifier: GPL-3.0\n\npragma solidity ^0.6.12;\n\nimport \"@openzeppelin/contracts/introspection/ERC165Checker.sol\";\nimport \"erc20-staking-rewards-contracts/contracts/ERC20DistributionFactory.sol\";\nimport \"./abstraction/IRewardTokensValidator.sol\";\nimport \"./abstraction/IStakableTokensValidator.sol\";\n\ncontract SwaprERC20DistributionFactory is ERC20DistributionFactory {\n    using ERC165Checker for address;\n\n    bytes4 public constant REWARD_TOKENS_VALIDATOR_INTERFACE_ID =\n        IRewardTokensValidator(0).areRewardTokensValid.selector;\n\n    IRewardTokensValidator rewardTokensValidator;\n    IStakableTokensValidator stakableTokensValidator;\n\n    function setRewardTokensValidator(address _rewardTokensValidatorAddress)\n        external\n    {\n        if (\n            _rewardTokensValidatorAddress.supportsInterface(\n                REWARD_TOKENS_VALIDATOR_INTERFACE_ID\n            )\n        ) {\n            rewardTokensValidator = IRewardTokensValidator(\n                _rewardTokensValidatorAddress\n            );\n        }\n    }\n\n    function createDistribution(\n        address[] calldata _rewardTokensAddresses,\n        address[] calldata _stakableTokensAddresses,\n        uint256[] calldata _rewardAmounts,\n        uint64 _startingTimestamp,\n        uint64 _endingTimestmp,\n        bool _locked\n    ) public override {\n        if (address(rewardTokensValidator) != address(0)) {\n            require(\n                rewardTokensValidator.areRewardTokensValid(\n                    _rewardTokensAddresses\n                ),\n                \"SwaprERC20DistributionFactory: invalid reward tokens\"\n            );\n        }\n        if (address(stakableTokensValidator) != address(0)) {\n            require(\n                stakableTokensValidator.areStakableTokensValid(\n                    _rewardTokensAddresses\n                ),\n                \"SwaprERC20DistributionFactory: invalid stakable tokens\"\n            );\n        }\n        ERC20DistributionFactory.createDistribution(\n            _rewardTokensAddresses,\n            _stakableTokensAddresses,\n            _rewardAmounts,\n            _startingTimestamp,\n            _endingTimestmp,\n            _locked\n        );\n    }\n}\n",
  "sourcePath": "/home/luzzif/Projects/swapr-erc20-staking-rewards-factory/contracts/SwaprERC20DistributionFactory.sol",
  "compiler": {
    "name": "solc",
    "version": "0.6.12+commit.27d51765.Emscripten.clang"
  },
  "schemaVersion": "3.3.3",
  "updatedAt": "2020-12-31T16:20:59.785Z",
  "devdoc": {
    "kind": "dev",
    "methods": {
      "owner()": {
        "details": "Returns the address of the current owner."
      },
      "renounceOwnership()": {
        "details": "Leaves the contract without owner. It will not be possible to call `onlyOwner` functions anymore. Can only be called by the current owner. NOTE: Renouncing ownership will leave the contract without an owner, thereby removing any functionality that is only available to the owner."
      },
      "transferOwnership(address)": {
        "details": "Transfers ownership of the contract to a new account (`newOwner`). Can only be called by the current owner."
      }
    },
    "version": 1
  },
  "userdoc": {
    "kind": "user",
    "methods": {},
    "version": 1
  }
}